:020000040800F2
:1000000000000220B9020008C1020008C502000871
:10001000390300083D0300088503000800000000C4
:10002000000000000000000000000000CD030008F8
:10003000D103000800000000D5030008D903000820
:10004000E9030008E9030008E9030008E9030008E0
:10005000E9030008E90300086111000881110008A4
:10006000A1110008C1110008E1110008E90300080E
:10007000E9030008E9030008E9030008E9030008B0
:10008000E9030008E9030008E9030008E9030008A0
:10009000E9030008E9030008E9030008E903000890
:1000A000E9030008E9030008E9030008E903000880
:1000B000E9030008E9030008E9030008E903000870
:1000C000E9030008E9030008E9030008E903000860
:1000D000E9030008E9030008E9030008E903000850
:1000E000E9030008E9030008E9030008E903000840
:1000F000E9030008E9030008E9030008E903000830
:10010000E9030008E9030008E9030008E90300081F
:10011000E9030008E9030008E9030008E90300080F
:10012000E9030008E9030008E9030008E9030008FF
:10013000E9030008E9030008E9030008E9030008EF
:10014000E9030008E9030008E9030008E9030008DF
:10015000E9030008E9030008E9030008E9030008CF
:10016000E9030008E9030008E9030008E9030008BF
:10017000E9030008E9030008E903000800000000A3
:10018000E9030008E903000800B583B000F06AFE47
:10019000384B394A1360394A136039490CE00A6810
:1001A0004B6801F10C04886803E01168196004339E
:1001B00004329842F9D82146324B9942EFD32E4B64
:1001C0001A68314B9A4204D12C4B1A682F4B9A4231
:1001D00000D0FEE7274B2E4A13602E4A13602E4BA9
:1001E0000AE0194651F8082B5B6802E00020106015
:1001F00004329A42FAD30B46284A9342F1D3244B55
:100200001B6813B9234B1B6803B1FEE701F080F9AB
:10021000694601A800F0B6FD214C224B1C1BA4101E
:10022000002504E01E4B53F8253098470135AC42B9
:10023000F8DC1D4C1D4B1C1BA410002504E01A4BC0
:1002400053F8253098470135AC42F8DC0099019805
:1002500001F06EF90546164C164B1C1BA41004E069
:10026000013C134B53F824309847002CF8DC284607
:1002700000F05AFDBABADECA00000020B80900201A
:10028000EC030008040400087856341232547698BF
:10029000BC090020A00A002004040008140400087F
:1002A00014040008140400081404000814040008CE
:1002B000140400081404000808B5FFF765FF00BF28
:1002C00000BEFEE71EF0040F0CBFEFF30880EFF353
:1002D00009807146414A10472DE9F04182B0044639
:1002E0008846134B5E6B9F6B9D6A1B6B13F0020F6E
:1002F0000DD00F4BDB6A002B09DA4BF6AB6100F037
:1003000035FE20B14FF00042094BDA620CE009489B
:1003100000F04AFDCDF800803B4632462946204693
:1003200000F0ACFD00BEFEE702B0BDE8F08100BF0A
:1003300000ED00E0D862000800BEFEE71EF0040FEA
:100340000CBFEFF30880EFF309807146244A104791
:100350002DE9F04182B004468846084B5E6B9F6BE6
:100360009D6A074800F020FDCDF800803B463246EC
:100370002946204600F082FD00BEFEE700ED00E0C9
:10038000E86200081EF0040F0CBFEFF30880EFF3E3
:1003900009807146134A10472DE9F04182B00446A6
:1003A0008846084B5E6B9F6B9D6A074800F0FCFC1B
:1003B000CDF800803B4632462946204600F05EFDDF
:1003C00000BEFEE700ED00E0F462000800BEFEE7BC
:1003D00000BEFEE700BEFEE770470000D90200083D
:0C03E000510300089903000800BEFEE76E
:1003EC00B465000800000020BC090020B4650008BA
:1003FC000000001000000010BC090020A40A00201E
:08040C000000001000000010C8
:1004400010B50446074B1B680748A0FB0330800922
:1004500000F08CF8002221464FF0FF3000F044F805
:10046000002010BD0C000020D34D621008B50B4BCE
:100470001A6842F400721A601A6842F480621A60C4
:100480001A6842F480721A60032000F00FF80F20FF
:10049000FFF7D6FF01F078F8002008BD003C0240CD
:1004A000014B1868704700BF980A002010B5044639
:1004B000C31E042B03D9A421094800F06BFC094A90
:1004C000D36823F4E0631B041B0C240204F4E064EF
:1004D000234343F0BF6343F40033D36010BD00BF38
:1004E0009C60000800ED00E070B504460E4615461D
:1004F0000F2A03D9BC211A4800F04CFC0F2E03D957
:10050000BD21174800F046FC164BDA68C2F3022200
:10051000C2F10701042928BF0421131D062B01D9AC
:10052000033A00E00022012303FA01F101393140CE
:10053000914003FA02F2013A2A400A43002C06DAFB
:1005400004F00F041201D2B2074B1A5570BD12010C
:10055000D2B204F1604404F5614484F8002370BD14
:100560009C60000800ED00E014ED00E00138B0F1FF
:10057000807F0AD2064B5860F021064A82F8231089
:100580000020986007221A6070470120704700BF62
:1005900010E000E000ED00E010B50446042805D0AE
:1005A00020B140F2B311084800F0F4FB042C05D14F
:1005B000064A136843F00403136010BD034A13682E
:1005C00023F00403136010BD9C60000810E000E0FD
:1005D00030B583B0044603680F2B03D9F5219C483E
:1005E00000F0D8FB236813F0010F45D06368012B9E
:1005F00005D9052B03D0FA21954800F0CBFB954B8C
:100600009B6803F00C03042B0AD0924B9B6803F009
:100610000C03082B0CD18F4B5B6813F4800F07D0B1
:100620008C4B1B6813F4003F26D0636823BBCCE1DE
:100630002279894B1A7063687BB1FFF731FF054659
:1006400005E0FFF72DFF401B642800F2C081814BBD
:100650001B6813F4003FF4D00EE0FFF721FF0546BE
:1006600005E0FFF71DFF401B642800F2B281794BC3
:100670001B6813F4003FF4D1236813F0020F6AD013
:10068000E368012B04D94FF49671714800F082FBA6
:1006900023691F2B04D940F22D116D4800F07AFB1D
:1006A0006C4B9B6813F00C0F0AD06A4B9B6803F0ED
:1006B0000C03082B1BD1674B5B6813F4800F16D11A
:1006C000644B1B6813F0020F03D0E368012B40F06A
:1006D00082816048036823F0F8012369F82292FAC6
:1006E000A2F2B2FA82F293400B43036033E0E36874
:1006F000FBB10122594B1A60FFF7D2FE054605E017
:10070000FFF7CEFE401B022800F26781514B1B68A9
:1007100013F0020FF4D04F48036823F0F801236967
:10072000F82292FAA2F2B2FA82F293400B430360EB
:1007300011E00022494B1A60FFF7B2FE054605E0C2
:10074000FFF7AEFE401B022800F24981414B1B68B7
:1007500013F0020FF4D1236813F0080F2ED0636951
:10076000012B04D940F26D11394800F013FB636985
:1007700093B101223A4B1A60FFF792FE054605E05D
:10078000FFF78EFE401B022800F22B81314B5B6F7E
:1007900013F0020FF4D011E00022314B1A60FFF782
:1007A0007FFE054605E0FFF77BFE401B022800F2B6
:1007B0001A81284B5B6F13F0020FF4D1236813F0FA
:1007C000040F60D0A368012B06D9052B04D040F29A
:1007D00097111F4800F0DEFA002301931D4B1A6C9D
:1007E00042F080521A641B6C03F080530193019B0A
:1007F0001C4A136843F480731360FFF751FE0546EB
:1008000005E0FFF74DFE401B022800F2EE80154B7D
:100810001B6813F4807FF4D0227A134B1A70A368FC
:100820008BB1FFF73DFE054607E0FFF739FE401BA1
:1008300041F28833984200F2DA80064B1B6F13F0C6
:10084000020FF2D01FE0FFF72BFE054616E000BFB7
:10085000E0600008003802400238024000004742D1
:10086000800E47420070004070380240FFF718FECB
:10087000401B41F28833984200F2BB80634B1B6FF0
:1008800013F0020FF2D1A369022B04D94FF4E671E1
:100890005F4800F07FFAA369002B00F0AC805B4A50
:1008A000926802F00C02082A00F0A780022B79D18E
:1008B000E3693BB1B3F5800F04D040F2D511544841
:1008C00000F068FA236A3F2B04D94FF4EB715048CB
:1008D00000F060FA636A323BB3F5BF7F04D940F29F
:1008E000D7114B4800F056FAA36A022B0AD0042B0A
:1008F00008D0062B06D0082B04D04FF4EC714448E6
:1009000000F048FAE36A043B0B2B04D940F2D911FA
:100910003F4800F03FFA00223E4B1A60FFF7C0FD4F
:10092000054604E0FFF7BCFD401B022867D8374BA3
:100930001B6813F0007FF5D1E169236A1943636AEC
:1009400047F6C07292FAA2F2B2FA82F293401943C9
:10095000A36A5B085A1E4FF4403393FAA3F3B3FA29
:1009600083F302FA03F30B43E26A4FF0706191FAEA
:10097000A1F1B1FA81F18A401343244A5360012264
:10098000244B1A60FFF78CFD044604E0FFF788FD56
:10099000001B022835D81D4B1B6813F0007FF5D0D3
:1009A000002031E000221B4B1A60FFF779FD04465E
:1009B00004E0FFF775FD001B022824D8134B1B68C9
:1009C00013F0007FF5D100201EE001201CE0032081
:1009D0001AE0032018E0012016E0032014E00320B1
:1009E00012E0032010E003200EE003200CE00320BF
:1009F0000AE0032008E0002006E0012004E00320D4
:100A000002E0032000E0032003B030BD00380240C4
:100A1000E060000860004742244B9B6803F00C0331
:100A2000042B3FD0082B01D02148704710B41F4B36
:100A3000586800F03F005B6813F4800F10D01D4B26
:100A4000B3FBF0F0194B5A6847F6C0710A4091FAAF
:100A5000A1F3B3FA83F322FA03F303FB00F310E0EC
:100A6000134BB3FBF0F0114B5A6847F6C07402EA1F
:100A7000040194FAA4F2B2FA82F221FA02F202FB21
:100A800000F30A4A506800F440324FF4403090FAC4
:100A9000A0F0B0FA80F022FA00F001304000B3FB81
:100AA000F0F001E00348704710BC70470038024086
:100AB0000024F40000127A0070B504460D46036865
:100AC000013B0E2B04D940F237218F4800F062F928
:100AD000072D04D94FF40E718B4800F05BF98B4B56
:100AE0001B6803F00F039D4208D9EBB2874A1370CD
:100AF000136803F00F039D4240F0F480236813F065
:100B0000020F1DD0A368A3B1802B12D0902B10D060
:100B1000A02B0ED0B02B0CD0C02B0AD0D02B08D0DD
:100B2000E02B06D0F02B04D040F24F21764800F0A5
:100B300031F977498B6823F0F002A36813438B6087
:100B4000236813F0010F6BD06368032B04D940F2C4
:100B500056216D4800F01EF96268012A05D16C4BE0
:100B60001B6813F4003F0FD1BEE0931E012B05D884
:100B7000674B1B6813F0007F06D1B7E0644B1B681E
:100B800013F0020F00F0B48061498B6823F0030377
:100B900013438B60FFF784FC06466368012B0FD17B
:100BA00007E0FFF77DFC801B41F28833984200F29A
:100BB000A180574B9B6803F00C03042BF1D12FE06D
:100BC000022B0FD107E0FFF76BFC801B41F288334B
:100BD000984200F291804E4B9B6803F00C03082B67
:100BE000F1D11DE0032B16D107E0FFF759FC801B64
:100BF00041F28833984200F28180454B9B6803F0B4
:100C00000C030C2BF1D10BE0FFF74AFC801B41F2E7
:100C10008833984274D83E4B9B6813F00C0FF3D185
:100C20003A4B1B6803F00F039D4207D2EAB2374BE1
:100C30001A701B6803F00F039D4263D1236813F001
:100C4000040F19D0E36883B1B3F5805F0DD0B3F51D
:100C5000A05F0AD0B3F5C05F07D0B3F5E05F04D062
:100C60004FF42D71284800F095F829498B6823F43A
:100C7000E052E36813438B60236813F0080F1AD027
:100C8000236983B1B3F5805F0DD0B3F5A05F0AD0BF
:100C9000B3F5C05F07D0B3F5E05F04D040F2BB21ED
:100CA000194800F077F81A4A936823F460432169E1
:100CB00043EAC1039360FFF7AFFE154B9B6803F057
:100CC000F002F02393FAA3F3B3FA83F322FA03F3C7
:100CD000104AD35CD840104B18600F20FFF7B0FBD0
:100CE000002070BD012070BD012070BD012070BDCD
:100CF000012070BD032070BD032070BD032070BDB6
:100D0000032070BD012070BDE0600008003C02407F
:100D100000380240D06000080C000020014B186829
:100D2000704700BF0C000020FEE700BF08B5034875
:100D300000F052F80120FFF7F7FF00BF1061000834
:100D400008B50D4B1B6813B90C4A0B4B1A600A4BC4
:100D50001A68C31C23F00303134409498B4206D9C4
:100D600000F014FC0C2303604FF0FF3008BD024973
:100D70000B60104608BD00BFC0090020A40A002077
:100D800000FC012001230360014B0B60704700BF92
:100D90000400002008B50A460146024800F004F8A5
:100DA000FFF7C4FF646100080FB400B583B004AB63
:100DB00053F8042B01938021064800F0A9FC002879
:100DC00003DD0146034800F049F803B05DF804EB89
:100DD00004B07047C809002010B5044600F0F0FBCD
:100DE0000146204600F03AF80121024800F036F8AA
:100DF00010BD00BF546200082DE9F04385B00446E1
:100E00000F46435613BB042528462146ABBE044675
:100E10001FE03546102E28BF1025002306E014F9E8
:100E2000011B04AA1A4402F8101C0133AB42F6D38A
:100E300004AA1344002203F8102CE9464FF00408DA
:100E400040464946ABBE8046761B00E00E46002E6B
:100E5000DFD1384605B0BDE8F08300BF08B5FFF725
:100E6000CBFF08BD08B500F091F8024B024A9A602A
:100E700008BD00BF00ED00E000000008F8B5044622
:100E80000D4617461E462648FFF78EFF2168254867
:100E9000FFF78AFF61682448FFF786FFA1682348AF
:100EA000FFF782FFE1682248FFF77EFF21692148B2
:100EB000FFF77AFF61692048FFF776FFA1691F48B5
:100EC000FFF772FFE1691E48FFF76EFF1D48FFF74D
:100ED0006BFF29461C48FFF767FF1C4CE16A1C4862
:100EE000FFF762FF216B1B48FFF75EFFE16B1A48BB
:100EF000FFF75AFF15F0800F03D039461748FFF768
:100F000053FF15F4004F03D031461548FFF74CFF4F
:100F10001448FFF749FF06991348FFF745FFF8BD4E
:100F2000BC610008CC610008DC610008EC610008CD
:100F3000FC6100080C6200081C6200082C620008BA
:100F40003C6200084C6200085862000800ED00E0B6
:100F500068620008786200088862000898620008E9
:100F6000A8620008B8620008C062000883691A8895
:100F70008A4207D10268033A012A05D80233836105
:100F80000120704700207047002070470C4B1A6802
:100F900042F001021A60002199601A6822F08472FE
:100FA00022F480321A60074A5A601A6822F48022BA
:100FB0001A60D9604FF00062034B9A60704700BF1F
:100FC000003802401030002400ED00E0224B9B6806
:100FD00003F00C03042B07D0082B09D0002B2DD1D4
:100FE0001E4A1F4B1A602CE01E4A1D4B1A6028E057
:100FF000194B5A685B6803F03F0312F4800F09D065
:10100000184AB2FBF3F2144B5B68C3F3881303FB7B
:1010100002F208E0114AB2FBF3F30F4A5168C1F340
:10102000881101FB03F20C4B5B68C3F301430133EE
:101030005B00B2FBF3F30A4A136002E0074A084B75
:101040001A60054B9B68C3F30313074AD15C044A3B
:101050001368CB4013607047003802400024F4004E
:101060000C00002000127A000463000808B501217A
:101070004FF4804000F0C4F908BD00BF002854D0F0
:10108000034682780F2A52D841780F2951D8007828
:10109000092850D830B48908294850F821409200D6
:1010A00002F00C020F2505FA02F224EA020240F8CF
:1010B00021205978890850F821401D789A789200AB
:1010C00002F00C0205FA02F2224340F82120DA78FD
:1010D00002F1804202F59E32987801218140116030
:1010E0001A7942B917498A689878012383401343D3
:1010F0008B60002021E0012A08D11249CA68987843
:10110000012383401343CB60002016E00D4A94680E
:101110009878012101FA00F020439060D0689B7814
:1011200099400143D160002007E001207047012071
:101130007047012070470120704730BC704700BFE6
:1011400008380140003C0140062904D8034B43F80D
:101150002100002070470220704700BF480A00208D
:1011600008B5054A536943F001035361034B1B68FB
:1011700003B1984708BD00BF003C0140480A002069
:1011800008B5054A536943F002035361034B5B689A
:1011900003B1984708BD00BF003C0140480A002049
:1011A00008B5054A536943F004035361034B9B6838
:1011B00003B1984708BD00BF003C0140480A002029
:1011C00008B5054A536943F008035361034BDB68D4
:1011D00003B1984708BD00BF003C0140480A002009
:1011E00008B5054A536943F010035361034B1B696B
:1011F00003B1984708BD00BF003C0140480A0020E9
:10120000002800F0928003468268032A00F28F8053
:1012100041680F2900F28D80406900F17042022A76
:1012200000F2898070B41A68464CA2421BD004F5C3
:101230008064A24217D004F58064A24213D004F562
:101240008064A2420FD004F58064A2420BD004F562
:101250008064A24207D004F58064A24203D004F562
:101260008064A24269D120F0704058614900032493
:101270008C40E443106804EA0005156098688840D3
:1012800028431060D06804EA0005D560586988409A
:101290002843D0609868012809D1DD6805F15045E0
:1012A000012D4DD81D6905F14045032D48D8D8685A
:1012B00020F07040D860186920F0704018615D68B7
:1012C0006FF0010000FA05F5506805405560D868D8
:1012D0005E68B0402843506090680440946018698C
:1012E0008840204390609868022828D1490001F086
:1012F0001F010F2088405C68072C0BD8146A24EA71
:10130000000010629B6903FA01F140EA01031362D5
:10131000002015E0546A24EA000050629B6903FA39
:1013200001F10843506200200AE0012070470120CB
:1013300070470120704701207047012000E0002025
:1013400070BC70470000024051280AD8420900F0E2
:101350001F00012303FA00F0034B43F82200002092
:1013600070470120704700BF00E100E0431E012BE1
:101370002FD904282DD008282BD0102829D0202898
:1013800027D0402825D0802823D0B0F5807F20D0DA
:10139000B0F5805F1DD0B0F5802F1AD0B0F5801F5A
:1013A00017D0B0F5001F14D0B0F5800F11D0B0F1F8
:1013B000007F0ED0B0F1806F0BD0B0F1006F08D07D
:1013C000B0F1805F05D0B0F1005F02D0B0F1804F86
:1013D0000FD101290FD805D1084A136B18431063A8
:1013E00000207047054A136B23EA000010630020B9
:1013F0007047012070470120704700BF003802404D
:10140000B0F5807F1FD0B0F5007F1CD0B0F5806FA5
:1014100019D0B0F5006F16D0B0F5805F13D0B0F5DD
:10142000804F10D001280ED0B0F5003F0BD0B0F5A2
:10143000802F08D0022806D0B0F5803F03D01028B6
:1014400001D020280FD101290FD805D1084A536CAB
:101450001843506400207047054A536C23EA00008B
:10146000506400207047012070470120704700BF82
:101470000038024030B595B000240194214B1A6C1D
:1014800042F080521A641B6C03F080530193019B5D
:1014900002941D4B1A6842F480421A601B6803F4E0
:1014A00080430293029B0123089309934FF4800326
:1014B0000F93082310934FF4A873119302251295EC
:1014C000072313930E9508A8FFF782F80F230393C1
:1014D000049505944FF4A05306934FF4805307935B
:1014E000052103A8FFF7E8FAFFF718FC074BA3FB59
:1014F00000308009FFF73AF80420FFF74DF815B0E7
:1015000030BD00BF0038024000700040D34D621073
:1015100008B5FEF7ABFFFFF7ADFFFFF757FD08BDBE
:1015200008B50248FFF740FC08BD00BF146300087F
:1015300010B58AB0124B03930024059404944FF025
:10154000805308938DF806408DF808408DF80740C9
:101550008DF805408DF80440FFF788FD012108460D
:10156000FFF704FF03A8FFF74BFE0620FFF7ECFE92
:1015700021460448FFF7E8FD01A8FFF77FFDFEE7DD
:101580000000024021150008704700BF014B186899
:10159000704700BF38040020000000000000000079
:1015A000000000000000000000000000000000003B
:1015B000000000000000000000000000000000002B
:1015C00090F800F06DE9024520F007016FF0000C83
:1015D00010F0070491F820F040F049804FF000042B
:1015E0006FF00700D1E9002391F840F000F1080006
:1015F00082FA4CF2A4FA8CF283FA4CF3A2FA8CF33E
:101600004BBBD1E9022382FA4CF200F10800A4FAA4
:101610008CF283FA4CF3A2FA8CF3E3B9D1E90423F8
:1016200082FA4CF200F10800A4FA8CF283FA4CF32F
:10163000A2FA8CF37BB9D1E9062301F1200182FAE9
:101640004CF200F10800A4FA8CF283FA4CF3A2FAEF
:101650008CF3002BC6D0002A04BF04301A4612BAFD
:10166000B2FA82F2FDE8024500EBD2007047D1E900
:10167000002304F00305C4F100004FEAC50514F08F
:10168000040F91F840F00CFA05F562EA05021CBF60
:1016900063EA050362464FF00004A9E770B5002A2B
:1016A0009AB005462FDB14461A464FF40273009198
:1016B0000491ADF80C3011D0013C4FF6FF761E9B23
:1016C000029469460594ADF80E6000F031F8421CB2
:1016D00012DB009B00221A701AB070BD1E9B029490
:1016E0004FF6FF7669460594ADF80E6000F020F8DD
:1016F000431C04DB1AB070BD8B232B60E9E78B23FE
:101700002B601AB070BD8B2303604FF0FF30F1E700
:1017100010B582B0054C0093246813460A46014672
:101720002046FFF7BBFF02B010BD00BF3804002009
:101730002DE9F04FC1B00C46099115460E930A9061
:1017400002F00EFB036817931846FFF739FFA389D1
:1017500016901E0603D52369002B01F01A81002381
:101760001A4612932593249319930B93DFF864A4DC
:10177000149230AB239399461592A84698F80030FE
:101780004446EBB1252B02D11AE0252B03D014F8E7
:10179000013F002BF9D1C8EB04058DB1249B259A9C
:1017A000C9F8008001332A44072BC9F80450259258
:1017B000249300F3A68009F108090B9B2B440B939B
:1017C0002378002B00F0A68000231A468DF86F3096
:1017D00019460C9307934FF0FF3B637804F101081F
:1017E0005D4608F10108A3F12000582800F2258485
:1017F000DFE810F088032304230490032304230468
:1018000023042304230423049703A50323045D0076
:10181000E2002304FE0005010501050105010501A3
:101820000501050105010501230423042304230404
:101830002304230423042304230423041501810225
:10184000230481022304230423042304C602230463
:101850002304CD0223042304230423042304F702D6
:10186000230423042503230423042304230423043F
:10187000230423042304230423046603790381023D
:10188000810281028103790323042304D103230409
:10189000DB03A3006400EE032304F5032304AA037F
:1018A00023042304BC030C980E9340420C90079B26
:1018B00043F00403079398F8003092E70E98AB4684
:1018C000002104688DF86F10071D079830237822D7
:1018D0008B458DF870304FF000058DF8712040F089
:1018E0000203C0F2C78320F0800343F00203079392
:1018F00054EA05030E9700F093830F461192B34804
:10190000CEE223AA09990A9803F000F948B90DF12B
:10191000C00952E7259B23B10A98099923AA03F02D
:10192000F5F8099B9B8913F0400F0B9B18BF4FF0F4
:10193000FF33184641B0BDE8F08F1193AB46002A43
:1019400041F03382079A12F0200300F02E820E9F9E
:10195000073727F00703002703F10801BB450E9165
:10196000D3E900458DF86F70C0F2798722F08003CB
:10197000079354EA050300F0758330AEE20842EAAB
:101980004572E90804F007030D461446303354EA63
:10199000050206F8013DF1D1079AD10740F1848094
:1019A000302B00F081803022731E06F8012C30AA03
:1019B000D21A0D921E467AE098F800302A2B08F1D0
:1019C000010401F0B981A3F13000092898BF002576
:1019D00001F26C8114F8013B05EB850500EB450530
:1019E000A3F130000928F5D945EAE575A046FAE6E5
:1019F000079B43F08003079398F80030F1E6A3F1CA
:101A0000300000231C4618F8013B04EB840400EB73
:101A10004404A3F130000928F5D90C94E3E61193AE
:101A2000AB46002A41F0AB81079B43F010030793BC
:101A3000079B980640F130850E9F073727F0070770
:101A4000D7E9002307F108010E9114461D46002A2C
:101A500073F10003C0F25B85BBF1000F9DF86F705E
:101A6000C0F23885079B23F08003079354EA0503EF
:101A700000F0DB81002D08BF0A2CC0F0DB8130AE06
:101A8000204629460A22002304F07CF9303206F869
:101A9000012D2046294600230A2204F073F904464A
:101AA0000D4654EA0503EBD130AB9B1B0D930D9B08
:101AB0005B45B8BF5B4608930023139317B1089B9F
:101AC00001330893079B13F002030F9302D0089B86
:101AD00002330893079B13F08403109340F0D782DE
:101AE0000C9B089A9D1A002D40F3D182102D259948
:101AF000249A374F27DD189648461024B946099E88
:101B00002F460A9D04E0103F102F00F1080016DD5B
:101B100001322F4B24921031072A259180E81800BA
:101B2000F1DD23AA3146284602F0F0FF00287FF4B9
:101B3000F8AE103F102F2599249A30A8E8DC189EA3
:101B40003D464F46814601326C18072A259424925F
:101B5000C9F80070C9F8045000F328849DF86F702C
:101B600009F1080977B1249B013301340DF16F01AC
:101B70000122072B2594249389E8060000F3A08313
:101B800009F108090F9B6BB1249B013302341CA996
:101B90000222072B2594249389E8060000F39C83F6
:101BA00009F10809109B802B00F0D5820D9BC3EB37
:101BB0000B07002F39DD074A249B0F92102F28DDD9
:101BC00022464FF0100B0A9D099C0AE0546300085E
:101BD0007463000820630008103F102F09F1080902
:101BE00016DD01331032072B2592249389E8000C6F
:101BF000F2DD23AA2146284602F088FF00287FF460
:101C000090AE103F102F259A249B0DF1C009E8DCFF
:101C1000144601330F9A24933C44072B259489E8FA
:101C2000840000F3418309F10809079BDA0500F1FC
:101C30003082249B0D99C9F8006001330C44072BB6
:101C40002594C9F80410249300F3188309F10809B6
:101C5000079B59073FD50C9B089A9D1A002D3ADD2A
:101C6000102D249BBC4F23DD22461026DDF828B022
:101C7000099C04E0103D102D09F1080917DD01331E
:101C8000B54924931032072B259289E84200F1DDF3
:101C900023AA2146584602F039FF00287FF441AEBE
:101CA000103D102D259A249B0DF1C009E7DC144648
:101CB00001332C44072B25942493C9F80070C9F8EC
:101CC000045008DD23AA09990A9802F01FFF002892
:101CD0007FF427AE259C0B9B0C9A08998A42ACBFD7
:101CE0009B185B180B93002C40F0D48200232493A4
:101CF0000DF1C00942E51193AB46002A41F0518035
:101D00000E9F073727F0070303F108020E921A68A7
:101D100014925B681593159B149D23F0004428468C
:101D200021464FF0FF328D4B03F0EEFF002840F0CC
:101D3000C284284621464FF0FF32884B03F0C6FF8D
:101D4000002840F0B884149815990022002303F06D
:101D5000B3FF002840F04F879DF86F70804E814B95
:101D6000079921F080010791119903224FF0000B90
:101D700008924729D8BF1E460D92CDF84CB09DE67B
:101D8000079B43F00803079398F8003029E5119367
:101D9000AB46002A41F01180079B43F010030793E4
:101DA000079A12F020037FF4D2AD079911F01002C8
:101DB00000F02C850E988DF86F30BBF1000F046891
:101DC00000F104074FF00005C0F248850A4622F0F2
:101DD0008002079254EA05020E9700F043811F46E5
:101DE000CBE51193AB46002A40F0E387079B43F015
:101DF00010030793079A12F0200300F032830E9F1E
:101E0000073727F00703002703F10801BB450E91B0
:101E1000D3E900458DF86F70C0F25C8322F0800337
:101E2000079354EA05037FF425AEBBF1000F00F0E1
:101E3000FE80002440AE303406F8414D34E6119364
:101E4000AB46002A40F09787079B47489D0640F124
:101E500097800E9F073727F00703D3E9004503F16A
:101E600008020E92079A12F0010700F0418254EA2C
:101E7000050300F005859DF844208DF871200027AA
:101E8000079A8DF86F703023BB458DF8703042F0A3
:101E90000203C0F2B58622F0800343F002030793E9
:101EA00030AE230904F00F0143EA05732A091C46EA
:101EB0001546435C06F8013D54EA0503F1D1F3E50C
:101EC0000E9911930A688DF8982000230A461F4640
:101ED0008DF86F30043201230893BB4613970E929E
:101EE0000D9326AEEEE51193AB46002A3FF4A0AD6C
:101EF0008DF86F109CE5079B43F04003079398F81B
:101F000000306EE498F8003000297FF46AAC0122BA
:101F1000202166E4079B43F00103079398F8003003
:101F20005FE40E9C23680C9318460028234603F1B7
:101F30000403FFF6B8AC0E9398F8003051E498F81B
:101F4000003001222B214CE41193AB46002A3FF4D0
:101F500051AF8DF86F104DE774630008FFFFEF7FFE
:101F60003463000830630008406300081193AB46F7
:101F7000002A40F02A87079B99489D063FF569AFE4
:101F8000079BDC0640F135840E9A1346043314682F
:101F90000E93002566E798F800306C2B00F0E28481
:101FA000079840F0100007901BE4002A40F00987D2
:101FB000079B9B0640F106840E9A0B991368CD1778
:101FC0000846043229460E92C3E90001FFF7D6BB4A
:101FD000079B43F02003079398F8003001E40E9A22
:101FE0001193166800248DF86F40171D002E00F025
:101FF000CD85002DC0F218852A462146304602F0D4
:1020000077F9002800F02A86831B0D93A34623EA64
:10201000E3730E970893CDF84CB09DF86F704DE5C3
:102020006F481192BBF1000F40F073815F464FF093
:10203000000BCDF834B030AE39E51193002A40F0F2
:10204000AC86119A002A3FF465AC002301211F469B
:1020500008918DF898208DF86F309B4613930D9161
:1020600026AE2FE5BBF1000F00F003860027002409
:10207000002582E45A480793119254EA05030E970B
:102080004FF000077FF40CAF0024002508E7259CE3
:1020900068E5119B652B40F3A980149815990022DF
:1020A000002303F0FFFD002800F03581249B4D4AFA
:1020B000C9F80020013301340122072B2594249311
:1020C000C9F8042000F3E88309F108091D9B129A5E
:1020D000934203DB079BDB077FF5BAAD249B169980
:1020E000179AC9F8002001330C44072B2594C9F82E
:1020F0000410249300F3408409F10809129B5D1E2B
:10210000002D7FF7A5AD384A249B0F92102D40F388
:10211000E68110260A9FDDF824B005E009F10809E0
:10212000103D102D40F3DB8101331034072B259433
:102130002493C9F800A0C9F80460EFDD23AA59462A
:10214000384602F0E3FC00287FF4EBAB259C249B8F
:102150000DF1C009E4E70C9B089A9F1A002F7FF746
:1021600025AD214A249B0F92102F2BDD4A46214694
:10217000B946102537460A9C099E06E0A9F11009C8
:10218000B9F1100F02F1080218DD01331031072BED
:1021900025912493C2F800A05560EFDD23AA3146B3
:1021A000204602F0B3FC00287FF4BBABA9F1100974
:1021B000B9F1100F2599249B30AAE6DC3E460C4667
:1021C0004F46914601330F9A24933C44072B2594A4
:1021D00089E8840000F3458209F10809E6E400BFBC
:1021E000546300087063000820630008129B249D5C
:1021F000012B40F30882013501340123072D25947A
:102200002495C9F80060C9F8043000F30D8209F183
:102210000809169A179BC9F8003001351444072D98
:1022200025942495C9F8042000F30E8209F10809C9
:10223000002314981599002203F034FD129B002806
:1022400040F0C380013B013501361C44072D249525
:102250002594C9F80060C9F8043000F3F58009F14D
:102260000809199AC9F80420013514441FAB072D39
:1022700025942495C9F800307FF7E8AC23AA099982
:102280000A9802F043FC00287FF44BAB259C0DF12B
:10229000C009DDE423AA09990A9802F037FC002856
:1022A0003FF424ADFFF73DBB23AA09990A9802F039
:1022B0002DFC00287FF435AB259C0DF1C009B4E45A
:1022C00023AA09990A9802F021FC00287FF429AB7F
:1022D000259C0DF1C00955E423AA09990A9802F03A
:1022E00015FC00287FF41DAB259C0DF1C00959E4B5
:1022F000BBF1000F8DF86F70C0F2DA8222F080031C
:10230000079354EA05037FF4CBADBBF1000F3FF414
:102310008DAE0027B8E61D9D002D40F3CC82139BA7
:10232000129A9342A8BF1346002B1D460DDD249B35
:10233000C9F8006001332C44072B2594C9F80450D8
:10234000249300F3A38309F10809139B002DA8BF70
:102350005B1B002B1D4640F3F680BA4A249B0F926C
:10236000102D40F3808222461027DDF828B0099C0A
:1023700005E009F10809103D102D40F37382013387
:102380001032072B25922493C9F800A0C9F80470D5
:10239000EFDD23AA2146584602F0B8FB00287FF45F
:1023A000C0AA259A249B0DF1C009E4E723AA099944
:1023B0000A9802F0ABFB00287FF4B3AA9DF86F7077
:1023C000259C0DF1C009FFF7CDBB5E1E002E7FF7E7
:1023D00048AF9C4B0F93102E2CDDCDF83480102786
:1023E000B046DDF828B0099E06E0A8F11008B8F163
:1023F000100F09F108091ADD01351034072D259455
:102400002495C9F800A0C9F80470EEDD23AA31466E
:10241000584602F07BFB00287FF483AAA8F110083D
:10242000B8F1100F259C249D0DF1C009E4DC46464F
:10243000DDF834800F9B01353444072D2594249515
:1024400089E848007FF70BAF23AA09990A9802F0A0
:102450005DFB00287FF465AA259C249D0DF1C00931
:10246000FFE6079911F0100200F008810E988DF830
:102470006F30BBF1000F046800F104074FF0000556
:1024800026DB0A4622F08002079254EA05020E97E4
:102490001F467FF4EFAAC8E4079BD9062AD4079BFE
:1024A0005A0627D50E99B1F900400431E5172246A6
:1024B0002B460E91FFF7CBBA0E998DF86F30BBF11A
:1024C000000F0C6801F104074FF0000580F245820F
:1024D0000E971F4654EA05037FF4CCAAAAE4013301
:1024E0000F9A24932C44072B259489E824007FF726
:1024F000ADABC3E60E9A146813460433E5172246C3
:102500000E93002A2B4673F10003BFF6A5AA64427E
:102510004FF02D0765EB4505BBF1000F8DF86F708F
:10252000FFF6A8AA079B23F080030793FFF7A2BA40
:1025300023AA09990A9802F0E9FA00287FF4F1A980
:10254000259C0DF1C009139A1D9B32441746129A1F
:10255000934247DB079AD50744D412990E44F51BE2
:10256000CB1A9D42A8BF1D46002D2E460DDD249A94
:10257000C9F8007001322C44072A2594C9F8045088
:10258000249200F3128309F10809002EACBF9D1BB1
:102590001D46002D7FF75CAB2A4A249B0F92102D1D
:1025A0009DDD10260A9FDDF824B004E009F108093A
:1025B000103D102D93DD01331034072B2594249307
:1025C000C9F800A0C9F80460F0DD23AA59463846CE
:1025D00002F09CFA00287FF4A4A9259C249B0DF10D
:1025E000C009E5E7249A16981799C9F80010013236
:1025F0000444072A2594C9F80400249200F3A58214
:1026000009F10809A9E7079BD8073FF5F4AD0135A3
:1026100001340123072D25942495C9F80060C9F8D9
:1026200004307FF71CAE0FE723AA09990A9802F03D
:102630006DFA00287FF475A9259C249D0DF1C00931
:10264000E7E500BF2063000823AA09990A9802F071
:102650005DFA00287FF465A9259C249D0DF1C00931
:10266000E6E523AA09990A9802F050FA00287FF4B7
:1026700058A9259C0DF1C009FFF798BA079911F0E8
:1026800040033FF419AF0E988DF86F200346BBF15D
:10269000000F03F1040304884FF00005C0F2B98174
:1026A00021F08001079154EA05010E9317467FF44B
:1026B000E1A9FFF7BABB149C22462046159C23468D
:1026C000214603F021FB002840F01583119BBBF14C
:1026D000FF3F23F020030D9300F07682472B00F09C
:1026E0009281079B43F480731093159B1F1E149BCC
:1026F0000893BBBF3B4603F1004700232D230F93F4
:10270000119B662B00F06382462B00F05E810D9BCF
:10271000089A452B21A81EA90CBF0BF101055D46A7
:10272000049003911DA802213B460290019500915F
:102730000A9800F0E9FB119B672B064640F07D826A
:10274000079BDA0740F1BF827419089839460022C6
:10275000002303F0A7FA002840F0A481219B9C42AB
:1027600006D930215A1C21921970219B9C42F9D81C
:102770009B1B12930D9B472B00F08181119B652BB6
:1027800040F36A82119B662B1D9B139300F04782D6
:10279000139A12998A42C0F23682079BD90700F138
:1027A000898222EAE2730D92672211920F9A002A1F
:1027B00040F05B810893109B079393469DF86F70E0
:1027C000FFF77CB9079BDF060BD4079B5E0608D595
:1027D0000E9A136804320E92BDF82C201A80FEF770
:1027E000CDBF0E9A136804320E920B9A1A60FEF750
:1027F000C5BF079B0E9A13F0400F134600F00E81E1
:10280000043314880E930025FFF72CBB079911F0B1
:10281000400317D00E988DF86F200346BBF1000FD0
:1028200003F1040304884FF00005C0F2F58021F0A5
:102830008001079154EA05010E933FF413AC17464B
:10284000FFF79BB80E998DF86F30BBF1000F0C6845
:1028500001F104074FF0000580F281800E970027F8
:10286000FFF78BB8144601330F9A24932C44072B9F
:10287000259489E824003FF75BAE09F1080962E678
:102880000027BB458DF86F70FFF6FEAB079B23F06A
:1028900080030793FFF7C6BB23AA09990A9802F0A1
:1028A00035F900287FF43DA8259C0DF1C0090DE401
:1028B0000E9FFFF7E2BB249BB14AC9F80020013309
:1028C00001340122072B25942493C9F804206FDCDE
:1028D00009F108092DB9129B1BB9079BDF077FF58A
:1028E000B7A9249B1699179AC9F8002001330C4404
:1028F000072B2594C9F80410249300F3C98109F12A
:1029000008096D42002D40F3A3809E4A0F92102DBE
:1029100040F3298122461027DDF828B0099C05E004
:1029200009F10809103D102D40F31C8101331032CC
:10293000072B25922493C9F800A0C9F80470EFDD95
:1029400023AA2146584602F0E1F800287EF4E9AFB8
:10295000259A249B0DF1C009E4E7079A92E5079AAE
:10296000FFF735BA079B43F02003079308F10108EE
:1029700098F80030FEF735BF23AA09990A9802F0AB
:10298000C5F800287EF4CDAF259C0DF1C009FFF7F6
:10299000B5BB40210A9801F0F1F9099A1060106165
:1029A000002800F0F381099A40235361FEF7D7BE57
:1029B00023AA09990A9802F0A9F800287EF4B1AF79
:1029C0001D9D259C0DF1C00984E721A81EA9049036
:1029D00003911DA803210290089ACDF804B03B464C
:1029E00000910A9800F090FA5D460646119B462B2E
:1029F00006EB05047FF4A9AE3378302B00F06D812F
:102A00001D9D2C44A1E6BBF1000F08BF4FF0010B48
:102A100067E60E9317465DE50E9320E704331468CE
:102A20000E930025FFF71EBA3046FEF7C9FDA346F8
:102A300003460D90FFF7EBBA23AA09990A9802F012
:102A400065F800287EF46DAF259C249B0DF1C0092C
:102A50001299C9F8006001330C44072B2594249384
:102A6000C9F804107FF7F2A808E42D270893109BFB
:102A700007938DF86F704FF0000BFFF720B81D9B88
:102A8000DD1C11DB9B450FDB139381E623AA09991B
:102A90000A9802F03BF800287EF443AF259C0DF124
:102AA000C00952E4234663E6119A023A1192013BAF
:102AB000002B9DF844201D93B8BF5B428DF87C200D
:102AC000B4BF2D222B22092B8DF87D2040F3FD80F1
:102AD0000DF18B0004462C4A82FB0321DA17C2EB6E
:102AE000A10202EB8201A3EB410303F13001092AA9
:102AF000134604F8011DEEDC21463033DAB201F84A
:102B0000012D884240F23F810DF17E01234601E014
:102B100013F8012B01F8012B9842F9D1431C1B1B20
:102B20000DF17E0213441FAA9B1A129A1993012ACF
:102B300013440D9340F3F6800D9B169A1344002224
:102B40000D93139223EAE37330E623AA09990A98B6
:102B500001F0DCFF00287EF4E4AE1D9B259C0DF106
:102B6000C009FAE4144601330F9A24932C44072B2E
:102B7000259489E824003FF75FAF09F1080967E76A
:102B8000706300082063000867666666062D2B46A2
:102B900028BF06230D9323EAE373B3460E971396DB
:102BA000374608938B4EFEF789BF23AA09990A98E6
:102BB00001F0ACFF00287EF4B4AE1D9B129A259C58
:102BC000D31A0DF1C009E0E44FF0060B89E521A806
:102BD0001EA9049003911DA803210290089ACDF824
:102BE00004B03B4600910A9800F08EF95D46064617
:102BF00000EB0B0400E72D278DF86F70FFF7AEB8E0
:102C00000793FFF74DB9169A129B1344139A0D932D
:102C1000002A7FDD672223EAE3731192C6E5002BC9
:102C200040F39880BBF1000F6BD1079AD40768D4AA
:102C30001A460D9223EAE373B8E5119B472B7FF404
:102C400083AD079BDB073FF5D1AE219B9B1B129306
:102C50000D9B472B3FF413AF1D9B28E725EAE57337
:102C60000E9708930D95834613909DF86F70FEF7AD
:102C700025BF079BDB075F4605D540AE302306F82E
:102C8000413DFEF711BFCDF834B030AEFEF70FBFB7
:102C900023AA09990A9801F039FF00287EF441AE71
:102CA0001D9D259C249B0DF1C0092AE6A046002508
:102CB000FEF799BD169A139B134467220D93119248
:102CC00023EAE37372E5219B52E5303330228DF81D
:102CD0007F308DF87E2020AB25E70898394600220A
:102CE000002302F0DFFF00287FF48AAEC5F1010562
:102CF0001D952C4429E5384E384B9DF86F70FFF731
:102D00002FB8139B169A9D1805EB0B030D9323EA1E
:102D1000E3734BE5139B0D9AC3F101031A44134669
:102D20000D9277E7079B13F001037FF405AF139330
:102D30000D9B23EAE37339E50E9898F80130056896
:102D40000430002D0E90A046BEF64BAD4FF0FF357F
:102D5000FEF747BDBBF1000F02D1079BD80707D58F
:102D6000169B5D1C05EB0B030D9323EAE3731DE536
:102D700001230D931AE58DF86F10FFF765B88DF8F4
:102D80006F10FEF751BE0DF17E03CCE60A9A0C23BC
:102D900013604FF0FF30FEF7CDBD8DF86F10FFF7D9
:102DA00050B98DF86F10FEF7ABBF8DF86F10FEF7BE
:102DB000C9BD8DF86F10FFF719B88DF86F10FEF7C9
:102DC000EBBF8DF86F10FFF7F3B88DF86F10FFF7BA
:102DD000D2B800BF686300083C630008386300088D
:102DE00002690B69934200F38D802DE9F04F03F1E6
:102DF000FF3801F1140700F1140B57F828205BF895
:102E000028304FEA880483B00132B3FBF2F90BEBB0
:102E10000403009407EB040A0193B9F1000F39D0C1
:102E20000025BC46DE462B465CF8046BDEF800202D
:102E3000B4B209FB0455360C2C0C09FB0644ADB2A8
:102E40005B1BA6B213FA82F3C6EB124606EB2346CF
:102E50009BB243EA0643E2454EF8043B4FEA144571
:102E60004FEA2643E0D2009B5BF8033093B9019C04
:102E7000231F9B450CD254F8043C4BB9A4F1080322
:102E800002E01A68043B1AB99B4508F1FF38F8D3F1
:102E9000C0F81080044601F021FD00282EDB09F166
:102EA00001095D46002357F8041B28688AB29A1A64
:102EB000090C12FA80F2C1EB104303EB224391B2EA
:102EC00041EA0341BA4545F8041B4FEA2343EAD2DD
:102ED0005BF828200BEB880382B91A1F93450BD2AD
:102EE00053F8042C42B9083B02E01A68043B1AB9B3
:102EF0009B4508F1FF38F8D3C4F81080484603B06A
:102F0000BDE8F08F002070472DE9F04F016C97B0BD
:102F10008146239C92469B4649B1426C4A600123FC
:102F200093408B6001F0F8FA0023C9F84030BBF100
:102F3000000FD84633DB00232360A54B1A4608EA6E
:102F40000303934214D0504659460022002302F056
:102F5000A9FE054648B3229A01231360249B002B47
:102F600000F0C5809B481860013817B0BDE8F08FAD
:102F7000229A42F20F731360BAF1000F00F0A280A0
:102F80009548249B002BF0D0C378002B00F0B18033
:102F900000F10803249A136017B0BDE8F08F0123F5
:102FA0002BF000482360C346C7E714AA15AB019273
:102FB000009352465B46484601F03AFD5FEA1854DA
:102FC000089040F08880149D159C2C4404F23243F4
:102FD000202B40F39182C3F1400304F2124008FA1F
:102FE00003F82AFA00F040EA080002F07DFB012312
:102FF000013CA1F1F87110930022784B02F036FAEF
:103000006DA3D3E9002302F0E5FB6DA3D3E9002310
:1030100002F02EFA064620460F4602F075FB6AA320
:10302000D3E9002302F0D6FB02460B463046394670
:1030300002F01EFA06460F4602F07CFE00220490C3
:1030400000233046394602F037FE002840F0308237
:10305000049E162E00F22982614B03EBC603D3E9CE
:10306000000152465B4602F045FE002800F049820E
:10307000731E049300230C932C1B631E029300F118
:10308000328200230593049B002BC0F22382029A14
:103090000B9311461944002302910A93209B092B9C
:1030A00029D8052B40F35886043B20930025209B0C
:1030B000023B032B00F23586DFE813F02C032802D5
:1030C00037035904444B474AC8F31300002814BF80
:1030D0001846104655E7CBF3130343F07F51109584
:1030E0005046A4F2FF3441F44011149D84E73E4859
:1030F0003BE7C31C4EE70021C9F844104846209125
:1031000001F0E4F94FF0FF330693209A0D93012369
:1031100007902192C9F840000993159B002BC0F23B
:10312000D180049A0E2A00F3CD802D4B03EBC2030D
:10313000D3E90034CDE90234219B002BC0F2008397
:1031400056465F4650465946DDE902AB52465B465D
:1031500002F06AFC02F0EEFD044602F0D5FA524697
:103160005B4602F037FB0B4602463946304602F01A
:103170007DF9079D04F130032B70069B012B064659
:103180000F4605F1010562D00022184B02F022FB28
:103190000022002306460F4602F084FD00287ED15F
:1031A000CDF81490DDF818A0DDF81CB0DDE9028937
:1031B00029E000BFAFF3008061436F63A787D23F70
:1031C000B3C8608B288AC63FFB799F501344D33F16
:1031D0000000F07F71630008906300080000F83F72
:1031E00098630008846300087063000800002440AE
:1031F00002F0F0FA0022002306460F4602F052FDCC
:10320000002840F0B78342464B463046394602F02C
:103210000BFC02F08FFD044602F076FA42464B4664
:1032200002F0D8FA02460B463046394602F01EF943
:1032300004F1300E05F801EBCBEB050ED645064642
:103240000F464FF00002B04BD2D1DDF81490324659
:103250003B463046394602F00BF906460F46024619
:103260000B46DDE9020102F027FD40B932463B463C
:10327000DDE9020102F016FD88B1E3070FD515F86C
:10328000014C079A6B1E04E09A4200F02C8413F85C
:10329000014D392C03F10105F6D001341C70089959
:1032A000484601F039F90022049B2A70229A013322
:1032B0001360249B002B00F0A78307981D6017B0B4
:1032C000BDE8F08F099A002A00F01281209A012AA5
:1032D00040F35882069B0A9A5F1EBA42C0F2978357
:1032E000D71B069B002BC0F28A84059D069B059A7E
:1032F0001A440592029A01211A444846029201F0AA
:10330000A3F9064665B1029900290B4608DDA942DA
:10331000059AA8BF2B46D21AED1ACB1A0592029332
:103320000A9B002B40F3FC82099A002A00F00182DC
:10333000002F00F0FE8131463A46484601F026FA59
:10334000DDF82080014642460646484601F086F9EF
:1033500041460446484601F0DFF80A9BDB1B0A930E
:1033600040F0E6810121484601F06EF90B9B804652
:10337000002B00F0198201461A46484601F006FA71
:10338000209B012B804640F3F8820027D8F81030AC
:1033900008EB8303186901F009F9C0F12000029AD3
:1033A000104410F01F0000F0F681C0F12003042B40
:1033B00040F3CA84059BC0F11C00034405931346E7
:1033C000034405440293059B002B05DD21461A4664
:1033D000484601F02BFA0446029B002B05DD4146CE
:1033E0001A46484601F022FA80460C9B002B40F01A
:1033F0007C82069B002B40F39582099B002B40F0BA
:10340000F581DDF81CB0069F5D4602E001F08EF804
:10341000044641462046FFF7E3FC00F1300A05F878
:1034200001ABCBEB0503BB424FF00A024FF00003A8
:1034300021464846EADB079B069A012AACBF9B1847
:1034400001331D464FF0000B21460122484601F092
:10345000EDF94146089001F041FA002840F30D8350
:1034600015F8012C07996B1E04E08B4200F078825E
:1034700013F8012D392A03F10105F6D001321A7033
:103480004146484601F048F8002E3FF408AFBBF132
:10349000000F05D0B34503D05946484601F03CF82B
:1034A0003146484601F038F8F9E601230C93E3E58C
:1034B000DDF81080404602F027F902460B46304600
:1034C000394602F0EFFB00287FF4C2AD08F1FF336C
:1034D0000493BDE5059A049BD21A5B420A9300232C
:1034E00005920B93DAE55B42059300230293CAE54C
:1034F0000A9F059D099E05E7C3F120080AFA08F016
:1035000073E50C90B8E500BF000024400023099348
:10351000049B219A13440D930133002B069340F32F
:103520008382069C26460021172EC9F844100BD929
:10353000012204235B0003F11400B042114602F1A2
:103540000102F7D9C9F84410484600F0BFFF0E2C1D
:103550000790C9F840003FF6E0AD002D3FF4DDAD27
:1035600004995746D8460029CDE90E7840F3928257
:10357000914B01F00F020E1103EBC203F006D3E9E9
:10358000004540F14C828D4B50465946D3E9082303
:1035900002F04AFA06F00F0682468B464FF0030807
:1035A00086B1864FF10709D520462946D7E9002381
:1035B00002F010F908F1010804460D46761007F1F3
:1035C0000807EFD122462B465046594602F02CFA06
:1035D00006460F460C9B43B10022794B30463946D4
:1035E00002F06AFB002840F02083404602F08CF88D
:1035F00032463B4602F0EEF8724B002201F038FFF3
:10360000069B0446A1F15075002B00F0DF81049B5E
:10361000DDF818801193099B002B00F09782664B10
:10362000694903EBC80353E90223002002F0FCF9C7
:1036300022462B4601F01AFF82468B463046394619
:1036400002F078FB044602F05FF802460B46304673
:10365000394601F00BFF3034079DE4B206460F46B1
:103660002C7002460B4650465946013502F042FB8B
:1036700000284CD132463B460020514901F0F6FE6D
:1036800002460B465046594602F034FB002840F0F3
:103690000D83B8F1010F40F3B381079B98440DE00F
:1036A0000020474901F0E2FE52465B4602F004FB6F
:1036B000002840F0FB82454500F0A2815046594663
:1036C0000022424B02F086F80022404B82468B4695
:1036D0003046394602F07EF80F46064602F02AFBD5
:1036E000044602F011F802460B463046394601F016
:1036F000BDFE3034E4B252465B4605F8014B064647
:103700000F4602F0D9FA32463B460028C8D0119B3A
:103710000493C4E500230993219B002B40F3898186
:103720001E461C460D930693FDE601230993F3E71D
:1037300008940A9A0899484601F028F8044611E6C8
:10374000069B002B3FF7FCAC40F0DA820022204BB6
:10375000DDE9020102F03EF852465B4602F0C0FA93
:10376000DDF818804646002800F0F280219B079D76
:10377000DB4304934146484600F0CEFE002E3FF462
:103780008EAD8DE6109A002A00F0418203F2334399
:103790000A9F059DABE51C20059B03440593029BF6
:1037A0000344054402930EE6209B012B40F38282E2
:1037B0000B9F0120F3E500BF9863000870640008C8
:1037C0000000F03F00001C400000E03F00002440EB
:1037D00000001440314600230A22484600F0A6FEAD
:1037E0000D9B002B064640F397820693002D05DDC6
:1037F00031462A46484601F019F80646002F40F0A7
:103800007C810596069B079ADDF814B0013BD3181E
:1038100008930AF0010309931746C2465146204611
:10382000FFF7DEFA31460546204601F057F85A46C2
:1038300002905146484601F071F8C268804605F191
:103840003003002A49D101462046069301F046F88C
:1038500041460590484600F05FFE059A069B2AB94E
:10386000209919B90999002900F036820299002996
:10387000C0F2E48005D1209919B90999002900F016
:10388000DD80002A00F34D81089A3B7007F10108A2
:103890009742454600F05481214600230A224846BB
:1038A00000F044FE5E45044631464FF000034FF001
:1038B0000A0248460BD000F039FE5946064600235E
:1038C0000A22484600F032FE47468346A6E700F04B
:1038D0002DFE474606468346A0E701464846059327
:1038E00000F01AFE0122059BC0E74146204600F089
:1038F000F5FF0028BFF67DAD2146049C0023013C66
:103900000A224846049400F011FE099B0446002B4D
:103910007FF460AF0D9B002B40F3F681069370E5BA
:10392000089C1FE5209B022B7FF767AD069B002BB1
:1039300040F0798141460522484600F0F7FD0146F6
:103940008046204600F0CAFF002808947FF70EAF9B
:10395000049A07993123013204920B704D1C09E738
:10396000049A01320492079A3123137088E50123E7
:103970000993CDE5DDF8149091E4BAF1000F7FF4DE
:1039800004ADCBF31303002B40F03F812BF0004735
:103990003F0D3F0537B1059B01330593029B013372
:1039A000029301270B9B0120002B3FF4F8ACEDE4C0
:1039B000404601F0A9FE32463B4601F00BFF0022D3
:1039C000BF4B01F055FD0446A1F150753046394614
:1039D0000022BC4B01F04AFD22462B4606460F460C
:1039E00002F088F98046002840F00581224605F162
:1039F00000433046394602F05FF908B14646B5E665
:103A0000DDE90EABFFF789BB0798FFF7AEBA0A9B5B
:103A10000B9A0A97FB1A1A440B92002761E4DDE91E
:103A20000EAB4FF00208BBE51C460021C9F844105C
:103A30008AE5012421940D940694F6E7002AD046E5
:103A4000CDF814B09A4611DD21460122484600F017
:103A5000EDFE4146044600F041FF002840F3498155
:103A6000BAF1390F00F0068105F1310AB34687F843
:103A700000A07D1C059E089402E504D11AF0010FF8
:103A800001D0EDE4154615F8013C302B05F1FF326D
:103A9000F8D0F5E4049B5C42002C00F0BF808A4B18
:103AA00004F00F0203EBC203D3E90023DDE90E01AA
:103AB00001F090FE241106460F4600F02A81834D46
:103AC0004FF00208E20709D530463946D5E9002310
:103AD00001F080FE08F1010806460F46641005F16A
:103AE0000805EFD176E5079930220A70049A15F897
:103AF000014C01320492FFF7D0BB7168484600F0D8
:103B0000E5FC33699A1C0546920006F10C010C3065
:103B100000F03EFC29460122484600F087FE059051
:103B200070E6392BCDF814B0D04600F0A38003F135
:103B3000010AB34687F800A07D1C059E08949FE407
:103B40005A46D046B3469A4616467DE45E4908F189
:103B5000FF3A01EBCA0122462B46D1E9000101F0F0
:103B600039FECDE912013946304602F0E3F8044649
:103B700001F0CAFD02460B463046394601F076FC9C
:103B8000079A3034B8F1010F06460F46147002F15F
:103B900001051ED0079B03EB080BA84600224C4BE7
:103BA0003046394601F016FE0F46064602F0C2F8CE
:103BB000044601F0A9FD303402460B463046394632
:103BC00001F054FC08F8014BC34506460F46E5D109
:103BD000554400223F4BDDE9120101F049FC324619
:103BE0003B4602F069F800284CD0119B049315F86D
:103BF000014CFFF746BB4FF000084646A8E6059B80
:103C0000069A9D1A0023FFF772BB0027CAE6149B91
:103C10000A9F059DC3F13603FFF769BBDDE90E6717
:103C20004FF00208D6E40894A0E5069B002B3FF471
:103C3000BFAE0D9B002B7FF7E3AE0022244B304636
:103C4000394601F0C7FD06460F4608F1010001F0B4
:103C50005BFD32463B4601F0BDFD0022184B01F0F2
:103C600007FC049ADDF83480013A0446A1F150754E
:103C70001192D0E43922B3460894059E3A707D1C17
:103C8000FFF7F0BBDDE912230020124901F0EEFB43
:103C900032463B4602F02EF808B9B1E6154615F853
:103CA000013C302B05F1FF32F8D030E5119B049335
:103CB000FFF7E7BABAF1000F7FF47AAD61E600BF13
:103CC00000001C4000001440986300087064000865
:103CD000000024400000E03F392BCDF814B0D0465E
:103CE000DDF808B09A46C5D0BBF1000F3FF7BCAE77
:103CF000BCE67FF4BBAE1AF0010F3FF4B7AEAFE6FF
:103D00004FF00008464631E5209B022B21DC0D9B3D
:103D100004E64FF002085DE4209B022B19DC0D9BAA
:103D200063E50024C9F844402146484600F0CEFB34
:103D30004FF0FF3306930D93012307902194C9F8A8
:103D400040000993FFF7E9B93FF43DABC0F13C00F7
:103D500022E50D9B0693E9E50125FFF7A8B900BF11
:103D6000044A054B1268506B002808BF1846F03013
:103D7000704700BF380400204C0800202DE9F04FA8
:103D800001F10B05162D83B0064640F29F8035F0F9
:103D9000070500F1BF80A94200F2BC8000F092FB51
:103DA000B5F5FC7FC0F09C826B0A00F0BA80042B52
:103DB00000F28381A80900F1390E4FEA4E03383032
:103DC000C44F07EB8303A3F108015C68A14207D14C
:103DD000ACE0002A80F2AC80E468A14200F0A6804A
:103DE000636823F003035A1B0F2AF2DDB9493C69CB
:103DF00001F1080E744500F0B381636823F00303FA
:103E00005A1B0F2A00F39981002AC1F814E0C1F867
:103E100010E080F29E80B3F5007F80F06781DB08C0
:103E200003F1010C01229B1002FA03F34A6851F8D6
:103E30003C80C4F8088001EBCC091A43A9F10803BF
:103E4000E3604A6041F83C40C8F80C40831001240C
:103E50009C40944200F28A80144206D120F0030074
:103E60006400144200F10400FAD007EBC009CC460C
:103E70008046DCF80C108C4507D173E1002A80F2F3
:103E80008181C9688C4500F06D814B6823F0030384
:103E90005A1B0F2AF2DD0C46D1F80CC054F8088FDB
:103EA0004B1945F001054D6042F00101C8F80CC006
:103EB0003046CCF808807B613B61C3F80CE0C3F866
:103EC00008E059609A5000F0FFFA1FE0102921D84D
:103ED00000F0F8FA1025062302207E4F07EB83033B
:103EE000A3F108025C68944200F045816368E168D0
:103EF000A56823F00303234430465A68E96042F082
:103F000001028D605A6000F0DFFA0834204603B0E9
:103F1000BDE8F08F00240C232046336003B0BDE8D9
:103F2000F08F80234FF0400E3F2049E770465DE759
:103F30002344E1685A68A56842F00102E96030460E
:103F40008D605A6000F0C0FA0834204603B0BDE826
:103F5000F08F234430465A6842F001025A6000F064
:103F6000B3FA0834204603B0BDE8F08FBC6863683C
:103F700023F00308A84504D3C5EB08030F2B00F377
:103F80008C80554BDFF860911A68D9F80030013306
:103F90002A4404EB080A00F0608102F580520F32D7
:103FA00022F47F6222F00F0211463046019200F0A7
:103FB0009BFDB0F1FF3F8346019A00F05881824596
:103FC00000F2FC80454B1968DA451144196000F095
:103FD0005381D9F80000DFF810E101301BBFCAEBB4
:103FE0000B0A5144CEF800B019601BF0070100F035
:103FF0001781C1F10800C1F58051834408315A444A
:10400000C2F30B02C2EB010949463046019300F0AE
:104010006BFD431C019B00F03F81CBEB00024A4447
:1040200042F001021968C7F808B04944BC42CBF815
:1040300004201960DFF8A49016D0B8F10F0F40F2F9
:10404000FD806268A8F10C0323F00703E01802F07A
:1040500001024FF0050E1A430F2B6260C0F804E016
:10406000C0F808E000F21C811D4BBC681A68914240
:1040700088BF19601B4B1A689142626888BF19603B
:1040800022F003029542A2EB050301D80F2B04DCBA
:10409000304600F019FA002438E7621943F00103B2
:1040A00045F0010565603046BA60536000F00CFAD7
:1040B0000834204603B0BDE8F08F142B71D9542B7F
:1040C00000F2A480280B00F16F0E4FEA4E036E3011
:1040D00076E600BF3C0400206C0A0020700A002035
:1040E000680A0020640A0020480800205A0A042AAE
:1040F0005ED9142A00F2B38002F15C0149005B3200
:1041000007EB810C57F82110DFF8DC81ACF1080CCB
:104110008C4500F088804A6822F00302934202D264
:1041200089688C45F7D1D1F80CC07A68C4F80CC006
:10413000A160CCF80840CC6088E6631942F0010722
:1041400045F00105656030464B610B61C3F80CE03A
:10415000C3F808E05F609A50083400F0B5F9D5E67E
:104160004A6873E608F1010818F0030F0CF1080C17
:104170007FF47FAE30E0DC68A34208BF02303FF43A
:1041800035AEB3E60B440C465A68C96854F8085F6C
:1041900042F001025A603046E9608D6000F094F907
:1041A000B4E603F15C0E03F15B004FEA4E0307E651
:1041B0009A0902F1390149003832A1E7BC424A4B61
:1041C0003FF400AF9C68626822F003025AE759F896
:1041D0000839994540F0828010F0030F00F1FF305C
:1041E000F5D17B6823EA04037B6064009C423FF6C0
:1041F000BDAE002C3FF4BAAE1C4240467FF435AE53
:1042000064001C4200F10400FAD02EE6B3F5AA7F48
:1042100018D8E80B00F1780E4FEA4E037730CFE55F
:104220004FF48051EBE60121D8F80430921001FAE6
:1042300002F21A43C8F80420614677E70123CBF85D
:10424000043025E740F25452934220D8A80C00F1E4
:104250007D0E4FEA4E037C30B2E51032A4E6542ABC
:1042600026D81A0B02F16F0149006E3248E7BC688C
:10427000626822F0030205E7CAF30B0000287FF40E
:10428000A8AE4244BB6842F001025A60ECE6FE234D
:104290004FF07F0E7E2093E501224FF00009C1E62A
:1042A00004F10801304600F02FFDD9F80010DBE6DC
:1042B000B2F5AA7F05D8DA0B02F17801490077320E
:1042C0001EE740F254518A4205D89A0C02F17D0152
:1042D00049007C3214E7FE217E2211E77B6884E7E7
:1042E000E808431C5B00F8E53C04002000000000E7
:1042F00001F0FF01102A2BDB10F0070F08D010F897
:10430000013B013A8B422DD010F0070F42B3F6D19A
:10431000F0B441EA012141EA014122F007047FF0B3
:1043200000070023F0E80256083C85EA010586EA0A
:10433000010685FA47F5A3FA87F586FA47F6A5FA46
:1043400087F68EB9EED1F0BC01F0FF0102F0070252
:1043500032B110F8013B013A83EA010313B1F8D1FD
:104360000020704701387047002D06BF35460338DE
:10437000073815F0010F07D1013015F4807F02BF17
:10438000013015F4C03F0130F0BC0138704700BF68
:10439000844641EA000313F003036DD1403A41D350
:1043A00051F8043B40F8043B51F8043B40F8043B0F
:1043B00051F8043B40F8043B51F8043B40F8043BFF
:1043C00051F8043B40F8043B51F8043B40F8043BEF
:1043D00051F8043B40F8043B51F8043B40F8043BDF
:1043E00051F8043B40F8043B51F8043B40F8043BCF
:1043F00051F8043B40F8043B51F8043B40F8043BBF
:1044000051F8043B40F8043B51F8043B40F8043BAE
:1044100051F8043B40F8043B51F8043B40F8043B9E
:10442000403ABDD2303211D351F8043B40F8043B3E
:1044300051F8043B40F8043B51F8043B40F8043B7E
:1044400051F8043B40F8043B103AEDD20C3205D34E
:1044500051F8043B40F8043B043AF9D2043208D046
:10446000D2071CBF11F8013B00F8013B01D30B88B8
:1044700003806046704700BF082A13D38B078DD096
:1044800010F003038AD0C3F10403D21ADB071CBF68
:1044900011F8013B00F8013B80D331F8023B20F8D2
:1044A000023B7BE7043AD9D3013A11F8013B00F80B
:1044B000013BF9D20B7803704B7843708B78837093
:1044C00060467047704700BF704700BFC36C70B54F
:1044D00005460C464BB153F8240080B1026843F8FE
:1044E000242000230361C36070BD2122042100F059
:1044F0008DFBE86403460028EDD1002070BD01214A
:1045000001FA04F6721D2846920000F07FFB002895
:10451000F3D044608660E4E731B1C36C4A6853F875
:104520002200086043F82210704700BFF0B50C6904
:1045300083B00D46064601F1140E0027DEF8000098
:1045400081B202FB01310B0C000C02FB003389B27B
:10455000013701EB0341BC424EF8041B4FEA134301
:10456000ECDC3BB1AA68944207DA05EB8402013423
:1045700053612C61284603B0F0BD69680193013195
:104580003046FFF7A3FF2A69023205F10C01074606
:1045900092000C30FFF7FCFEF26C6968019B52F848
:1045A0002100286042F821503D46DEE7030C1B0441
:1045B000B3B90004102310F07F4F04BF000208338A
:1045C00010F0704F04BF0001043310F0404F04BFDF
:1045D00080000233002807DB420003D4202070470C
:1045E0000023E8E7581C704718467047036813F02B
:1045F000070207D0D90720D49A0720D49B0803606C
:104600000220704799B209B91B0C102213F0FF0F5A
:1046100004BF1B0A0832190704BF1B09043299079B
:1046200004BF9B080232D90704D45B0801D12020C3
:1046300070470132036010467047002070475B08E6
:1046400003600120704700BF10B50C460121FFF741
:104650003DFF01224461026110BD00BF2DE9F04F12
:104660000D691769BD4283B00C46164604DA2A4626
:1046700034463D460E461746A368616805EB0708B9
:104680009845C8BF0131FFF721FF00F1140C0CEB76
:104690008809CC45009005D26346002143F8041BED
:1046A0009945FBD806F1140202EB870A04F11403C2
:1046B000524503EB850E54D2CDF80490994652F83A
:1046C000043B1FFA83FBBBF1000F20D000204F46B4
:1046D0006646054600E01E4657F8044B3068A1B216
:1046E00083B20BFB0131240C000C4B190BFB0400B3
:1046F00000EB134099B2334641EA0041BE454FEA10
:10470000104543F8041BE6D8756052F8043C5FEA94
:10471000134B20D0DCF80030674618464D46002188
:1047200000E037462C88000C0BFB040001449CB2CF
:104730003E4644EA014346F8043B786855F8044B8A
:1047400083B2240C0BFB043404EB1143AE454FEA57
:104750001341E6D87B6092450CF1040CAFD8DDF82C
:104760000490B8F1000F0BDD59F8043CA9F10409DD
:104770001BB105E059F8043D13B9B8F10108F9D1AE
:104780000098C0F8108003B0BDE8F08F12F003036A
:104790002DE9F041144607462ED10E46A4101CD038
:1047A000BD6C95B3E3074FF0000806D4641014D035
:1047B0002868A8B10546E307F8D52A4631463846A9
:1047C000FFF74CFFB6B17268FB6C641053F822100F
:1047D000316043F822600646EAD13046BDE8F081F8
:1047E0002A4629463846FFF739FF2860C0F800807E
:1047F0000546E0E70646D9E75A1E0B4D002355F85B
:104800002220FFF793FE0646C8E701213846FFF74E
:104810005DFE40F2712101220023416102610546E3
:10482000B8640360BEE700BF606400082DE9F0478C
:1048300091460A698B684FEA691404EB020808F193
:1048400001059D420E468246496804DD5B009D429B
:1048500001F10101FADC5046FFF738FE002C00F1AF
:10486000140238DD02EB8403002142F8041B93425A
:10487000FBD1346906F1140119F01F0901EB840E14
:1048800021D0C9F1200200240F6807FA09FC4CEA84
:1048900004049C4643F8044B51F8044B8E4524FA1B
:1048A00002F4F1D8CCF804400CB108F10205DAF8B2
:1048B0004C307268013D53F822100561316043F8B5
:1048C0002260BDE8F087043B51F8042B43F8042F25
:1048D0008E45F9D8EBE71346CBE700BF02690B69B9
:1048E000D21A12D19B0014301431194410B403446D
:1048F00001E098420BD253F8044D51F8042D944234
:10490000F7D007D3012010BC704710467047002035
:1049100010BC70474FF0FF30F5E700BF2DE9F843BA
:104920000B690F4611695B1A002B904617D189005D
:1049300007F1140208F114055318294401E09A42C2
:104940005ED253F8046D51F8044DA642F7D060D200
:104950003B46144647464FF00109984606E05DDBAA
:1049600007F1140502F114044FF000097968FFF70C
:10497000ADFDD8F810303E69C0F80C9004EB830C04
:10498000A64605EB860700F1140400235EF8041B1D
:1049900055F8048B8AB213FA88F3090C9A1AC1EB02
:1049A000184303EB224392B242EA0342F44544F82F
:1049B000042B4FEA2343E9D8AF4217D9A44629462E
:1049C00051F804EB13FA8EF2131403EB1E4392B268
:1049D00042EA03428F424CF8042B4FEA2343EFD8BC
:1049E000ED433D4425F0030504352C44043C22B935
:1049F00054F8043D013E002BFAD00661BDE8F8836F
:104A00000021FFF763FD0122002302614361BDE83D
:104A1000F8832C464FF000091546A7E73B4607F1FF
:104A2000140408F1140547464FF0010998469DE724
:104A30002DE9F04182B001211C46C3F30A57154607
:104A4000089EFFF743FDC4F3130480460FB144F4FE
:104A5000801401941DB302A840F8085DFFF7C6FD5D
:104A6000002834D19DE80C00C8F81420002B0CBF9E
:104A700001210221C8F81830C8F81010DFB908EB7E
:104A80008103A0F2324030601869FFF78FFD099B67
:104A9000C0EB41101860404602B0BDE8F08101A8AB
:104AA000FFF7A4FD019BC8F8143001212030C8F89D
:104AB0001010002FE3D0099BA7F233470744C0F141
:104AC000350037601860404602B0BDE8F0819DE8CF
:104AD0000C00C0F1200103FA01F10A43C340019325
:104AE000C8F81420C2E700BF38B5074C00230546BC
:104AF00008462360FCF724F9431C00D038BD236826
:104B0000002BFBD02B6038BD9C0A00202DE9F04F14
:104B1000936883B09046002B72D083464FF0000913
:104B2000166808688B680D464C46002C45D09C42A0
:104B30001F469A4646D3AB8913F4906F2DD06F6908
:104B4000296907EB4707C1EB000A07EBD777601C21
:104B50007F105044B8423A4684BF07463A465B0548
:104B600033D511465846FFF709F9002837D0524689
:104B700029690190FFF70CFCAA89019B22F490623D
:104B800042F08002AA81CAEB070203EB0A006F61C0
:104B90002B612860AA602746A2465246494600F08B
:104BA000B1F9D8F80820AB682868DB1B5044141B07
:104BB000AB602860C8F8084014B3D6F80090746859
:104BC0000836B2E72746A246E7E7584600F04CFA17
:104BD00003460028D7D12969584600F095F80C23E0
:104BE000CBF80030AB89002243F040034FF0FF3098
:104BF000AB81C8F80820C8F8042003B0BDE8F08FE6
:104C00000020C8F8040003B0BDE8F08F10B502FB27
:104C100001F1FFF7B3F80446D8B150F8042C22F0A4
:104C20000302043A242A18D8132A14D900231B2A71
:104C30000360436016D9242A8360C36011BF00F16A
:104C400010020361436100F11802002313605360F6
:104C50009360204610BD0246F7E7002100F0B6F948
:104C6000204610BD00F10802EFE700BFF8B5234F62
:104C70000C460646FFF726FCBB685D6825F0030579
:104C8000291B01F6EF7121F47F6121F00F01A1F5DD
:104C90008054B4F5805F07DB00213046FFF724FF26
:104CA000BB682B44984204D03046FFF70DFC00202F
:104CB000F8BD61423046FFF717FF01300DD0104BB1
:104CC000BA6819682D1B45F001053046091B55606F
:104CD0001960FFF7F9FB0120F8BD00213046FFF70E
:104CE00003FFBA68831A0F2BDEDD064C04492468E3
:104CF00043F00103001B53600860D5E73C0400202B
:104D0000700A002048080020002945D02DE9F04114
:104D10000D468046FFF7D6FB55F8047C6A4927F01C
:104D20000103A5F10804E2188E685068B24220F031
:104D3000030062D0FE0750600BD455F8087CE41BDA
:104D400001F1080EA56875453B446FD0E768EF6038
:104D5000BD6015186D68ED0742D543F00102626031
:104D6000E350B3F5007F18D2DB085A1C4D6851F8A8
:104D70003270A76001209B1000FA03F301EBC20020
:104D80001D430838E0604D6041F83240FC60404609
:104D9000BDE8F041FFF798BB70475A0A042A53D880
:104DA0009A0902F139077F0002F1380501EB87000B
:104DB00051F827204449083890424DD0516821F0DD
:104DC00003018B4202D292689042F7D1D068E06032
:104DD000A2608460D4604046BDE8F041FFF774BB38
:104DE00095683A4FBD4203443FD0D068E86043F035
:104DF000010285606260E350B3E7FF07034407D414
:104E000055F8082CA41A1344A068E268C2609060A8
:104E10002F4A126843F00100934260608C60B6D361
:104E20002C4B40461968FFF721FFB0E7111849687D
:104E3000C90744D49168D268CA60034443F00100B2
:104E400091606060E350A2E7142A17D802F15C0772
:104E50007F0002F15B05A9E7AA104B68012505FA5E
:104E600002F213434B600246B1E743F001024C618A
:104E70000C61E560A5606260E35088E7542A06D8BB
:104E80001A0B02F16F077F0002F16E058EE7B2F593
:104E9000AA7F06D8DA0B02F178077F0002F17705C6
:104EA00084E740F25450824206D89A0C02F17D0702
:104EB0007F0002F17C0579E7FE277E2576E743F047
:104EC00001026260E35062E73C04002044040020D9
:104ED000440800206C0A002082B049B15AB16BB17D
:104EE00013780B601278101C18BF012002B07047B5
:104EF00001A9002AF3D1104602B070476FF00100FB
:104F0000F4E700BF8842F0B50DD98B1898420AD259
:104F10008118002A51D09A1A13F8014D01F8014D59
:104F20009342F9D1F0BD0F2A48D941EA00039B070B
:104F300046D100F1100401F11003154653F8106C2E
:104F400044F8106C53F80C6C44F80C6C53F8086C73
:104F500044F8086C103D53F8046C44F8046C0F2DB1
:104F600003F1100304F11004E8D8A2F1100323F0B8
:104F70000F0302F00F0E1033BEF1030F1944034468
:104F800021D91E1F0D467446043C55F8047B46F893
:104F9000047F032CF8D8AEF1040424F00304043495
:104FA0002344214402F0030262B1013B0A4411F898
:104FB000014B03F8014F8A42F9D1F0BD0346F3E7F4
:104FC0000346F2E7F0BD7246EEE700BF70B4840717
:104FD00046D0541E002A41D0CDB2034602E0621EE4
:104FE000E4B3144603F8015B9A07F8D1032C2ED9D9
:104FF000CDB245EA05250F2C45EA054519D903F13F
:1050000010022646103E0F2E42F8105C42F80C5C4F
:1050100042F8085C42F8045C02F11002F2D8A4F1F4
:10502000100222F00F0204F00F041032032C13447C
:105030000DD91E462246043A032A46F8045BFAD8E4
:10504000221F22F003020432134404F003042CB1A3
:10505000C9B21C4403F8011BA342FBD170BC7047CA
:1050600014460346C2E700BF2DE9F04F174683B050
:10507000002900F0C1800E46814607F10B05FFF7BD
:1050800021FA56F804EC162D2EF00304A6F10808B8
:1050900040D810221546AF4241D8944275DAC94B28
:1050A000996808EB04008842416800F0D98021F03B
:1050B000010303445B68DB077DD51EF0010F35D08B
:1050C00039464846FEF75AFE0746E0B156F8043C1A
:1050D00023F001034344A0F108029A4200F0448106
:1050E000221F242A00F23181132A00F20481034690
:1050F0003246116819605168596092689A60314669
:105100004846FFF701FE4846FFF7DEF9384603B090
:10511000BDE8F08F25F00705002D2A46BBDA0C23E9
:105120000020C9F8003003B0BDE8F08F56F8083C05
:10513000C3EB080ADAF8043023F0030C04EB0C0389
:105140009342BDDB5746DAF80C1057F8080F221FC0
:10515000242AC160886000F21781132A40F212816C
:105160003168CAF808107168CAF80C101B2A00F2DE
:105170002B8108360AF110023168116071685160A4
:10518000B16891603E461C46D046631B0F2B1DD86C
:10519000D8F8043003F0010323434444C8F8043032
:1051A000636843F0010363604846FFF78DF93046BA
:1051B00003B0BDE8F08F21F003012144914221DBCF
:1051C000C36882680C46D3609A60DEE7D8F8042092
:1051D00008EB050102F00102154343F001020B4404
:1051E000C8F804504A605A6842F0010208315A6017
:1051F0004846FFF789FDD7E7114603B0BDE8F04FF9
:10520000FEF7BCBD1EF0010F7FF45AAF56F8083C04
:10521000C3EB080ADAF8043023F0030C01EB0C0EA0
:1052200096458BDBC36882685746D3609A6057F80F
:10523000081FDAF80C30CB60221F242A996000F294
:105240009980132A62D93368CAF808307368CAF89B
:105250000C301B2A00F2A08008360AF1100356E039
:1052600021F0030BA34405F11000834559DA1EF029
:10527000010F7FF425AF56F8081CC1EB080ADAF8D5
:10528000041021F0030CE34458453FF757AF57464D
:10529000DAF80C1057F8080F221F242AC160886022
:1052A00000F2B480132A40F2A5803168CAF80810D1
:1052B0007168CAF80C101B2A00F2AF8008360AF198
:1052C00010023168116071685160B16891600AEB39
:1052D0000501C5EB0B0242F0010299604A60DAF861
:1052E000043003F001031D434846CAF80450FFF799
:1052F000EBF838465CE733680360736843601B2A49
:1053000027D800F1080306F10802F2E63B463268AE
:105310001A6072685A60B2689A603E467446D04617
:1053200033E708EB0501C5EB0B0B4BF0010299606D
:105330004A6056F8043C03F001031D43484646F812
:10534000045CFFF7C1F8304632E73146FFF7DAFD7B
:10535000D5E6B3688360F368C360242A28D000F1DF
:10536000100306F11002C4E650F8043C23F00303D6
:105370001C440AE7314638467446D046FFF7C2FD62
:105380003E4602E73A46F7E6314638461C46D046E6
:10539000FFF7B8FD3E46F8E6B368CAF81030F36888
:1053A000CAF81430242A1BD010360AF11803AEE7CD
:1053B000336903617369436106F1180200F1180350
:1053C00097E600BF3C040020B168CAF81010F168ED
:1053D000CAF81410242A0FD010360AF11802CBE6AE
:1053E0003369CAF818307369CAF81C3018360AF1E4
:1053F00020038CE73A4664E73269CAF818207269DC
:10540000CAF81C2018360AF12002B5E631463846A3
:105410000193FFF777FD019B59E7B168CAF81010B7
:10542000F168CAF81410242A03D010360AF11802C1
:1054300047E73269CAF818207269CAF81C20183682
:105440000AF120023DE700BF21B1FF2A04D80A700B
:1054500001207047084670478A2303604FF0FF30F1
:10546000704700BF81F0004102E000BF83F00043BD
:1054700030B54FEA41044FEA430594EA050F08BFEF
:1054800090EA020F1FBF54EA000C55EA020C7FEAB3
:10549000645C7FEA655C00F0E2804FEA5454D4EB30
:1054A0005555B8BF6D420CDD2C4480EA020281EAFA
:1054B000030382EA000083EA010180EA020281EA32
:1054C0000303362D88BF30BD11F0004F4FEA013184
:1054D0004FF4801C4CEA113102D0404261EB410193
:1054E00013F0004F4FEA03334CEA133302D0524219
:1054F00063EB430394EA050F00F0A780A4F10104D5
:10550000D5F1200E0DDB02FA0EFC22FA05F280180E
:1055100041F1000103FA0EF2801843FA05F35941F4
:105520000EE0A5F120050EF1200E012A03FA0EFC73
:1055300028BF4CF0020C43FA05F3C01851EBE3719D
:1055400001F0004507D54FF0000EDCF1000C7EEBBA
:1055500000006EEB0101B1F5801F1BD3B1F5001FF8
:105560000CD349085FEA30004FEA3C0C04F1010417
:105570004FEA445212F5800F80F09A80BCF1004F40
:1055800008BF5FEA500C50F1000041EB045141EAC2
:10559000050130BD5FEA4C0C404141EB010111F4C3
:1055A000801FA4F10104E9D191F0000F04BF01466E
:1055B0000020B1FA81F308BF2033A3F10B03B3F14C
:1055C00020020CDA0C3208DD02F1140CC2F10C02DC
:1055D00001FA0CF021FA02F10CE002F11402D8BF3A
:1055E000C2F1200C01FA02F120FA0CFCDCBF41EA06
:1055F0000C019040E41AA2BF01EB0451294330BDD5
:105600006FEA04041F3C1CDA0C340EDC04F11404B1
:10561000C4F1200220FA04F001FA02F340EA030088
:1056200021FA04F345EA030130BDC4F10C04C4F1CE
:10563000200220FA02F001FA04F340EA03002946AE
:1056400030BD21FA04F0294630BD94F0000F83F4F8
:10565000801306BF81F480110134013D4EE77FEADB
:10566000645C18BF7FEA655C29D094EA050F08BF27
:1056700090EA020F05D054EA000C04BF1946104608
:1056800030BD91EA030F1EBF0021002030BD5FEA4C
:10569000545C05D14000494128BF41F0004130BD74
:1056A00014F580043CBF01F5801130BD01F00045C8
:1056B00045F0FE4141F470014FF0000030BD7FEA3B
:1056C000645C1ABF194610467FEA655C1CBF0B4636
:1056D000024650EA013406BF52EA033591EA030F4D
:1056E00041F4002130BD00BF90F0000F04BF002145
:1056F000704730B54FF4806404F132044FF0000578
:105700004FF0000150E700BF90F0000F04BF0021F0
:10571000704730B54FF4806404F1320410F0004556
:1057200048BF40424FF000013EE700BF42004FEA51
:10573000E2014FEA31014FEA02701FBF12F07F43CE
:1057400093F07F4F81F06051704792F0000F14BFCB
:1057500093F07F4F704730B54FF4607401F000450F
:1057600021F0004120E700BF50EA010208BF704766
:1057700030B54FF000050AE050EA010208BF70475B
:1057800030B511F0004502D5404261EB41014FF4C4
:10579000806404F132045FEA915C3FF4DCAE4FF0C8
:1057A00003025FEADC0C18BF03325FEADC0C18BFAF
:1057B000033202EBDC02C2F1200300FA03FC20FA00
:1057C00002F001FA03FE40EA0E0021FA02F114444D
:1057D000C1E600BF70B54FF0FF0C4CF4E06C1CEA62
:1057E00011541DBF1CEA135594EA0C0F95EA0C0FD7
:1057F00000F0DEF82C4481EA030621EA4C5123EA4A
:105800004C5350EA013518BF52EA033541F4801178
:1058100043F4801338D0A0FB02CE4FF00005E1FB2B
:1058200002E506F00042E0FB03E54FF00006E1FB75
:1058300003569CF0000F18BF4EF0010EA4F1FF04B8
:10584000B6F5007F64F5407404D25FEA4E0E6D41F8
:1058500046EB060642EAC62141EA55514FEAC52009
:1058600040EA5E504FEACE2EB4F1FD0C88BFBCF585
:10587000E06F1ED8BEF1004F08BF5FEA500E50F136
:10588000000041EB045170BD06F0004646EA0101FC
:1058900040EA020081EA0301B4EB5C04C2BFD4EB2E
:1058A0000C0541EA045170BD41F480114FF0000E27
:1058B000013C00F3AB8014F1360FDEBF002001F095
:1058C000004170BDC4F10004203C35DA0C341BDC0F
:1058D00004F11404C4F1200500FA05F320FA04F0E1
:1058E00001FA05F240EA020001F0004221F0004115
:1058F00010EBD37021FA04F642EB06015EEA430E88
:1059000008BF20EAD37070BDC4F10C04C4F12005B7
:1059100000FA04F320FA05F001FA04F240EA02006A
:1059200001F0004110EBD37041F100015EEA430E3B
:1059300008BF20EAD37070BDC4F1200500FA05F25B
:105940004EEA020E20FA04F301FA05F243EA0203DA
:1059500021FA04F001F0004121FA04F220EA0200E9
:1059600000EBD3705EEA430E08BF20EAD37070BD2F
:1059700094F0000F0FD101F00046400041EB01010F
:1059800011F4801F08BF013CF7D041EA060195F0F1
:10599000000F18BF704703F00046520043EB0303AB
:1059A00013F4801F08BF013DF7D043EA0603704798
:1059B00094EA0C0F0CEA135518BF95EA0C0F0CD0A3
:1059C00050EA410618BF52EA4306D1D181EA0301E9
:1059D00001F000414FF0000070BD50EA410606BFE3
:1059E0001046194652EA430619D094EA0C0F02D128
:1059F00050EA013613D195EA0C0F05D152EA03366D
:105A00001CBF104619460AD181EA030101F000418A
:105A100041F0FE4141F470014FF0000070BD41F0D3
:105A2000FE4141F4780170BD70B54FF0FF0C4CF4AD
:105A3000E06C1CEA11541DBF1CEA135594EA0C0FCC
:105A400095EA0C0F00F0A7F8A4EB050481EA030E19
:105A500052EA03354FEA013100F088804FEA033300
:105A60004FF0805545EA131343EA12634FEA0222CE
:105A700045EA111545EA10654FEA00260EF000418F
:105A80009D4208BF964244F1FD0404F5407402D2E1
:105A90005B084FEA3202B61A65EB03055B084FEA72
:105AA00032024FF480104FF4002CB6EB020E75EB6F
:105AB000030E22BFB61A754640EA0C005B084FEA97
:105AC0003202B6EB020E75EB030E22BFB61A754614
:105AD00040EA5C005B084FEA3202B6EB020E75EB5F
:105AE000030E22BFB61A754640EA9C005B084FEAD7
:105AF0003202B6EB020E75EB030E22BFB61A7546E4
