:020000040800F2
:1000000000000220B9020008C1020008C502000871
:10001000390300083D0300088503000800000000C4
:10002000000000000000000000000000CD030008F8
:10003000D103000800000000D50300085117000894
:10004000E9030008E9030008E9030008E9030008E0
:10005000E9030008E9030008E9030008E9030008D0
:10006000E9030008E9030008E9030008E9030008C0
:10007000E9030008E9030008E9030008E9030008B0
:10008000E9030008E9030008E9030008E9030008A0
:10009000E9030008E9030008E9030008E903000890
:1000A000E9030008E9030008E9030008E903000880
:1000B000E9030008E9030008E9030008E903000870
:1000C000E9030008E9030008E9030008E903000860
:1000D000E9030008E9030008E9030008E903000850
:1000E000E9030008E9030008E9030008FD16000819
:1000F000E9030008E9030008E9030008E903000830
:10010000E9030008E9030008E9030008E90300081F
:10011000E9030008E9030008E9030008E90300080F
:10012000E9030008E9030008E9030008E9030008FF
:10013000E9030008E9030008E9030008E9030008EF
:10014000E9030008E9030008E9030008E9030008DF
:10015000E9030008E9030008E9030008E9030008CF
:10016000E9030008E9030008E9030008E9030008BF
:10017000E9030008E9030008E903000800000000A3
:10018000E9030008E903000800B583B000F088FE29
:10019000384B394A1360394A136039490CE00A6810
:1001A0004B6801F10C04886803E01168196004339E
:1001B00004329842F9D82146324B9942EFD32E4B64
:1001C0001A68314B9A4204D12C4B1A682F4B9A4231
:1001D00000D0FEE7274B2E4A13602E4A13602E4BA9
:1001E0000AE0194651F8082B5B6802E00020106015
:1001F00004329A42FAD30B46284A9342F1D3244B55
:100200001B6813B9234B1B6803B1FEE701F0FCFA2E
:10021000694601A800F0D4FD214C224B1C1BA41000
:10022000002504E01E4B53F8253098470135AC42B9
:10023000F8DC1D4C1D4B1C1BA410002504E01A4BC0
:1002400053F8253098470135AC42F8DC0099019805
:1002500001F0E2FA0546164C164B1C1BA41004E0F4
:10026000013C134B53F824309847002CF8DC284607
:1002700000F078FDBABADECA00000020B403002006
:10028000EC030008040400087856341232547698BF
:10029000B8030020B8040020040400081404000877
:1002A00014040008140400081404000814040008CE
:1002B000140400081404000808B5FFF765FF00BF28
:1002C00000BEFEE71EF0040F0CBFEFF30880EFF353
:1002D00009807146414A10472DE9F04182B0044639
:1002E0008846134B5E6B9F6B9D6A1B6B13F0020F6E
:1002F0000DD00F4BDB6A002B09DA4BF6AB6100F037
:1003000053FE20B14FF00042094BDA620CE009487D
:1003100000F068FDCDF800803B4632462946204675
:1003200000F0CAFD00BEFEE702B0BDE8F08100BFEC
:1003300000ED00E0D853000800BEFEE71EF0040FF9
:100340000CBFEFF30880EFF309807146244A104791
:100350002DE9F04182B004468846084B5E6B9F6BE6
:100360009D6A074800F03EFDCDF800803B463246CE
:100370002946204600F0A0FD00BEFEE700ED00E0AB
:10038000E85300081EF0040F0CBFEFF30880EFF3F2
:1003900009807146134A10472DE9F04182B00446A6
:1003A0008846084B5E6B9F6B9D6A074800F01AFDFC
:1003B000CDF800803B4632462946204600F07CFDC1
:1003C00000BEFEE700ED00E0F453000800BEFEE7CB
:1003D00000BEFEE700BEFEE770470000D90200083D
:0C03E000510300089903000800BEFEE76E
:1003EC000058000800000020B80300200058000846
:1003FC000000001000000010B8030020BC04002016
:08040C000000001000000010C8
:1004200010B50446074B1B680748A0FB0330800942
:1004300000F0A2F8002221464FF0FF3000F044F80F
:10044000002010BD0C000020D34D621008B50B4BEE
:100450001A6842F400721A601A6842F480621A60E4
:100460001A6842F480721A60032000F00FF80F201F
:10047000FFF7D6FF01F0F2F9002008BD003C024072
:10048000014B1868704700BFAC04002010B504464B
:10049000C31E042B03D9A421094800F099FC094A82
:1004A000D36823F4E0631B041B0C240204F4E0640F
:1004B000234343F0BF6343F40033D36010BD00BF58
:1004C0009C51000800ED00E070B504460E4615464C
:1004D0000F2A03D9BC211A4800F07AFC0F2E03D949
:1004E000BD21174800F074FC164BDA68C2F30222F3
:1004F000C2F10701042928BF0421131D062B01D9CD
:10050000033A00E00022012303FA01F101393140EE
:10051000914003FA02F2013A2A400A43002C06DA1B
:1005200004F00F041201D2B2074B1A5570BD12012C
:10053000D2B204F1604404F5614484F8002370BD34
:100540009C51000800ED00E014ED00E010B5041E21
:1005500003DAD021064800F03BFC620904F01F04D6
:10056000012303FA04F4034B43F8224010BD00BFFB
:100570009C51000800E100E00138B0F1807F0AD210
:10058000064B5860F021064A82F82310002098603C
:1005900007221A6070470120704700BF10E000E09A
:1005A00000ED00E010B5041E04DA40F29111074896
:1005B00000F00EFC630904F01F04012202FA04F4A7
:1005C0006033034A42F8234010BD00BF9C5100082D
:1005D00000E100E010B50446042805D020B140F247
:1005E000B311084800F0F4FB042C05D1064A136847
:1005F00043F00403136010BD034A136823F004039F
:10060000136010BD9C51000810E000E030B583B0CD
:10061000044603680F2B03D9F5219C4800F0D8FB52
:10062000236813F0010F45D06368012B05D9052B12
:1006300003D0FA21954800F0CBFB954B9B6803F063
:100640000C03042B0AD0924B9B6803F00C03082B7D
:100650000CD18F4B5B6813F4800F07D08C4B1B6859
:1006600013F4003F26D0636823BBCCE12279894B89
:100670001A7063687BB1FFF703FF054605E0FFF7DB
:10068000FFFE401B642800F2C081814B1B6813F4FD
:10069000003FF4D00EE0FFF7F3FE054605E0FFF75C
:1006A000EFFE401B642800F2B281794B1B6813F403
:1006B000003FF4D1236813F0020F6AD0E368012BE6
:1006C00004D94FF49671714800F082FB23691F2B07
:1006D00004D940F22D116D4800F07AFB6C4B9B68F9
:1006E00013F00C0F0AD06A4B9B6803F00C03082B25
:1006F0001BD1674B5B6813F4800F16D1644B1B68EA
:1007000013F0020F03D0E368012B40F082816048B0
:10071000036823F0F8012369F82292FAA2F2B2FAF0
:1007200082F293400B43036033E0E368FBB10122A4
:10073000594B1A60FFF7A4FE054605E0FFF7A0FE3F
:10074000401B022800F26781514B1B6813F0020F17
:10075000F4D04F48036823F0F8012369F82292FA95
:10076000A2F2B2FA82F293400B43036011E000223E
:10077000494B1A60FFF784FE054605E0FFF780FE4F
:10078000401B022800F24981414B1B6813F0020F05
:10079000F4D1236813F0080F2ED06369012B04D91C
:1007A00040F26D11394800F013FB636993B10122E7
:1007B0003A4B1A60FFF764FE054605E0FFF760FE5E
:1007C000401B022800F22B81314B5B6F13F0020FAC
:1007D000F4D011E00022314B1A60FFF751FE0546BC
:1007E00005E0FFF74DFE401B022800F21A81284B5E
:1007F0005B6F13F0020FF4D1236813F0040F60D085
:10080000A368012B06D9052B04D040F297111F488D
:1008100000F0DEFA002301931D4B1A6C42F0805267
:100820001A641B6C03F080530193019B1C4A1368EC
:1008300043F480731360FFF723FE054605E0FFF7DE
:100840001FFE401B022800F2EE80154B1B6813F4BC
:10085000807FF4D0227A134B1A70A3688BB1FFF714
:100860000FFE054607E0FFF70BFE401B41F2883301
:10087000984200F2DA80064B1B6F13F0020FF2D0A1
:100880001FE0FFF7FDFD054616E000BFE051000840
:10089000003802400238024000004742800E4742C2
:1008A0000070004070380240FFF7EAFD401B41F243
:1008B0008833984200F2BB80634B1B6F13F0020F2A
:1008C000F2D1A369022B04D94FF4E6715F4800F01E
:1008D0007FFAA369002B00F0AC805B4A926802F0BB
:1008E0000C02082A00F0A780022B79D1E3693BB102
:1008F000B3F5800F04D040F2D511544800F068FAE7
:10090000236A3F2B04D94FF4EB71504800F060FA92
:10091000636A323BB3F5BF7F04D940F2D7114B482D
:1009200000F056FAA36A022B0AD0042B08D0062B3B
:1009300006D0082B04D04FF4EC71444800F048FA7C
:10094000E36A043B0B2B04D940F2D9113F4800F075
:100950003FFA00223E4B1A60FFF792FD054604E085
:10096000FFF78EFD401B022867D8374B1B6813F03A
:10097000007FF5D1E169236A1943636A47F6C072C3
:1009800092FAA2F2B2FA82F293401943A36A5B0888
:100990005A1E4FF4403393FAA3F3B3FA83F302FAE7
:1009A00003F30B43E26A4FF0706191FAA1F1B1FADF
:1009B00081F18A401343244A53600122244B1A6078
:1009C000FFF75EFD044604E0FFF75AFD001B022816
:1009D00035D81D4B1B6813F0007FF5D0002031E0A7
:1009E00000221B4B1A60FFF74BFD044604E0FFF7A3
:1009F00047FD001B022824D8134B1B6813F0007F0F
:100A0000F5D100201EE001201CE003201AE00320A5
:100A100018E0012016E0032014E0032012E0032078
:100A200010E003200EE003200CE003200AE0032086
:100A300008E0002006E0012004E0032002E003209B
:100A400000E0032003B030BD00380240E051000850
:100A500060004742244B9B6803F00C03042B3FD0FB
:100A6000082B01D02148704710B41F4B586800F084
:100A70003F005B6813F4800F10D01D4BB3FBF0F008
:100A8000194B5A6847F6C0710A4091FAA1F3B3FABC
:100A900083F322FA03F303FB00F310E0134BB3FBE1
:100AA000F0F0114B5A6847F6C07402EA040194FA58
:100AB000A4F2B2FA82F221FA02F202FB00F30A4A2D
:100AC000506800F440324FF4403090FAA0F0B0FA91
:100AD00080F022FA00F001304000B3FBF0F001E0BA
:100AE0000348704710BC7047003802400024F400EF
:100AF00000127A0070B504460D460368013B0E2BC8
:100B000004D940F237218F4800F062F9072D04D94B
:100B10004FF40E718B4800F05BF98B4B1B6803F0B0
:100B20000F039D4208D9EBB2874A1370136803F094
:100B30000F039D4240F0F480236813F0020F1DD094
:100B4000A368A3B1802B12D0902B10D0A02B0ED075
:100B5000B02B0CD0C02B0AD0D02B08D0E02B06D065
:100B6000F02B04D040F24F21764800F031F977495C
:100B70008B6823F0F002A36813438B60236813F0A3
:100B8000010F6BD06368032B04D940F256216D48E6
:100B900000F01EF96268012A05D16C4B1B6813F442
:100BA000003F0FD1BEE0931E012B05D8674B1B6899
:100BB00013F0007F06D1B7E0644B1B6813F0020FFF
:100BC00000F0B48061498B6823F0030313438B600A
:100BD000FFF756FC06466368012B0FD107E0FFF7CD
:100BE0004FFC801B41F28833984200F2A180574BA2
:100BF0009B6803F00C03042BF1D12FE0022B0FD1E3
:100C000007E0FFF73DFC801B41F28833984200F279
:100C100091804E4B9B6803F00C03082BF1D11DE033
:100C2000032B16D107E0FFF72BFC801B41F2883322
:100C3000984200F28180454B9B6803F00C030C2B1B
:100C4000F1D10BE0FFF71CFC801B41F28833984286
:100C500074D83E4B9B6813F00C0FF3D13A4B1B68D2
:100C600003F00F039D4207D2EAB2374B1A701B689C
:100C700003F00F039D4263D1236813F0040F19D0D2
:100C8000E36883B1B3F5805F0DD0B3F5A05F0AD000
:100C9000B3F5C05F07D0B3F5E05F04D04FF42D711A
:100CA000284800F095F829498B6823F4E052E3685E
:100CB00013438B60236813F0080F1AD0236983B1A4
:100CC000B3F5805F0DD0B3F5A05F0AD0B3F5C05F78
:100CD00007D0B3F5E05F04D040F2BB21194800F023
:100CE00077F81A4A936823F46043216943EAC10301
:100CF0009360FFF7AFFE154B9B6803F0F002F02303
:100D000093FAA3F3B3FA83F322FA03F3104AD35C02
:100D1000D840104B18600F20FFF782FB002070BDF9
:100D2000012070BD012070BD012070BD012070BD8B
:100D3000032070BD032070BD032070BD032070BD73
:100D4000012070BDE0510008003C02400038024024
:100D5000D05100080C000020014B1868704700BFFC
:100D60000C000020FEE700BF08B5034800F052F871
:100D70000120FFF7F7FF00BF1052000808B50D4B28
:100D80001B6813B90C4A0B4B1A600A4B1A68C31C38
:100D900023F00303134409498B4206D901F0B0FC48
:100DA0000C2303604FF0FF3008BD02490B60104672
:100DB00008BD00BFBC030020BC04002000FC0120D3
:100DC00001230360014B0B60704700BF040000204B
:100DD00008B50A460146024800F004F8FFF7C4FFD0
:100DE000645200080FB400B583B004AB53F8042B71
:100DF00001938021064802F02DF9002803DD014609
:100E0000034800F049F803B05DF804EB04B0704704
:100E1000C403002010B5044602F0E8F8014620465D
:100E200000F03AF80121024800F036F810BD00BF8A
:100E3000545300082DE9F04385B004460F4643564D
:100E400013BB042528462146ABBE04461FE03546A9
:100E5000102E28BF1025002306E014F9011B04AA58
:100E60001A4402F8101C0133AB42F6D304AA13440F
:100E7000002203F8102CE9464FF00408404649468A
:100E8000ABBE8046761B00E00E46002EDFD1384612
:100E900005B0BDE8F08300BF08B5FFF7CBFF08BD84
:100EA00008B500F091F8024B024A9A6008BD00BFF5
:100EB00000ED00E000000008F8B504460D461746B6
:100EC0001E462648FFF78EFF21682548FFF78AFF58
:100ED00061682448FFF786FFA1682348FFF782FF77
:100EE000E1682248FFF77EFF21692148FFF77AFF7A
:100EF00061692048FFF776FFA1691F48FFF772FF7D
:100F0000E1691E48FFF76EFF1D48FFF76BFF29469A
:100F10001C48FFF767FF1C4CE16A1C48FFF762FFA3
:100F2000216B1B48FFF75EFFE16B1A48FFF75AFF82
:100F300015F0800F03D039461748FFF753FF15F41B
:100F4000004F03D031461548FFF74CFF1448FFF718
:100F500049FF06991348FFF745FFF8BDBC5200084A
:100F6000CC520008DC520008EC520008FC52000889
:100F70000C5300081C5300082C5300083C53000875
:100F80004C5300085853000800ED00E06853000877
:100F9000785300088853000898530008A8530008A5
:100FA000B8530008C053000883691A888A4207D1E1
:100FB0000268033A012A05D8023383610120704791
:100FC00000207047002070470C4B1A6842F0010265
:100FD0001A60002199601A6822F0847222F480322B
:100FE0001A60074A5A601A6822F480221A60D9608F
:100FF0004FF00062034B9A60704700BF0038024018
:101000001030002400ED00E0224B9B6803F00C033D
:10101000042B07D0082B09D0002B2DD11E4A1F4BC3
:101020001A602CE01E4A1D4B1A6028E0194B5A68C2
:101030005B6803F03F0312F4800F09D0184AB2FB3B
:10104000F3F2144B5B68C3F3881303FB02F208E06E
:10105000114AB2FBF3F30F4A5168C1F3881101FB47
:1010600003F20C4B5B68C3F3014301335B00B2FB3B
:10107000F3F30A4A136002E0074A084B1A60054B73
:101080009B68C3F30313074AD15C044A1368CB403F
:1010900013607047003802400024F4000C00002068
:1010A00000127A000454000838B505464FF4C852BF
:1010B00002FB01F2002319A1D1E9000101F094F92A
:1010C00001460F4C20600F48FFF78CFE2168490055
:1010D0000D4BB3FBF1F10D48FFF784FE2168A82307
:1010E00003FB01F10A4BA3FB01318909094C216083
:1010F0000948FFF777FE2168284600F0A1FA38BDBD
:10110000440400201454000800CA9A3B24540008E8
:10111000D34D621058000020305400080002ABFE8E
:10112000E90000000000000038B504460D461E48E6
:10113000FFF758FE4FF4C85000FB05F11B48A0FB19
:101140000130C50A29461A48FFF74CFE194B1868AA
:101150004000A0FB0501021841EB01038018594132
:10116000CB0043EA5073C200101A63EB01018B00FD
:1011700043EA907382001046194609A3D3E900237D
:1011800001F032F901460C4D28600C48FFF72AFEA9
:101190002968204600F01EFA38BD00BFAFF300807A
:1011A00098ECFA020000000050540008D57FA60F0A
:1011B0007454000844040020600400208054000897
:1011C00000287ED02DE9F043034642698069196802
:1011D000D3F804E0151D9F68DC681E690F2872D8DB
:1011E000454B9A4213D003F580639A420FD003F522
:1011F00080639A420BD003F580639A4207D003F5CF
:1012000080639A4203D003F540639A425ED101297C
:1012100003D9032901D002295BD1D2F800804FEA1B
:10122000400C032303FA0CF3DB4308EA030901FA39
:101230000CF849EA0808C2F8008001F1FF38B8F15B
:10124000010F19D8BEF1010F46D805F070494FEAD9
:10125000451828F07E4525F01F054D4405EB800517
:1012600005F10075C5F800E0032F38D895681D40DA
:1012700007FA0CF73D439560032903D1D468234056
:10128000D36007E0022C2DD8D5682B4004FA0CF46B
:101290002343D360022928D10F2E29D8C30808334D
:1012A00052F82340800000F01F000F21814024EA03
:1012B000010106FA00F0084342F823000020BDE8CF
:1012C000F083012070470120BDE8F0830120BDE8D4
:1012D000F0830120BDE8F0830120BDE8F083012008
:1012E000BDE8F0830120BDE8F0830020BDE8F08375
:1012F0000120BDE8F08300BF000002400F2926D87E
:10130000164B984213D003F5806398420FD003F533
:10131000806398420BD003F58063984207D003F5B1
:101320008063984203D003F54063984211D13AB1EB
:10133000012A10D1012303FA01F1816100207047D5
:101340004FF4803303FA01F18161002070470120DE
:101350007047012070470120704700BF0000024025
:1013600030B4002401F0010554EA050327D000241D
:1013700001F0020554EA050323D1002401F004051D
:1013800054EA05031FD1002401F0080554EA0503BF
:101390001BD1002401F0100554EA050317D13AB11E
:1013A000012A16D10C4A136B18431063002011E078
:1013B000094A136B23EA0000106300200AE00120B1
:1013C00008E0012006E0012004E0012002E0012005
:1013D00000E0012030BC70470038024030B40024E7
:1013E00001F0080554EA050327D0002401F00105A7
:1013F00054EA050323D1002401F0020554EA050351
:101400001FD1002401F0040554EA05031BD1002478
:1014100001F0100554EA050317D13AB1012A16D19B
:101420000C4A136C18431064002011E0094A136C35
:1014300023EA0000106400200AE0012008E00120F7
:1014400006E0012004E0012002E0012000E001208C
:1014500030BC7047003802402DE9F04100241DE007
:10146000E7003B1B1E01DFF848804644304600F091
:1014700071FC054601460C48FFF7B4FC3F1B3901DF
:101480005031F26E4144304600F026FD2843C5B28B
:1014900029460648FFF7A6FC0134E4B2012CDFD947
:1014A0002846BDE8F08100BF9C540008B4540008F1
:1014B0000401002070B5114C4CF24F33236000231F
:1014C000E36063600E4A1268A2600E4E012232761B
:1014D0000D4A326086F8383086F83930351D0FCC29
:1014E0000FC523682B60304600F0BEFB0446014662
:1014F0000648FFF777FC204670BD00BF4804002077
:10150000600400206404002000180040D454000847
:1015100010B5054800F0C0FA044601460348FFF73D
:1015200061FC204610BD00BF64040020EC5400089C
:101530002DE9F843002736E0DFF89480E600321BFF
:101540009300542505FB07F52B4443445B6903F1E5
:101550003F4303F57E039B0AC7EBC7010A01194904
:101560008A5802F140494FEA9929174A02EBC3030E
:101570000122D3E90001FFF7F3FE144B03EBC90985
:101580000122D9E90001FFF729FF361BB0002844EA
:101590004044FFF715FE0134E4B200E00024022CC1
:1015A000CAD90137FFB2012FF8D901224020082102
:1015B000FFF714FFFFF750FFFFF77CFF0020BDE8A7
:1015C000F88300BF04010020100000203800002034
:1015D0005C000020F8B506460D46134B1860134812
:1015E000FFF700FC124CA560124F3D1D0FCC0FC53C
:1015F00023682B60384600F037FB01460E48FFF7A2
:10160000F1FB3A68136923F001031361384600F0D7
:10161000F5F9F3009A1B10010246084C2244D16EE2
:10162000104600F0E9FDF8BD5C04002008550008F4
:101630004804002064040020D45400080401002061
:101640002DE9F84381460D461948FFF7CBFBDFF83B
:1016500070804FEAC907C9EB07031C014444656465
:101660006D0829461348FFF7BDFB6565251D04F18C
:101670003C060FCE0FC533682B60204600F06AFB96
:10168000054601460C48FFF7ADFBC9EB07073901DA
:101690005031E26E4144204600F01EFC2843C4B2A3
:1016A00021460648FFF79EFB2046BDE8F88300BFB1
:1016B00028550008405500089C540008B454000800
:1016C0000401002008B55423044A03FB00200A4605
:1016D000416B006BFFF712FE08BD00BF5C000020ED
:1016E00008B55423044A03FB00200A468169406977
:1016F000FFF704FE08BD00BF5C00002008B50F4BDB
:101700001B68DA6812F0010F07D01A6912F0010F96
:1017100003D01A6922F001021A610948C16E00F073
:10172000DBFD01460748FFF75DFB074B19680748DB
:10173000FFF758FBFFF7ECFE08BD00BF6404002074
:10174000040100205C5500085C0400206C55000872
:1017500008B5044B1B78012B02D1034B1B6898473B
:1017600008BD00BFA0040020B404002030B595B02F
:1017700000240194214B1A6C42F080521A641B6CB5
:1017800003F080530193019B02941D4B1A6842F4AD
:1017900080421A601B6803F480430293029B01237A
:1017A000089309934FF480030F93082310934FF489
:1017B000A873119302251295072313930E9508A879
:1017C000FEF724FF0F230393049505944FF4A053D1
:1017D00006934FF480530793052103A8FFF78AF976
:1017E000FFF7BAFA074BA3FB00308009FEF7C4FEEF
:1017F0000420FEF7EFFE15B030BD00BF00380240F8
:1018000000700040D34D621008B5FEF71FFEFFF7D1
:10181000ADFFFFF7F9FB08BD08B5FFF789FE002211
:1018200001212B20FEF750FE2B20FEF7BBFE2B20C4
:10183000FEF78CFE01210020FFF752FF012100205E
:10184000FFF740FF4FF4FA710020FFF72DFC02492B
:101850000020FFF769FCFEE7E0160400704700BFB8
:1018600070B4036A23F001030362036A4268846967
:1018700024F073040D6844EA050623F002048B6823
:1018800023430F4DA84204D00E4CA04203D10124A3
:1018900002E0012400E000245CB123F00803CD68DD
:1018A0002B4323F0040322F440724D6915438A69E7
:1018B0002A43426086614A684263036270BC704793
:1018C00000000140000401402DE9F04104460E46AD
:1018D000036A23F480730362056A4768C36923F0CF
:1018E00073080B6848EA030825F400738D6843EA1F
:1018F0000525204B984205D003F58063984203D11B
:10190000012302E0012300E000235BB3F36833B15D
:10191000082B04D041F20D311748FFF759FAB3698B
:10192000B3F5007F05D023B141F20E311248FFF725
:101930004FFA7369B3F5807F05D023B141F20F31BF
:101940000D48FFF745FA25F40065F36845EA0325DD
:1019500025F4806527F44057736947EA0317B36994
:1019600047EA03176760C4F81C807368E363256265
:10197000BDE8F081000001407C5500082DE9F041F0
:1019800004460F46036A23F480530362056AD0F8C5
:101990000480C66926F4E6430E6843EA062625F469
:1019A00000538D6843EA0535114B984205D003F585
:1019B0008063984203D1012302E0012300E0002369
:1019C00073B17B69B3F5807F05D023B141F2533108
:1019D0000848FFF7FDF928F480487B6948EA831836
:1019E000C4F80480E6617B6823642562BDE8F08169
:1019F000000001407C550008704700BF10B5044648
:101A00000368234A934237D0B3F1804F34D0A2F514
:101A10007C42934230D002F5806293422CD002F592
:101A20008062934228D002F58062934224D002F56E
:101A30008062934220D002F5704293421CD002F59E
:101A40007052934218D002F58062934214D002F58E
:101A50008062934210D0A2F5983293420CD002F5E6
:101A60008062934208D002F58062934204D04FF422
:101A7000B2710848FFF7ACF92268D36843F001035C
:101A8000D3602268136843F001031360002010BD87
:101A9000000001407C55000810B504460368284A40
:101AA000934237D0B3F1804F34D0A2F57C429342B9
:101AB00030D002F5806293422CD002F580629342CE
:101AC00028D002F58062934224D002F580629342CE
:101AD00020D002F5704293421CD002F5705293421E
:101AE00018D002F58062934214D002F580629342CE
:101AF00010D0A2F5983293420CD002F58062934246
:101B000008D002F58062934204D040F279110D486A
:101B1000FFF75EF92268D36823F00103D3602368DE
:101B2000196A41F21112114208D1196A40F2444275
:101B3000114203D11A6822F001021A60002010BD80
:101B4000000001407C550008704700BF0368454A0B
:101B5000904214D0B0F1804F13D0A2F57C42904255
:101B600011D002F5806290420FD002F5806290425F
:101B70000DD002F5784290420BD101220AE00122F9
:101B800008E0012206E0012204E0012202E0012235
:101B900000E000221AB123F070034A681343314A6F
:101BA00090422CD0B0F1804F2BD0A2F57C429042D5
:101BB00029D002F58062904227D002F580629042DF
:101BC00025D002F57842904223D002F5705290421F
:101BD00021D002F5806290421FD002F580629042CF
:101BE0001DD0A2F5983290421BD002F5806290423F
:101BF00019D002F58062904217D1012216E001222D
:101C000014E0012212E0012210E001220EE0012284
:101C10000CE001220AE0012208E0012206E0012294
:101C200004E0012202E0012200E000221AB123F4C4
:101C30004073CA68134303608B68C3620B68836296
:101C4000084B984205D003F58063984203D10123E5
:101C500002E0012300E000230BB10B6903630123C1
:101C6000436170470000014000286DD010B5044664
:101C70000368364A934236D0B3F1804F33D0A2F591
:101C80007C4293422FD002F5806293422BD002F522
:101C90008062934227D002F58062934223D002F5FE
:101CA000806293421FD002F5704293421BD002F52E
:101CB0007052934217D002F58062934213D002F51E
:101CC000806293420FD0A2F5983293420BD002F576
:101CD0008062934207D002F58062934203D0D921FB
:101CE0001B48FFF775F8A3685BB1102B09D0202BB8
:101CF00007D0402B05D0602B03D0DA211448FFF722
:101D000067F823694BB1B3F5807F06D0B3F5007F48
:101D100003D0DB210E48FFF75BF894F8393013F05D
:101D2000FF0F05D1002384F838302046FFF764FE0A
:101D3000022384F83930211D2068FFF707FF0123B3
:101D400084F83930002010BD0120704700000140A8
:101D50007C550008002870D010B504460368384A46
:101D6000934237D0B3F1804F34D0A2F57C429342F6
:101D700030D002F5806293422CD002F5806293420B
:101D800028D002F58062934224D002F5806293420B
:101D900020D002F5704293421CD002F5705293425B
:101DA00018D002F58062934214D002F5806293420B
:101DB00010D0A2F5983293420CD002F58062934283
:101DC00008D002F58062934204D040F2F3311D48FE
:101DD000FEF7FEFFA36863B1102B0AD0202B08D0BA
:101DE000402B06D0602B04D04FF47D711548FEF7D0
:101DF000EFFF236953B1B3F5807F07D0B3F5007FC0
:101E000004D040F2F5310F48FEF7E2FF94F8393084
:101E100013F0FF0F05D1002384F838302046FFF778
:101E200093FE022384F83930211D2068FFF78EFECF
:101E3000012384F83930002010BD0120704700BF15
:101E4000000001407C5500082DE9F04104460E4693
:101E5000036A23F010030362056AD0F804808769DF
:101E600027F4E6430F6843EA072725F020038D682F
:101E700043EA0515164B984205D003F58063984256
:101E800003D1012302E0012300E00023BBB1F3688A
:101E900033B1082B04D041F2FB110E48FEF798FF36
:101EA00025F08005F36845EA031525F0400528F480
:101EB0004068736948EA8308B36948EA8308C4F84C
:101EC0000480A7617368A3632562BDE8F08100BF49
:101ED000000001407C55000890F83830012B00F0DC
:101EE0002E8170B516460D460446012380F8383021
:101EF00062B1042A0AD0082A08D00C2A06D0182A6F
:101F000004D040F63E418F48FEF762FF2B68602BFD
:101F100006D0702B04D040F63F418A48FEF758FFA8
:101F2000AB6833B1022B04D04FF444618548FEF70F
:101F30004FFF2B6933B1042B04D040F64141814857
:101F4000FEF746FF022384F839300C2E00F2F080B1
:101F5000DFE816F00D00EE00EE00EE005500EE009A
:101F6000EE00EE008E00EE00EE00EE00BE002368F4
:101F7000754A93422FD0B3F1804F2CD0A2F57C420A
:101F8000934228D002F58062934224D002F5806209
:101F9000934220D002F5784293421CD002F5705251
:101FA000934218D002F58062934214D002F5806209
:101FB000934210D0A2F5983293420CD002F5806281
:101FC000934208D002F58062934204D040F6494122
:101FD0005C48FEF7FDFE29462068FFF741FC2268B9
:101FE000936943F0080393612268936923F0040323
:101FF0009361226891692B690B43936198E0236890
:10200000514A93421FD0B3F1804F1CD0A2F57C42BD
:10201000934218D002F58062934214D002F5806298
:10202000934210D002F5784293420CD002F57052E0
:10203000934208D0A2F59432934204D040F658411E
:102040004048FEF7C5FE29462068FFF7FDFE2268DE
:10205000936943F4006393612268936923F4806376
:10206000936122689369296943EA012393615FE0E0
:102070002368354A934217D0B3F1804F14D0A2F5AC
:102080007C42934210D002F5806293420CD002F55C
:102090008062934208D002F57842934204D040F621
:1020A00067412848FEF794FE29462068FFF70CFC9C
:1020B0002268D36943F00803D3612268D36923F00F
:1020C0000403D3612268D1692B690B43D3612FE0EC
:1020D00023681D4A934217D0B3F1804F14D0A2F564
:1020E0007C42934210D002F5806293420CD002F5FC
:1020F0008062934208D002F57842934204D040F6C1
:1021000076411048FEF764FE29462068FFF736FC4A
:102110002268D36943F40063D3612268D36923F44E
:102120008063D3612268D369296943EA0123D361BB
:10213000012384F83930002084F8380070BD022073
:10214000704700BF7C5500080000014070B5044690
:102150000E461546264B98422FD0B0F1804F2CD01A
:10216000A3F57C43984228D003F58063984224D09D
:1021700003F58063984220D003F5784398421CD041
:1021800003F57053984218D003F58063984214D039
:1021900003F58063984210D0A3F5983398420CD091
:1021A00003F58063984208D003F58063984204D019
:1021B00041F27E210F48FEF70BFE66B1042E0AD0D5
:1021C000082E08D00C2E06D0182E04D041F27F2104
:1021D0000848FEF7FDFD012303FA06F2236A23EA0D
:1021E00002032362236AB5401D43256270BD00BF10
:1021F000000001407C55000838B504460D460368D0
:102200002D4A934212D0B3F1804F0FD0A2F57C42F9
:1022100093420BD002F58062934207D002F58062B0
:10222000934203D002F57842934206D135B3042D90
:1022300024D0082D22D00C2D20D0204A934202D148
:10224000E5B1042D1AD01E4A934200D1B5B11D4A02
:10225000934200D195B11C4A934202D175B1042D2D
:102260000CD01A4A934200D145B1194A934200D189
:1022700025B140F254411748FEF7AAFD0122294634
:102280002068FFF763FF23680B4A934205D002F5ED
:102290008062934203D1012202E0012200E0002289
:1022A0001AB15A6C42F400425A642268136843F02F
:1022B00001031360002038BD0000014000400140D0
:1022C000004401400048014000180040001C00404C
:1022D000002000407C55000838B504460D460368D0
:1022E000394A934212D0B3F1804F0FD0A2F57C420D
:1022F00093420BD002F58062934207D002F58062D0
:10230000934203D002F57842934206D135B3042DAF
:1023100024D0082D22D00C2D20D02C4A934202D15B
:10232000E5B1042D1AD02A4A934200D1B5B1294A09
:10233000934200D195B1284A934202D175B1042D40
:102340000CD0264A934200D145B1254A934200D190
:1023500025B140F275412348FEF73AFD0022294697
:102360002068FFF7F3FE2368174A934205D002F571
:102370008062934203D1012202E0012200E00022A8
:102380006AB1196A41F21112114208D1196A40F278
:102390004442114203D15A6C22F400425A64236829
:1023A000196A41F21112114208D1196A40F24442ED
:1023B000114203D11A6822F001021A60012384F845
:1023C0003930002038BD00BF00000140004001400E
:1023D000004401400048014000180040001C00403B
:1023E000002000407C55000853B94AB9002908BFB5
:1023F00000281CBF4FF0FF314FF0FF3000F07EB9D6
:10240000ADF1080C6DE904CE00F006F8DDF804E04B
:10241000DDE9022304B070472DE9F0478C460E46F3
:102420000446089D002B50D18A4217466CD9B2FA57
:1024300082FEBEF1000F0BD0CEF1200420FA04F48E
:1024400001FA0EF644EA060C02FA0EF700FA0EF450
:102450004FEA1749220CBCFBF9F01FFA87F809FB79
:1024600010C642EA064600FB08F3B34209D9F61942
:1024700000F1FF3280F02281B34240F21F81023826
:102480003E44F61AA2B2B6FBF9F309FB136642EA20
:10249000064403FB08F8A04509D9E41903F1FF320B
:1024A00080F00A81A04540F20781023B3C44C8EB22
:1024B000040443EA00400021002D62D024FA0EF407
:1024C00000232C606B60BDE8F0878B4207D9002D9C
:1024D00055D0002185E841000846BDE8F087B3FAF1
:1024E00083F1002940F09080B34202D3824200F28F
:1024F000F880841A66EB03060120B446002D40D014
:1025000085E81010BDE8F08712B90127B7FBF2F794
:10251000B7FA87FEBEF1000F35D1F31B4FEA17481B
:102520001FFA87FC0121B3FBF8F0220C08FB1036E0
:1025300042EA06460CFB00F3B34207D9F61900F154
:10254000FF3202D2B34200F2CE801046F61AA2B297
:10255000B6FBF8F308FB136642EA06440CFB03FCE7
:10256000A44507D9E41903F1FF3202D2A44500F2D1
:10257000B5801346CCEB040443EA00409CE72946AF
:102580002846BDE8F087CEF1200106FA0EF307FADF
:102590000EF720FA01F94FEA1748CE4049EA03093D
:1025A000B6FBF8FA4FEA194408FB1A661FFA87FCD3
:1025B00044EA06430AFB0CF29A4200FA0EF40AD9E6
:1025C000DB190AF1FF3180F087809A4240F2848063
:1025D000AAF1020A3B449B1A1FFA89F9B3FBF8F1EE
:1025E00008FB113349EA034301FB0CF69E4207D96D
:1025F000DB1901F1FF326BD29E4269D902393B44AB
:102600009B1B41EA0A418EE7C1F1200E22FA0EF42B
:102610008B40234320FA0EF706FA01F44FEA134CDD
:1026200026FA0EF63C43B6FBFCF9270C0CFB1966A8
:102630001FFA83F847EA064609FB08F7B74202FA91
:1026400001F200FA01FA08D9F61809F1FF3041D277
:10265000B7423FD9A9F102091E44F61BA0B2B6FB4E
:10266000FCF40CFB146640EA064704FB08F8B84586
:1026700007D9FF1804F1FF3028D2B84526D9023C0B
:102680001F4444EA0940C8EB0707A0FB02894F45F5
:1026900044464E4614D329D065B3BAEB040367EB26
:1026A000060707FA0EFECB40CF404EEA030385E84B
:1026B00088000021BDE8F0871346F8E61046E0E602
:1026C000B8EB020469EB03060138E5E70446D8E7F6
:1026D000114695E78146C0E78A467CE7023B3C44C9
:1026E00048E708460AE702383E442FE7C245E7D3E9
:1026F0003E46D1E72946BDE8F08700BF704700BFDE
:10270000014B1868704700BF440200202DE9F047D4
:1027100088B0002B149F1299109DDDF84CA01E4626
:1027200027F02007BBBF03F100431E4600232D23E3
:10273000462F14460B7003D0452F03D1013501E01D
:10274000032300E0022307AA049206AA03928DE85D
:1027500028042246334600F01BFD472F804602D155
:10276000119BDB0728D5462F08EB050911D198F8F6
:102770000030302B0AD1002200232046314602F0DF
:102780009DFC18B9C5F10105CAF80050DAF800300F
:102790009944002200232046314602F08FFC08B9FC
:1027A000302202E0CDF81C9006E0079B994503D942
:1027B000591C07911A70F8E7079B159AC8EB030399
:1027C0004046136008B0BDE8F08773B503460029A2
:1027D000B8BF494203F8022BB4BF2D222B2209298E
:1027E000427019DD0DF1070216460A2591FBF5F43A
:1027F00005FB14113031092C02F8011D2146F5DCCE
:102800003031541E02F8011CB4421A460AD214F8A0
:10281000012B03F8012BF7E730241A46214402F874
:10282000024B5970101A02B070BD00002DE9F04F34
:1028300091B00C46DDF8688016461F46054601F04B
:1028400043FA03680993184600F0D0FB00230E9367
:10285000D8F800300A90073323F0070303F1080289
:1028600094F81890D4F800B0C8F80020D3E90023F9
:10287000C4E91223D4F84CA0D4F848802AF00043CD
:102880000B934FF0FF32A74B0B99404602F048FCE8
:10289000A0B94FF0FF32A34B0B99404602F022FC47
:1028A00060B9002200234046514602F011FC10B1ED
:1028B0002D2384F843309C4B9C4A0AE04246534601
:1028C0004046514602F02CFC002800F09281984BC3
:1028D000984AB9F1470F8CBF90469846032323616D
:1028E0002BF0040323604FF0000A3DE0B9F1670FBD
:1028F00000F08A81B9F1470F00F086812360002142
:102900000DF13302019363680590029200934246F1
:1029100053460691CDF81090CDF80CE02846FFF70D
:10292000F5FE09F0DF03472B804600F08481B9F102
:10293000650F0D9900F28D8101394A4604F150006E
:102940000D91FFF742FF0E9A8318012A82462361F8
:1029500000F37C812268D10700F178819DF8333043
:1029600013B12D2384F84330009733460FAA214634
:10297000284600F09FF9013002D14FF0FF3096E178
:1029800023685A0501D4236965E0B9F1650F40F267
:10299000D58000220023D4E9120102F08FFB78B326
:1029A0000123654A31462846B8470130E5D00E9BE1
:1029B0000D9A9A420BDB2368D80708D423689B073B
:1029C00040F111814FF0000804F1190906E10A9B5A
:1029D000099A31462846B8470130CED04FF000085A
:1029E00004F11A090E9B013B9845E7DA01234A4698
:1029F00031462846B8470130BFD008F10108F1E759
:102A00000D9B002B29DC01234B4A31462846B84751
:102A10000130B2D00D9B23B90E9B13B92368D9079F
:102A2000CCD50A9B099A31462846B8470130A4D034
:102A30004FF0000904F11A0A0D9B5B42994509DA2F
:102A40000123524631462846B847013095D009F156
:102A50000109F1E70E9B4246A7E00E9AA36D9A4248
:102A6000A8BF1A46002A914606DC4FF0000A29EA60
:102A7000E97904F11A0B11E0134631464246284623
:102A8000B8470130F1D178E701235A46314628464C
:102A9000B84701303FF471AF0AF1010AA36DC9EBE9
:102AA00003029245F0DB08EB03090D9A0E9B9A4254
:102AB0000FDB2368DA070CD40E9B0D9A9844C9EB00
:102AC00008089B1A9845A8BF9846B8F1000F08DC83
:102AD0000FE00A9B099A31462846B8470130EBD1EE
:102AE0004BE743464A4631462846B84701303FF453
:102AF00044AF4FF0000928EAE87804F11A0A09E027
:102B00000123524631462846B84701303FF435AFDD
:102B100009F101090D9A0E9B9B1AC8EB0303994515
:102B2000EEDB4BE7FFFFEF7F985500089C55000850
:102B3000A0550008A4550008A85500080E9A012ABF
:102B400001DCDB0738D50123424631462846B84729
:102B500001303FF412AF0A9B099A31462846B84724
:102B600001303FF40AAF00220023D4E9120102F041
:102B7000A5FA20B14FF0000804F11A090EE00E9BEF
:102B800008F10102013B19E001234A46314628467B
:102B9000B84701303FF4F1AE08F101080E9B013B4C
:102BA0009845F1DB534604F1500231462846B847B8
:102BB00001307FF403AFE0E6012342463146284668
:102BC000B8470130EED1D8E601234A4631462846BF
:102BD000B84701303FF4D1AE08F10108E3680F9A1D
:102BE0009B1A9845F0DBE0680F9B9842B8BF1846E7
:102BF0005DE06268531C0EA84BF480630DF1340E47
:102C00007FF474AE062201E012B90122626075E61B
:102C1000002106910DF133018DE80C002360059031
:102C20004246CDF81090CDF80CE00291534628466C
:102C3000FFF76CFD80460D9BD81C02DB6268934257
:102C40001DDDA9F102095FFA89F970E601332361FC
:102C500084E6B9F1660F14D10029636807DD2161AC
:102C600013B92268D2071DD501330B4419E013B9FB
:102C70002268D00701D5023313E0012311E04FF0A1
:102C800067090D9B0E9A934205DB22682361D107E9
:102C900008D5013305E0002BD4BFC3F102030123A3
:102CA000134423610D9BA3654FF0000A56E611B053
:102CB000BDE8F08F2DE9F04791461F460A698B6801
:102CC000DDF820809342B8BF1346C9F8003091F870
:102CD000432006460C4612B10133C9F80030236880
:102CE000990642BFD9F800300233C9F80030256890
:102CF00015F0060510D104F1190A07E00123524628
:102D000039463046C04701301AD00135E368D9F85A
:102D100000209B1A9D42F1DB94F843302268003377
:102D200018BF012392060FD5E1185A1C302081F8F4
:102D30004300224494F8451082F84310023303E024
:102D40004FF0FF30BDE8F08704F1430239463046CA
:102D5000C0470130F4D02268D9F80050E36802F08F
:102D60000602042A08BF5D1B2269A3680CBF25EA7E
:102D7000E57500259342C4BF9B1AED184FF000097A
:102D80001A344D4509D00123224639463046C04702
:102D90000130D5D009F10109F3E70020BDE8F08743
:102DA0002DE9F04317460A7E85B06E2A98460646FE
:102DB0000C460C9B01F1430E00F0AE8011D8632A43
:102DC00022D009D8002A00F0BB80582A40F0CA80DF
:102DD00081F84520834955E0642A1ED0692A1CD019
:102DE000C0E0732A00F0B08009D86F2A2ED0702A74
:102DF00040F0B8800A6842F020020A603EE0752A7E
:102E000024D0782A3AD0ADE01A6801F14205111DAC
:102E10001960136884F84230A8E021681A6811F03C
:102E2000800F02D0111D196008E011F0400F02F16F
:102E30000401196002D0B2F9003000E01368002BE1
:102E40003CDA2D225B4284F8432037E021681A687F
:102E500011F0800F02D0111D196007E011F0400F32
:102E600002F10401196001D0138800E01368227E8A
:102E70005C496F2A14BF0A2208221BE078225A49B3
:102E800084F845202268186812F0800F00F10405CC
:102E90001D6003D1550601D5038800E00368D00703
:102EA00044BF42F0200222601BB9226822F02002B7
:102EB00022601022002084F8430001E049490A22E0
:102EC0006568A560002D08DB206820F00400206004
:102ED0002BB9002D7DD175460CE0002B79D07546BD
:102EE000B3FBF2F002FB1033CB5C05F8013D034667
:102EF0000028F5D1082A0BD12368DA0708D5236901
:102F000062689A42DEBF302305F8013C05F1FF35C7
:102F1000C5EB0E0323612EE008681A68496910F0BA
:102F2000800F03D0101D1860136808E010F0400FE8
:102F300002F104001860136801D0198000E01960E4
:102F400000232361754616E01A68111D1960156883
:102F500062680021284600F0D3FE08B1401B606083
:102F6000636804E004F1420584F8422001232361F0
:102F7000002384F84330CDF800803B4603AA214665
:102F80003046FFF797FE013002D14FF0FF3026E0C8
:102F900023692A4639463046C0470130F5D02368B8
:102FA0009B0710D5002504F1190907E001234A46C3
:102FB00039463046C0470130E7D00135E368039A0F
:102FC0009B1A9D42F2DBE068039B9842B8BF18460B
:102FD00005E00B7884F8423004F142058AE705B039
:102FE000BDE8F083AA550008BB550008034613F856
:102FF000012B002AFBD1181A0138704730B5141E76
:1030000005469BB0184604DA8B232B604FF0FF3047
:103010001DE04FF40273ADF80C3014BF04F1FF3320
:103020002346029305934FF6FF7300910491ADF888
:103030000E3002461E9B6946284601F0A7FA431C43
:10304000BCBF8B232B6014B1009B00221A701BB0F5
:1030500030BD000007B5009313460A4601460348F9
:103060000068FFF7CBFF03B05DF804FB44020020CB
:103070002DE9F74F03690C699C42804600F3838079
:10308000013C01F114074FEA840E00F1140657F8D1
:10309000245006EB0E030193013556F82430B3FBA0
:1030A000F5F507EB0E09002D39D04FF0000A384630
:1030B000B446D34650F8042B93B205FB03A34FEA62
:1030C000134A9BB2C3EB0B03120CBCF800B005FB18
:1030D00002A213FA8BF34FEA124A1FFA82FBDCF8C2
:1030E0000020CBEB124202EB23429BB243EA0243A5
:1030F00081454FEA224B4CF8043BDBD256F80E30A8
:103100006BB9019B043B9E421A4602D3C8F810409B
:1031100005E01268043B002AF8D1013CF3E7404681
:1031200001F057F800282CDB013530464FF0000E37
:1031300057F8041BD0F800C08AB2C2EB0E03090C8A
:1031400013FA8CF3C1EB1C4202EB23429BB243EA1D
:103150000243B9454FEA224E40F8043BE8D256F804
:10316000242006EB840362B9043B9E421A4602D334
:10317000C8F8104005E01268043B002AF8D1013C71
:10318000F3E7284600E0002003B0BDE8F08F000020
:103190002DE9F04F456A95B08246219CCDE9022386
:1031A00045B9102000F09EFDCAF8240045608560F6
:1031B0000560C560DAF82430196859B15A684A6068
:1031C000012393408B60504600F02AFEDAF8243049
:1031D00000221A60039BA04A002BBFBF012323607B
:1031E000039B23F00043B8BF0393DDF80C80A4BF1A
:1031F0000023236028F000431B0D1B0593421DD1C3
:10320000209A42F20F731360029B43B9934A944B86
:10321000C8F31300002814BF1846104600E0904879
:10322000229B002B00F04A85C37813B100F10803FC
:1032300000E0C31C229A136000F040BDDDE90245A6
:10324000002200232046294601F038FF074658B1E6
:10325000209A01231360229B002B00F022858148D5
:103260001860013800F02ABD12AB019313AB009334
:1032700022462B46504601F027F8C8F30A56049020
:1032800056B1C5F3130343F07F51204641F440117A
:10329000A6F2FF3611971DE0139B129E1E4406F204
:1032A0003243202B0ADD029A06F21240C3F140039A
:1032B00022FA00F008FA03F3184304E0C3F12000F7
:1032C000029B03FA00F001F01BFC0123A1F1F8714D
:1032D000013E11930022644B01F0D4FA58A3D3E9C4
:1032E000002301F083FC58A3D3E9002301F0CCFABA
:1032F000044630460D4601F013FC55A3D3E90023E4
:1033000001F074FC02460B462046294601F0BCFA47
:1033100004460D4601F01AFF002283460023204692
:10332000294601F0D5FE58B1584601F0F9FB024696
:103330000B462046294601F0C1FE08B90BF1FF3BC0
:10334000BBF1160F0DD8494901EBCB01DDE9022392
:10335000D1E9000101F0DAFE30B10BF1FF3B0023AF
:1033600000E00123109300E01090129B9E1B731E3F
:10337000079343BFC3F10008002307934FF00008F1
:10338000BBF1000F06DB079BCDF82CB05B44079325
:10339000002705E00023CBEB0808CBF100070B93D7
:1033A0001E9B092B27D8052BC4BF043B1E931E9BD5
:1033B000A3F10203CCBF00250125032B20D8DFE8B1
:1033C00003F0060E0204012302E0012308E00023BB
:1033D0000A931F9B002B1DDD9946059321E00023D6
:1033E0000A931F9B0BEB030909F10103012B0593C2
:1033F000B8BF012315E0012500231E930A9501E0C3
:1034000001230A934FF0FF390022CDF814901223C4
:103410001F9206E04FF00109CDF814904B46CDF80D
:103420007C90DAF8244000226260042101F1140249
:103430009A421DD86268013262604900F6E700BF17
:1034400061436F63A787D23FB3C8608B288AC63FAA
:10345000FB799F501344D33F0000F07FCC55000808
:10346000D5550008A95500080000F83FE0550008B0
:103470006168504600F09FFCDAF8243020601B6839
:103480000693059B0E2B00F25D81002D00F05A8102
:10349000DDE90234BBF1000FCDE90E3431DDA04A85
:1034A0000BF00F0302EBC303D3E900344FEA2B15F3
:1034B000E806CDE908340CD59A4BDDE90E01D3E9D5
:1034C000082301F0BDFC05F00F05CDE9020103243E
:1034D00000E00224934E6DB1E90708D5DDE908014B
:1034E000D6E9002301F082FBCDE9080101346D101B
:1034F0000836F0E7DDE90823DDE9020101F0A0FC70
:1035000020E0CBF1000505B3854B864E05F00F0298
:1035100003EBC203D3E90023DDE90E0101F066FBF2
:10352000CDE902012D110023022455B1EA0705D58A
:10353000D6E9002301F05AFB013401236D1008364F
:10354000F3E71BB1CDE9020100E00224109BE3B1D7
:10355000DDE902560022744B2846314601F0B8FDE1
:1035600098B1059B8BB1B9F1000F40F3E7800BF1E7
:10357000FF330893314600226C4B284601F036FB9E
:103580000134CDE902014E4602E0059ECDF820B09F
:10359000204601F0C5FADDE9022301F027FB644B68
:1035A000002201F071F9A1F1507304460C931D46FD
:1035B000D6B900225F4BDDE9020101F063F9224632
:1035C0000C9BCDE9020101F0A1FD002840F04082F2
:1035D0000C99224601F10043DDE9020101F078FD7A
:1035E000002840F02C82A9E00A9A4D4B711E002A57
:1035F00049D003EBC103D3E9002300204E4901F079
:103600001FFC22462B4601F03DF9CDE90C01069C3A
:10361000DDE9020101F09AFD054601F081FA02465A
:103620000B46DDE9020101F02DF9303504F8015BAC
:10363000DDE90C23CDE9020101F04AFD002840F04C
:103640002083DDE902230020374901F01BF9DDE981
:103650000C2301F03DFD002840F0D280069BE31AC8
:10366000B3426BDA0022314BDDE90C0101F0BEFA06
:103670000022CDE90C012D4BDDE9020101F0B6FA83
:10368000CDE90201C4E703EBC10122462B46D1E993
:10369000000101F0ABFA069BCDE90C019C191D4617
:1036A000DDE9020101F052FD064601F039FA30363B
:1036B00002460B46DDE9020101F0E4F805F8016B72
:1036C000AC42CDE902014FF0000223D11A4BDDE9F3
:1036D0000C0101F0D9F802460B46DDE9020101F0C8
:1036E00015FD002840F08C80DDE90C2300201249F4
:1036F00001F0C8F802460B46DDE9020101F0E8FCE2
:10370000E0B114F8013C302B04F1FF3240F0B982F3
:103710001446F6E7054B01F069FACDE90201BFE76F
:10372000E0550008A85600080000F03F00002440C3
:1037300000001C40000014400000E03FDDE90E34B2
:10374000CDE90234139B002B7DDBBBF10E0F7ADC3D
:10375000AB4B03EBCB03D3E900671F9B002B14DAC1
:10376000059B002B11DC40F06C810022A54B3046FC
:10377000394601F03BFADDE9022301F0BDFC059D6D
:103780002E46002840F05F8165E1DDE90289069C54
:1037900032463B464046494601F052FB01F0D6FC1A
:1037A000054601F0BDF932463B4601F01FFA0B46D3
:1037B00002464946404601F065F805F1300E069B89
:1037C00004F801EBC3EB040E059B73452ED10246B2
:1037D0000B4601F059F88046894602460B463046B2
:1037E000394601F075FC78B942464B4630463946B9
:1037F00001F064FC002800F04682EB0704D442E2AA
:10380000DDF820B000E01C4614F8012C392A04F140
:10381000FF3307D1069A9A42F5D1069930220BF16F
:10382000010B0A701A7801321A702CE20022764BD2
:1038300001F0DCF9002200238046894601F03EFCBD
:103840000028A5D01FE20A9A002A2BD01E9A012A2E
:103850000ADC119A12B103F2334302E0129BC3F166
:1038600036033D46444613E0059B5D1EAF42BFBF95
:103870000B9BEA1B9B180B93059BB6BF2F467D1B2A
:103880000025002BABBF059BC3EB08044446002377
:10389000079A01211A4450469844079200F05FFBB2
:1038A000064602E00A9E3D4644465CB1079B002B5B
:1038B00008DDA342079AA8BF2346C3EB0808E41A11
:1038C000D31A0793002F1DDD0A9BABB18DB1314692
:1038D0002A46504600F0DEFB049A01460646504652
:1038E00000F046FB04990890504600F099FA089BB6
:1038F00004937A1B06D000E03A460499504600F043
:10390000C9FB04900121504600F029FB0B9B0546A2
:103910005BB31A460146504600F0BCFB1E9B012BD0
:10392000054618DC029B83B9039BC3F3130373B9E9
:10393000039B23F000473F0D3F054FB1079B013329
:1039400008F101080793012702E0002700E0029F29
:103950000B9B73B100E000272B6905EB830318690B
:1039600000F0B0FAC0F1200004E01E9B012BD9DD6D
:103970000B9F0120079B184410F01F0008D0C0F1D6
:103980002003042B02DDC0F11C0002E006D0184623
:103990001C30079B0344804404440793B8F1000F94
:1039A00005DD42460499504600F0C2FB0490079B97
:1039B000002B05DD29461A46504600F0B9FB0546A6
:1039C000109B1BB32946049800F003FC00281DDA65
:1039D00000230A220499504600F039FA0A9B049009
:1039E0000BF1FF3B002B00F06081314600230A22DF
:1039F000504600F02CFAB9F1000F06463EDC3AE0E2
:103A0000E05500080000144000002440059B002BF6
:103A10002BDC1E9B022B28DDDDF81490B9F1000F82
:103A200011D129464B460522504600F010FA0146B6
:103A30000546049800F0CDFB00280CDC03E0354679
:103A400000E000252E461F9B069C6FEA030B09E051
:103A5000DDF820B03546069B069A5C1C31231370B6
:103A60000BF1010B05960026F9E00A9BDDF8149096
:103A700023B9069CB2E01E9B022BCFDC002C05DD97
:103A800031462246504600F053FB06469FB171680E
:103A9000504600F090F9326902320446920006F175
:103AA0000C010C3000F07CF901222146504600F058
:103AB0003FFB059000E00596029B069F03F0010383
:103AC000079329460498FFF7D3FA3146044600F1DC
:103AD0003008049800F07DFB059A02902946504674
:103AE00000F093FBC36802463BB901460A90049874
:103AF00000F06FFB0A9A034600E00123114650468E
:103B00000A9300F08DF90A9B53B91E9A42B9079A9D
:103B100032B9B8F1390F2AD0029B002B1CDC1DE012
:103B2000029A002A04DB1BD11E9ACAB9079ABAB9B5
:103B3000002B13DD01220499504600F0F9FA2946C2
:103B4000049000F046FB002803DC07D118F0010FB9
:103B500004D0B8F1390F0AD004F131087C1C0CE014
:103B6000002B07F101040BDDB8F1390F03D1392324
:103B70003B70013756E008F1010887F800806EE0DD
:103B8000069B04F8018CE31A4B4527463BD00023E3
:103B90000A220499504600F05AF9059B04909E426F
:103BA0004FF00A024FF000033146504604D100F0B6
:103BB0004EF90646059084E700F049F900230646D1
:103BC0000A220599504600F042F9059079E7002352
:103BD0000A220499504600F03AF9049029460498C4
:103BE000FFF746FA00F1300804F8018B069BE31A50
:103BF0004B45ECDB069B0596B9F1010FACBF4B447E
:103C000001331F46002601220499504600F090FA25
:103C10002946049000F0DDFA002803DC16D118F0E4
:103C2000010F13D03C4614F8013C392B04F1FF324C
:103C300009D1069B934204D10BF1010B3123069A63
:103C400002E01446EFE70133137008E03C4614F835
:103C5000013C302B04F1FF3201D11446F7E729462D
:103C6000504600F0DDF8059B6BB12EB19E4203D0AB
:103C70003146504600F0D4F80599504600F0D0F88F
:103C800001E0DDF820B00499504600F0C9F80023A7
:103C9000209A23700BF101031360229B1BB11C605F
:103CA00001E008480AE0069808E0B9F1000F3FF784
:103CB000E0AE1E9B022B7FF7DCAEAFE615B0BDE891
:103CC000F08F00BFA8550008044B1B68186A044B0E
:103CD000002808BF1846F030704700BF440200209B
:103CE00048020020024B0146186800F097BB00BF55
:103CF000440200200000000000000000000000005E
:103D000001F0FF01102A2BDB10F0070F08D010F88C
:103D1000013B013A8B422DD010F0070F42B3F6D190
:103D2000F0B441EA012141EA014122F007047FF0A9
:103D300000070023F0E80256083C85EA010586EA00
:103D4000010685FA47F5A3FA87F586FA47F6A5FA3C
:103D500087F68EB9EED1F0BC01F0FF0102F0070248
:103D600032B110F8013B013A83EA010313B1F8D1F3
:103D70000020704701387047002D06BF35460338D4
:103D8000073815F0010F07D1013015F4807F02BF0D
:103D9000013015F4C03F0130F0BC0138704700BF5E
:103DA00010B5431E0A44914204D011F8014B03F8A8
:103DB000014FF8E710BD70B5456A04460E463DB99F
:103DC0001020FFF78FFF6062456085600560C56069
:103DD000656AEB6843B1636ADB6853F8260078B123
:103DE000026843F8262017E021220421204600F033
:103DF000B9FA636AE860DB68002BECD1002070BD83
:103E0000012101FA06F56A1D9200204600F0AAFA87
:103E10000028F3D04660856000230361C36070BD55
:103E200070B5446A06460D463CB91020FFF75AFFAC
:103E30007062446084600460C4603DB1736A6A6803
:103E4000DB6853F82210296043F8225070BD2DE939
:103E5000F0410D691F4606460C4601F1140E002381
:103E6000DEF8000081B202FB01710F0C000C02FBB6
:103E7000007089B2013301EB00419D424FEA1047C7
:103E80004EF8041BECDCD7B1A3689D4212DB6168DD
:103E900030460131FFF78FFF2269023204F10C0135
:103EA000804692000C30FFF77BFF21463046FFF73B
:103EB000B7FF444604EB850301355F612561204669
:103EC000BDE8F081030C1B0413B90004102300E0CB
:103ED000002310F07F4F04BF0002083310F0704F32
:103EE00004BF0001043310F0404F04BF80000233D0
:103EF000002803DB420003D5581C70471846704762
:103F000020207047036813F007020BD0D90722D492
:103F10009A074BBF5B089B08036003604CBF0120FE
:103F20000220704799B209B91B0C102213F0FF0F41
:103F300004BF1B0A0832190704BF1B090432990782
:103F400004BF9B080232D90702D45B0805D00132B6
:103F5000036010467047002070472020704710B55E
:103F60000C460121FFF727FF01224461026110BDC9
:103F70002DE9F74F14460A6923699A42B8BF0B46E8
:103F80008846BCBFA0461C46D8F81070D4F81090E4
:103F9000D8F80830D8F8041007EB09069E42C8BFCD
:103FA0000131FFF708FF00F1140505EB860C2B46E5
:103FB0000022634502D243F8042BFAE704F114020D
:103FC00008F1140102EB890301EB87070093009BC2
:103FD0000192934257D9B2F800B0BBF1000F23D041
:103FE0008946AE464FF0000859F8044BBEF800A0D1
:103FF000A3B20BFB03A34FEA144ADEF8004043448C
:104000004FEA14480BFB0A8404EB1344F2469BB2BC
:1040100043EA04434F454FEA14484AF8043B01D9A8
:10402000D646E1E7CEF80480019BB3F802A0043243
:10403000BAF1000F21D02B682C4689464FF00008BA
:10404000B9F800E0B4F802B00AFB0EBEF044A34693
:104050009BB243EA08434BF8043B59F8043BB4F8DD
:1040600004E01B0C0AFB03E303EB18434F454FEA44
:10407000134801D95C46E3E763600435A7E75CF8C1
:10408000043D13B9013E002EF9DC066103B0BDE822
:10409000F08F00002DE9F843154612F003020646A2
:1040A0000F4607D0013A214C002354F82220FFF795
:1040B000CEFE0746AD1036D0746A3CB91020FFF72B
:1040C00011FE7062446084600460C460D6F824808D
:1040D000D8F808404CB940F271213046FFF73FFF55
:1040E0000023C8F80800044603604FF00008EB07FF
:1040F0000AD5394622463046FFF73AFF394681460F
:104100003046FFF78DFE4F466D100CD0206808B189
:104110000446ECE7224621463046FFF729FF20609F
:10412000C0F80080F4E73846BDE8F883D0560008B0
:104130002DE9F0470C464FEA621A26694968A368E0
:10414000564407469146751CAB4202DA01315B00CA
:10415000FAE73846FFF72FFE0023804600F11401EE
:104160001A46534503DA41F823200133F9E72AEAD6
:10417000EA73206901EB830319F01F0904F11401AC
:1041800001EB800E14D0C9F1200C0022086800FA5F
:1041900009F002439A4643F8042B51F8042B8E454C
:1041A00022FA0CF2F2D8CAF8042042B1B51C06E09B
:1041B000043B51F8042B43F8042F8E45F9D8013DF8
:1041C0003846C8F810502146FFF72AFE4046BDE8A1
:1041D000F08703690A699B1A10B511D19200143057
:1041E000143183180A4453F8044D52F8041D8C42CC
:1041F00002D007D3012010BD9842F4D3002010BD97
:10420000184610BD4FF0FF3010BD2DE9F8430C46A5
:104210000746114620461546FFF7DBFF061E08D16C
:1042200031463846FFF7C7FD012303614661BDE80B
:10423000F883BCBF23462C4638466168BABF1D468A
:1042400001260026FFF7B7FD2B69C660266905F138
:104250001409143404EB860709EB830800F11405F4
:104260004FF0000C54F8043B59F8042B1CFA83F16E
:104270001FFA82FE120CCEEB0101C2EB134303EBDB
:10428000214389B24FEA234CC84541EA0343A6467D
:1042900045F8043BE6D8BE450ED25EF8041B1CFA76
:1042A00081F2131403EB114392B242EA03424FEA44
:1042B000234C45F8042BEEE755F8043D0BB9013EBD
:1042C000FAE70661BDE8F8832DE9F34101211C46B8
:1042D0009046089E099DFFF76EFDC4F31302C4F3D8
:1042E0000A5407460CB142F480120192B8F1000F53
:1042F00019D002A840F8088DFFF704FE009B48B1D2
:10430000019AC0F1200102FA01F10B43C2407B6126
:10431000019200E07B61019BBB61002B14BF022175
:104320000121396107E001A8FFF7ECFD019B7B61EA
:1043300001213961203034B1A4F2334404443460A3
:10434000C0F1350009E007EB8103A0F23240306094
:104350001869FFF7B7FDC0EB41102860384602B07E
:10436000BDE8F08138B502FB01F4214600F056F8B3
:10437000054618B12246002100F039FA284638BD1A
:1043800038B50546002946D051F8043C0C1F002BD7
:10439000B8BFE41800F033FA1F4A1368114613B986
:1043A0006360146032E0A3420ED92268A0188342F1
:1043B00004BF18685B68636004BF121822600C6059
:1043C00024E0A24203D813465A68002AF9D118689B
:1043D0001918A1420BD12168014458188242196072
:1043E00014D1106852685A60014419600EE002D975
:1043F0000C232B600AE021686018824204BF106819
:104400005268626004BF091821605C602846BDE8FC
:10441000384000F0F5B938BDA804002070B5CD1CB7
:1044200025F0030508350C2D38BF0C25002D064658
:1044300001DBA94202D90C23336046E000F0DFF92A
:10444000234B1C681A462146A1B10B685B1B0ED496
:104450000B2B03D90B60CC18CD501EE08C420DBF46
:1044600063684B686360136018BF0C4615E00C4628
:104470004968E9E7174C23681BB9304600F07AF920
:1044800020602946304600F075F9431C18D0C41C42
:1044900024F00304A0420DD12560304600F0B0F9AD
:1044A00004F10B00231D20F00700C31A0ED05A425E
:1044B000E25070BD211A304600F05CF90130EBD1BA
:1044C0000C233360304600F09BF9002070BD00BF24
:1044D000A8040020A40400202DE9F0478E689E4225
:1044E00082460C46914698463ED88A8912F4906FCF
:1044F0003AD0256809696F1A6569022305EB4505FD
:1045000095FBF3F57B1C43449D4238BF1D46530584
:104510000FD52946FFF782FF064698B13A46216932
:10452000FFF73EFCA38923F4906343F08003A3814B
:1045300013E02A4600F065F9064670B92169504635
:10454000FFF71EFF0C23CAF80030A38943F0400395
:10455000A3814FF0FF30BDE8F087266165613E44DE
:10456000ED1B2660A5604646464528BF46463246B6
:104570004946206800F020F9A3689B1BA3602368CC
:104580001E4426600020BDE8F08700002DE9F04FB2
:104590009DB0804603938B891C060D4616460DD5AB
:1045A0000B695BB94021FFF739FF2860286118B912
:1045B0000C23C8F80030CDE040236B610023099341
:1045C00020238DF82930DFF89CB130238DF82A3074
:1045D00037463C4614F8013B1BB9B7EB060910D02F
:1045E00003E0252BF9D02746F3E74B463246294610
:1045F0004046FFF771FF013000F0A780099B4B4454
:1046000009933B78002B00F0A08000234FF0FF328D
:1046100004930793059206938DF853301A9301265D
:10462000052221784E48FFF76BFB671C049B38B1CD
:104630004B4A801A06FA00F0184304903C46EFE714
:10464000D90644BF20228DF853201A0744BF2B22DD
:104650008DF8532022782A2A03D0079A00210A20B5
:104660000BE0039A111D12680391002A10DA5242DE
:1046700043F00200079204900BE0274601343B7898
:10468000303B092B03D800FB02320121F5E701B1D1
:1046900007923B782E2B1ED17B782A2B0AD1039BC5
:1046A0001A1D1B680392002BB8BF4FF0FF3302376F
:1046B000059310E000230593781C19460A24074649
:1046C00001303A78303A092A03D804FB012101234A
:1046D000F5E703B10591032239782248FFF710FB73
:1046E00040B14023CBEB000003FA00F0049B1843D9
:1046F0000490013739781C488DF8281006227E1C5A
:10470000FFF7FEFA88B1194B33B9039B073323F047
:1047100007030833039314E003AB00932A46144BBA
:1047200004A94046FEF782F807E003AB00932A464F
:104730000F4B04A94046FEF733FBB0F1FF3F824622
:1047400003D0099B5344099342E7AB895B0601D42C
:10475000099801E04FF0FF301DB0BDE8F08F00BFB9
:10476000DC560008E2560008E65600082D2800082E
:10477000D944000838B5064C002305460846236096
:10478000FCF7FCFA431C02D1236803B12B6038BD4F
:10479000B004002082B001B901A93AB143B1137845
:1047A0000B601278101C18BF012003E0104601E0D6
:1047B0006FF0010002B07047884210B501EB0203B0
:1047C00001D8421E0BE09842FBD28118D21AD34284
:1047D00004D013F8014D01F8014DF8E710BD9942DE
:1047E00004D011F8014B02F8014FF8E710BD024464
:1047F0000346934202D003F8011BFAE77047704763
:104800007047F8B5074615460E4621B91146BDE872
:10481000F840FFF703BE1AB9FFF7B2FD2846F8BD0E
:1048200000F022F885420ED929463846FFF7F6FDFA
:10483000044650B131462A46FFF7B2FA31463846AF
:10484000FFF79EFD01E03046F8BD2046F8BD49B1B6
:10485000FF2A85BF8A2303600A704FF0FF3098BF9C
:10486000012070470846704751F8040C0028BEBF6D
:10487000091851F8043CC0180438704781F0004111
:1048800002E000BF83F0004330B54FEA41044FEA35
:10489000430594EA050F08BF90EA020F1FBF54EAD0
:1048A000000C55EA020C7FEA645C7FEA655C00F06C
:1048B000E2804FEA5454D4EB5555B8BF6D420CDD3D
:1048C0002C4480EA020281EA030382EA000083EAC0
:1048D000010180EA020281EA0303362D88BF30BD60
:1048E00011F0004F4FEA01314FF4801C4CEA1131B6
:1048F00002D0404261EB410113F0004F4FEA033315
:104900004CEA133302D0524263EB430394EA050F9F
:1049100000F0A780A4F10104D5F1200E0DDB02FA0E
:104920000EFC22FA05F2801841F1000103FA0EF2A2
:10493000801843FA05F359410EE0A5F120050EF168
:10494000200E012A03FA0EFC28BF4CF0020C43FA99
:1049500005F3C01851EBE37101F0004507D54FF0A6
:10496000000EDCF1000C7EEB00006EEB0101B1F5F6
:10497000801F1BD3B1F5001F0CD349085FEA30003C
:104980004FEA3C0C04F101044FEA445212F5800F47
:1049900080F09A80BCF1004F08BF5FEA500C50F1E4
:1049A000000041EB045141EA050130BD5FEA4C0CC7
:1049B000404141EB010111F4801FA4F10104E9D150
:1049C00091F0000F04BF01460020B1FA81F308BF47
:1049D0002033A3F10B03B3F120020CDA0C3208DD13
:1049E00002F1140CC2F10C0201FA0CF021FA02F1EE
:1049F0000CE002F11402D8BFC2F1200C01FA02F15E
:104A000020FA0CFCDCBF41EA0C019040E41AA2BF82
:104A100001EB0451294330BD6FEA04041F3C1CDA4A
:104A20000C340EDC04F11404C4F1200220FA04F06A
:104A300001FA02F340EA030021FA04F345EA030114
:104A400030BDC4F10C04C4F1200220FA02F001FAD6
:104A500004F340EA0300294630BD21FA04F0294658
:104A600030BD94F0000F83F4801306BF81F48011F1
:104A70000134013D4EE77FEA645C18BF7FEA655C64
:104A800029D094EA050F08BF90EA020F05D054EA36
:104A9000000C04BF1946104630BD91EA030F1EBF3B
:104AA0000021002030BD5FEA545C05D1400049413F
:104AB00028BF41F0004130BD14F580043CBF01F532
:104AC000801130BD01F0004545F0FE4141F4700118
:104AD0004FF0000030BD7FEA645C1ABF19461046F3
:104AE0007FEA655C1CBF0B46024650EA013406BFF4
:104AF00052EA033591EA030F41F4002130BD00BFB3
:104B000090F0000F04BF0021704730B54FF480646F
:104B100004F132044FF000054FF0000150E700BFF0
:104B200090F0000F04BF0021704730B54FF480644F
:104B300004F1320410F0004548BF40424FF000013C
:104B40003EE700BF42004FEAE2014FEA31014FEA7F
:104B500002701FBF12F07F4393F07F4F81F06051CE
:104B6000704792F0000F14BF93F07F4F704730B53D
:104B70004FF4607401F0004521F0004120E700BFD0
:104B800050EA010208BF704730B54FF000050AE057
:104B900050EA010208BF704730B511F0004502D558
:104BA000404261EB41014FF4806404F132045FEA5A
:104BB000915C3FF4DCAE4FF003025FEADC0C18BFFF
:104BC00003325FEADC0C18BF033202EBDC02C2F1F5
:104BD000200300FA03FC20FA02F001FA03FE40EA87
:104BE0000E0021FA02F11444C1E600BF70B54FF087
:104BF000FF0C4CF4E06C1CEA11541DBF1CEA135569
:104C000094EA0C0F95EA0C0F00F0DEF82C4481EAD0
:104C1000030621EA4C5123EA4C5350EA013518BFF0
:104C200052EA033541F4801143F4801338D0A0FBDD
:104C300002CE4FF00005E1FB02E506F00042E0FB8A
:104C400003E54FF00006E1FB03569CF0000F18BF90
:104C50004EF0010EA4F1FF04B6F5007F64F5407438
:104C600004D25FEA4E0E6D4146EB060642EAC621CB
:104C700041EA55514FEAC52040EA5E504FEACE2E38
:104C8000B4F1FD0C88BFBCF5E06F1ED8BEF1004F3B
:104C900008BF5FEA500E50F1000041EB045170BDB7
:104CA00006F0004646EA010140EA020081EA0301FB
:104CB000B4EB5C04C2BFD4EB0C0541EA045170BDF7
:104CC00041F480114FF0000E013C00F3AB8014F171
:104CD000360FDEBF002001F0004170BDC4F10004BA
:104CE000203C35DA0C341BDC04F11404C4F120053B
:104CF00000FA05F320FA04F001FA05F240EA020096
:104D000001F0004221F0004110EBD37021FA04F6CB
:104D100042EB06015EEA430E08BF20EAD37070BD85
:104D2000C4F10C04C4F1200500FA04F320FA05F0E4
:104D300001FA04F240EA020001F0004110EBD370E6
:104D400041F100015EEA430E08BF20EAD37070BD56
:104D5000C4F1200500FA05F24EEA020E20FA04F32F
:104D600001FA05F243EA020321FA04F001F00041DE
:104D700021FA04F220EA020000EBD3705EEA430E4F
:104D800008BF20EAD37070BD94F0000F0FD101F07E
:104D90000046400041EB010111F4801F08BF013CB7
:104DA000F7D041EA060195F0000F18BF704703F0F5
:104DB0000046520043EB030313F4801F08BF013D7C
:104DC000F7D043EA0603704794EA0C0F0CEA135538
:104DD00018BF95EA0C0F0CD050EA410618BF52EAF2
:104DE0004306D1D181EA030101F000414FF00000F8
:104DF00070BD50EA410606BF1046194652EA430606
:104E000019D094EA0C0F02D150EA013613D195EA79
:104E10000C0F05D152EA03361CBF104619460AD1C1
:104E200081EA030101F0004141F0FE4141F47001CB
:104E30004FF0000070BD41F0FE4141F4780170BDBB
:104E400070B54FF0FF0C4CF4E06C1CEA11541DBF20
:104E50001CEA135594EA0C0F95EA0C0F00F0A7F822
:104E6000A4EB050481EA030E52EA03354FEA01314F
:104E700000F088804FEA03334FF0805545EA131362
:104E800043EA12634FEA022245EA111545EA10652A
:104E90004FEA00260EF000419D4208BF964244F1C1
:104EA000FD0404F5407402D25B084FEA3202B61AE0
:104EB00065EB03055B084FEA32024FF480104FF4B4
:104EC000002CB6EB020E75EB030E22BFB61A754628
:104ED00040EA0C005B084FEA3202B6EB020E75EBBB
:104EE000030E22BFB61A754640EA5C005B084FEA23
:104EF0003202B6EB020E75EB030E22BFB61A7546F0
:104F000040EA9C005B084FEA3202B6EB020E75EBFA
:104F1000030E22BFB61A754640EADC0055EA060EBB
:104F200018D04FEA051545EA16754FEA06164FEAFE
:104F3000C30343EA52734FEAC2025FEA1C1CC0D1AA
:104F400011F4801F0BD141EA00014FF000004FF037
:104F5000004CB6E711F4801F04BF01430020B4F1F8
:104F6000FD0C88BFBCF5E06F3FF6AFAEB5EB030CB0
:104F700004BFB6EB020C5FEA500C50F1000041EBAD
:104F8000045170BD0EF0004E4EEA113114EB5C047A
:104F9000C2BFD4EB0C0541EA045170BD41F480114D
:104FA0004FF0000E013C90E645EA060E8DE60CEA55
:104FB000135594EA0C0F08BF95EA0C0F3FF43BAF72
:104FC00094EA0C0F0AD150EA01347FF434AF95EA29
:104FD0000C0F7FF425AF104619462CE795EA0C0F0D
:104FE00006D152EA03353FF4FDAE1046194622E7DA
:104FF00050EA410618BF52EA43067FF4C5AE50EAB4
:1050000041047FF40DAF52EA43057FF4EBAE12E7A3
:105010004FF0FF3C06E000BF4FF0010C02E000BF84
:105020004FF0010C4DF804CD4FEA410C7FEA6C5C67
:105030004FEA430C18BF7FEA6C5C1BD001B050EA0A
:10504000410C0CBF52EA430C91EA030F02BF90EAF5
:10505000020F0020704710F1000F91EA030F58BFB4
:10506000994208BF90422CBFD8176FEAE37040F016
:10507000010070474FEA410C7FEA6C5C02D150EAB4
:10508000013C07D14FEA430C7FEA6C5CD6D152EA6F
:10509000033CD3D05DF8040B704700BF8446104634
:1050A00062468C461946634600E000BF01B5FFF733
:1050B000B7FF002848BF10F1000F01BD4DF808ED03
:1050C000FFF7F4FF0CBF012000205DF808FB00BFD4
:1050D0004DF808EDFFF7EAFF34BF012000205DF82E
:1050E00008FB00BF4DF808EDFFF7E0FF94BF01207B
:1050F00000205DF808FB00BF4DF808EDFFF7CEFF7C
:1051000094BF012000205DF808FB00BF4DF808EDBA
:10511000FFF7C4FF34BF012000205DF808FB00BF8B
:105120004FEA410C7FEA6C5C02D150EA013C0AD1A3
:105130004FEA430C7FEA6C5C02D152EA033C02D195
:105140004FF0000070474FF0010070474FEA4102F6
:1051500012F5001215D211D56FF47873B3EB6252C9
:1051600012D94FEAC12343F0004343EA505311F0F0
:10517000004F23FA02F018BF404270474FF0000082
:10518000704750EA013005D111F0004008BF6FF0C0
:10519000004070474FF00000704700BF2E2E2F7365
:1051A000797374656D2F7372632F73746D33326608
:1051B000342D68616C2F73746D3332663478785F88
:1051C00068616C5F636F727465782E630000000025
:1051D000000000000102030401020304060708099D
:1051E0002E2E2F73797374656D2F7372632F737402
:1051F0006D333266342D68616C2F73746D33326693
:105200003478785F68616C5F7263632E63000000BE
:1052100061626F727428292C2065786974696E67E1
:105220002E2E2E002C2066756E6374696F6E3A20E8
:1052300000000000617373657274696F6E2022252F
:105240007322206661696C65643A2066696C65202A
:10525000222573222C206C696E6520256425732518
:10526000730A00006173736572745F706172616DBF
:105270002829206661696C65643A2066696C65203E
:10528000222573222C206C696E652025640A00009B
:105290006D61696E28617267633D25642C206172BF
:1052A00067763D5B000000002C2000002225732261
:1052B000000000005D293B0A000000005374616398
:1052C0006B206672616D653A0A0000002052302042
:1052D0003D2020253038580A00000000205231209F
:1052E0003D2020253038580A00000000205232208E
:1052F0003D2020253038580A00000000205233207D
:105300003D2020253038580A00000000205231325C
:10531000203D20253038580A00000000204C522043
:105320003D2020253038580A00000000205043203E
:105330003D2020253038580A0000000020505352EC
:10534000203D20253038580A000000004653522FD7
:105350004641523A0A0000002043465352203D2065
:1053600020253038580A00002048465352203D205E
:1053700020253038580A00002044465352203D2052
:1053800020253038580A00002041465352203D2045
:1053900020253038580A0000204D4D464152203D0E
:1053A00020253038580A00002042464152203D2036
:1053B00020253038580A00004D6973630A00000048
:1053C000204C522F4558435F52455455524E3D2074
:1053D000253038580A0000005B48617264466175E8
:1053E0006C745D0A000000005B4275734661756C69
:1053F000745D0A005B55736167654661756C745D29
:105400000A00000000000000000000000102030488
:105410000607080944656C61795F6E73203D20259D
:10542000640A000046726571203D2025640A000070
:105430004652455155454E43595F504552494F4498
:105440005F5449434B53203D2025640A000000006F
:1054500045787472756465725F4D617465726961D7
:105460006C4C656E6774685F756D203D2025640A1D
:10547000000000005374657073203D2025640A000D
:1054800054696D657242617365506572696F6454E9
:1054900069636B73203D2025640A000048414C5F1E
:1054A00054494D5F50574D5F496E6974203D20252A
:1054B000640A000048414C5F54494D5F50574D5FAE
:1054C000436F6E6669674368616E6E656C203D2050
:1054D00025640A0048414C5F54494D5F4261736541
:1054E0005F496E6974203D2025640A0048414C5F85
:1054F00054494D5F426173655F53746F705F4954E7
:10550000203D2025640A0000436F70795F54696D67
:10551000657242617365506572696F645469636B4B
:1055200073203D2025640A00537465707065725FB6
:105530005370656564203D202025640A000000004A
:10554000537465707065725F5370656564202F20B9
:1055500032203D202025640A0000000050574D5F96
:1055600053746F70203D2025640A000053746570E9
:105570007065724964203D2025640A002E2E2F7329
:1055800072632F73746D3332663478785F68616C40
:105590005F74696D2E630000494E4600696E6600B7
:1055A0004E414E006E616E00300030313233343582
:1055B000363738394142434445460030313233347E
:1055C000353637383961626364656600496E6669ED
:1055D0006E697479004E614E00000000000000000A
:1055E000000000000000F03F000000000000244028
:1055F00000000000000059400000000000408F4003
:10560000000000000088C34000000000006AF8406D
:105610000000000080842E4100000000D012634191
:105620000000000084D797410000000065CDCD4107
:10563000000000205FA00242000000E876483742E8
:10564000000000A2941A6D42000040E59C30A24286
:105650000000901EC4BCD64200003426F56B0C43FB
:105660000080E03779C3414300A0D88557347643A2
:1056700000C84E676DC1AB43003D9160E458E14303
:10568000408CB5781DAF154450EFE2D6E41A4B4478
:1056900092D54D06CFF08044F64AE1C7022DB544BD
:1056A000B49DD9794378EA440080E03779C3414317
:1056B000176E05B5B5B89346F5F93FE9034F384D78
:1056C000321D30F94877825A3CBF737FDD4F157524
:1056D00005000000190000007D000000232D302B84
:1056E0002000686C4C0065666745464700430050E3
:1056F0004F534958002E0000202020202020202039
:105700002028282828282020202020202020202071
:105710002020202020202020881010101010101091
:1057200010101010101010100404040404040404D9
:10573000040410101010101010414141414141016A
:105740000101010101010101010101010101010149
:105750000101011010101010104242424242420258
:105760000202020202020202020202020202020219
:1057700002020210101010200000000000000000C3
:105780000000000000000000000000000000000019
:105790000000000000000000000000000000000009
:1057A00000000000000000000000000000000000F9
:1057B00000000000000000000000000000000000E9
:1057C00000000000000000000000000000000000D9
:1057D00000000000000000000000000000000000C9
:1057E00000000000000000000000000000000000B9
:0857F0000000000000000000B1
:0857F80020CCFF7F010000003E
:1058000078563412C0030020000000000024F40089
:105810000100000001000000020000000100000083
:10582000040000000100000008000000010000006A
:10583000100000000100000001000000080000004E
:105840000200000008000000040000000800000042
:1058500008000000080000006810000001000000BF
:105860000000000003000000010000000000000034
:10587000000C02400D0000000100000000000000CC
:10588000030000000100000000000000000C0240C6
:105890000E000000020000000000000003000000F5
:1058A00000000000020000000004024009000000A7
:1058B00001000000000000000300000001000000E3
:1058C00000000000000C02400B000000010000007E
:1058D00000000000030000000100000000000000C4
:1058E000000C02400C00000002000000000000005C
:1058F000030000000000000002000000000402405D
:105900000800000000080040000000000000000047
:10591000000000000000000000000000080000007F
:105920000000000000000000000000000000000077
:105930000000000000000000000000000000000067
:1059400000000000000000006810000000000000DF
:105950000000000070000000340800000200000099
:105960000000000004000000000000000000000033
:105970000C000000000800400000000000000000D3
:105980000000000000000000000000000400000013
:105990000000000000000000000000000000000007
:1059A00000000000000000000000000000000000F7
:1059B000000000000000000068100000000000006F
:1059C0000000000070000000340800000200000029
:1059D00000000000040000000000000000000000C3
:1059E00008000000000000000000000000000000AF
:1059F00000000000000000000000000000000000A7
:105A00000000000000000000000000000000000096
:105A10000000000000000000000000000000000086
:105A20000000000000000000000000000000000076
:105A30000000000000000000000000000000000066
:105A400000000000E401002043000000000000000E
:105A50000000000000000000000000000000000046
:105A600000000000000000004300000000000000F3
:105A70000000000000000000000000000000000026
:105A800000000000000000004300000000000000D3
:105A90000000000000000000000000000000000006
:105AA00000000000000000004300000000000000B3
:105AB00000000000000000000000000000000000E6
:105AC0000000000000000000430000000000000093
:105AD00000000000000000000000000000000000C6
