:020000040800F2
:1000000000000220B9020008C1020008C502000871
:10001000390300083D0300088503000800000000C4
:10002000000000000000000000000000CD030008F8
:10003000D103000800000000D50300089D1400084B
:10004000E9030008E9030008E9030008E9030008E0
:10005000E9030008E9030008E9030008E9030008D0
:10006000E9030008E9030008E9030008E9030008C0
:10007000E9030008E9030008E9030008E9030008B0
:10008000E9030008E9030008E9030008E9030008A0
:10009000E9030008E9030008E9030008E903000890
:1000A000E9030008E9030008E9030008E903000880
:1000B000E9030008E9030008E9030008E903000870
:1000C000E9030008E9030008E9030008E903000860
:1000D000E9030008E9030008E9030008E903000850
:1000E000E9030008E9030008E9030008E903000840
:1000F000E9030008E9030008E9030008E903000830
:10010000E9030008E9030008E9030008E90300081F
:10011000E9030008E9030008E9030008E90300080F
:10012000E9030008E9030008E9030008E9030008FF
:10013000E9030008E9030008E9030008E9030008EF
:10014000E9030008E9030008E9030008E9030008DF
:10015000E9030008E9030008E9030008E9030008CF
:10016000E9030008E9030008E9030008E9030008BF
:10017000E9030008E9030008E903000800000000A3
:10018000E9030008E903000800B583B000F062FE4F
:10019000384B394A1360394A136039490CE00A6810
:1001A0004B6801F10C04886803E01168196004339E
:1001B00004329842F9D82146324B9942EFD32E4B64
:1001C0001A68314B9A4204D12C4B1A682F4B9A4231
:1001D00000D0FEE7274B2E4A13602E4A13602E4BA9
:1001E0000AE0194651F8082B5B6802E00020106015
:1001F00004329A42FAD30B46284A9342F1D3244B55
:100200001B6813B9234B1B6803B1FEE701F09AF991
:10021000694601A800F0AEFD214C224B1C1BA41026
:10022000002504E01E4B53F8253098470135AC42B9
:10023000F8DC1D4C1D4B1C1BA410002504E01A4BC0
:1002400053F8253098470135AC42F8DC0099019805
:1002500001F080F90546164C164B1C1BA41004E057
:10026000013C134B53F824309847002CF8DC284607
:1002700000F052FDBABADECA00000020740000206F
:10028000EC030008040400087856341232547698BF
:1002900078000020840100200404000814040008F1
:1002A00014040008140400081404000814040008CE
:1002B000140400081404000808B5FFF765FF00BF28
:1002C00000BEFEE71EF0040F0CBFEFF30880EFF353
:1002D00009807146414A10472DE9F04182B0044639
:1002E0008846134B5E6B9F6B9D6A1B6B13F0020F6E
:1002F0000DD00F4BDB6A002B09DA4BF6AB6100F037
:100300002DFE20B14FF00042094BDA620CE00948A3
:1003100000F042FDCDF800803B463246294620469B
:1003200000F0A4FD00BEFEE702B0BDE8F08100BF12
:1003300000ED00E0B432000800BEFEE71EF0040F3E
:100340000CBFEFF30880EFF309807146244A104791
:100350002DE9F04182B004468846084B5E6B9F6BE6
:100360009D6A074800F018FDCDF800803B463246F4
:100370002946204600F07AFD00BEFEE700ED00E0D1
:10038000C43200081EF0040F0CBFEFF30880EFF337
:1003900009807146134A10472DE9F04182B00446A6
:1003A0008846084B5E6B9F6B9D6A074800F0F4FC23
:1003B000CDF800803B4632462946204600F056FDE7
:1003C00000BEFEE700ED00E0D032000800BEFEE710
:1003D00000BEFEE700BEFEE770470000D90200083D
:0C03E000510300089903000800BEFEE76E
:1003EC004C34000800000020780000204C34000839
:1003FC000000001000000010780000208801002090
:08040C000000001000000010C8
:1004200010B50446074B1B680748A0FB0330800942
:1004300000F094F8002221464FF0FF3000F04CF815
:10044000002010BD0C000020D34D621008B50B4BEE
:100450001A6842F400721A601A6842F480621A60E4
:100460001A6842F480721A60032000F017F80F2017
:10047000FFF7D6FF01F0D4F8002008BD003C024091
:10048000024A136801331360704700BF78010020EF
:10049000014B1868704700BF7801002010B5044672
:1004A000C31E042B03D9A421094800F06BFC094AA0
:1004B000D36823F4E0631B041B0C240204F4E064FF
:1004C000234343F0BF6343F40033D36010BD00BF48
:1004D0007830000800ED00E070B504460E46154681
:1004E0000F2A03D9BC211A4800F04CFC0F2E03D967
:1004F000BD21174800F046FC164BDA68C2F3022211
:10050000C2F10701042928BF0421131D062B01D9BC
:10051000033A00E00022012303FA01F101393140DE
:10052000914003FA02F2013A2A400A43002C06DA0B
:1005300004F00F041201D2B2074B1A5570BD12011C
:10054000D2B204F1604404F5614484F8002370BD24
:100550007830000800ED00E014ED00E00138B0F163
:10056000807F0AD2064B5860F021064A82F8231099
:100570000020986007221A6070470120704700BF72
:1005800010E000E000ED00E010B50446042805D0BE
:1005900020B140F2B311084800F0F4FB042C05D15F
:1005A000064A136843F00403136010BD034A13683E
:1005B00023F00403136010BD7830000810E000E061
:1005C00030B583B0044603680F2B03D9F5219C484E
:1005D00000F0D8FB236813F0010F45D06368012BAE
:1005E00005D9052B03D0FA21954800F0CBFB954B9C
:1005F0009B6803F00C03042B0AD0924B9B6803F01A
:100600000C03082B0CD18F4B5B6813F4800F07D0C1
:100610008C4B1B6813F4003F26D0636823BBCCE1EE
:100620002279894B1A7063687BB1FFF731FF054669
:1006300005E0FFF72DFF401B642800F2C081814BCD
:100640001B6813F4003FF4D00EE0FFF721FF0546CE
:1006500005E0FFF71DFF401B642800F2B281794BD3
:100660001B6813F4003FF4D1236813F0020F6AD023
:10067000E368012B04D94FF49671714800F082FBB6
:1006800023691F2B04D940F22D116D4800F07AFB2D
:100690006C4B9B6813F00C0F0AD06A4B9B6803F0FD
:1006A0000C03082B1BD1674B5B6813F4800F16D12A
:1006B000644B1B6813F0020F03D0E368012B40F07A
:1006C00082816048036823F0F8012369F82292FAD6
:1006D000A2F2B2FA82F293400B43036033E0E36884
:1006E000FBB10122594B1A60FFF7D2FE054605E027
:1006F000FFF7CEFE401B022800F26781514B1B68BA
:1007000013F0020FF4D04F48036823F0F801236977
:10071000F82292FAA2F2B2FA82F293400B430360FB
:1007200011E00022494B1A60FFF7B2FE054605E0D2
:10073000FFF7AEFE401B022800F24981414B1B68C7
:1007400013F0020FF4D1236813F0080F2ED0636961
:10075000012B04D940F26D11394800F013FB636995
:1007600093B101223A4B1A60FFF792FE054605E06D
:10077000FFF78EFE401B022800F22B81314B5B6F8E
:1007800013F0020FF4D011E00022314B1A60FFF792
:100790007FFE054605E0FFF77BFE401B022800F2C6
:1007A0001A81284B5B6F13F0020FF4D1236813F00A
:1007B000040F60D0A368012B06D9052B04D040F2AA
:1007C00097111F4800F0DEFA002301931D4B1A6CAD
:1007D00042F080521A641B6C03F080530193019B1A
:1007E0001C4A136843F480731360FFF751FE0546FB
:1007F00005E0FFF74DFE401B022800F2EE80154B8E
:100800001B6813F4807FF4D0227A134B1A70A3680C
:100810008BB1FFF73DFE054607E0FFF739FE401BB1
:1008200041F28833984200F2DA80064B1B6F13F0D6
:10083000020FF2D01FE0FFF72BFE054616E000BFC7
:10084000BC30000800380240023802400000474235
:10085000800E47420070004070380240FFF718FEDB
:10086000401B41F28833984200F2BB80634B1B6F00
:1008700013F0020FF2D1A369022B04D94FF4E671F1
:100880005F4800F07FFAA369002B00F0AC805B4A60
:10089000926802F00C02082A00F0A780022B79D19E
:1008A000E3693BB1B3F5800F04D040F2D511544851
:1008B00000F068FA236A3F2B04D94FF4EB715048DB
:1008C00000F060FA636A323BB3F5BF7F04D940F2AF
:1008D000D7114B4800F056FAA36A022B0AD0042B1A
:1008E00008D0062B06D0082B04D04FF4EC714448F6
:1008F00000F048FAE36A043B0B2B04D940F2D9110B
:100900003F4800F03FFA00223E4B1A60FFF7C0FD5F
:10091000054604E0FFF7BCFD401B022867D8374BB3
:100920001B6813F0007FF5D1E169236A1943636AFC
:1009300047F6C07292FAA2F2B2FA82F293401943D9
:10094000A36A5B085A1E4FF4403393FAA3F3B3FA39
:1009500083F302FA03F30B43E26A4FF0706191FAFA
:10096000A1F1B1FA81F18A401343244A5360012274
:10097000244B1A60FFF78CFD044604E0FFF788FD66
:10098000001B022835D81D4B1B6813F0007FF5D0E3
:10099000002031E000221B4B1A60FFF779FD04466E
:1009A00004E0FFF775FD001B022824D8134B1B68D9
:1009B00013F0007FF5D100201EE001201CE0032091
:1009C0001AE0032018E0012016E0032014E00320C1
:1009D00012E0032010E003200EE003200CE00320CF
:1009E0000AE0032008E0002006E0012004E00320E4
:1009F00002E0032000E0032003B030BD00380240D5
:100A0000BC30000860004742244B9B6803F00C0395
:100A1000042B3FD0082B01D02148704710B41F4B46
:100A2000586800F03F005B6813F4800F10D01D4B36
:100A3000B3FBF0F0194B5A6847F6C0710A4091FABF
:100A4000A1F3B3FA83F322FA03F303FB00F310E0FC
:100A5000134BB3FBF0F0114B5A6847F6C07402EA2F
:100A6000040194FAA4F2B2FA82F221FA02F202FB31
:100A700000F30A4A506800F440324FF4403090FAD4
:100A8000A0F0B0FA80F022FA00F001304000B3FB91
:100A9000F0F001E00348704710BC70470038024096
:100AA0000024F40000127A0070B504460D46036875
:100AB000013B0E2B04D940F237218F4800F062F938
:100AC000072D04D94FF40E718B4800F05BF98B4B66
:100AD0001B6803F00F039D4208D9EBB2874A1370DD
:100AE000136803F00F039D4240F0F480236813F075
:100AF000020F1DD0A368A3B1802B12D0902B10D071
:100B0000A02B0ED0B02B0CD0C02B0AD0D02B08D0ED
:100B1000E02B06D0F02B04D040F24F21764800F0B5
:100B200031F977498B6823F0F002A36813438B6097
:100B3000236813F0010F6BD06368032B04D940F2D4
:100B400056216D4800F01EF96268012A05D16C4BF0
:100B50001B6813F4003F0FD1BEE0931E012B05D894
:100B6000674B1B6813F0007F06D1B7E0644B1B682E
:100B700013F0020F00F0B48061498B6823F0030387
:100B800013438B60FFF784FC06466368012B0FD18B
:100B900007E0FFF77DFC801B41F28833984200F2AA
:100BA000A180574B9B6803F00C03042BF1D12FE07D
:100BB000022B0FD107E0FFF76BFC801B41F288335B
:100BC000984200F291804E4B9B6803F00C03082B77
:100BD000F1D11DE0032B16D107E0FFF759FC801B74
:100BE00041F28833984200F28180454B9B6803F0C4
:100BF0000C030C2BF1D10BE0FFF74AFC801B41F2F8
:100C00008833984274D83E4B9B6813F00C0FF3D195
:100C10003A4B1B6803F00F039D4207D2EAB2374BF1
:100C20001A701B6803F00F039D4263D1236813F011
:100C3000040F19D0E36883B1B3F5805F0DD0B3F52D
:100C4000A05F0AD0B3F5C05F07D0B3F5E05F04D072
:100C50004FF42D71284800F095F829498B6823F44A
:100C6000E052E36813438B60236813F0080F1AD037
:100C7000236983B1B3F5805F0DD0B3F5A05F0AD0CF
:100C8000B3F5C05F07D0B3F5E05F04D040F2BB21FD
:100C9000194800F077F81A4A936823F460432169F1
:100CA00043EAC1039360FFF7AFFE154B9B6803F067
:100CB000F002F02393FAA3F3B3FA83F322FA03F3D7
:100CC000104AD35CD840104B18600F20FFF7A8FBE8
:100CD000002070BD012070BD012070BD012070BDDD
:100CE000012070BD032070BD032070BD032070BDC6
:100CF000032070BD012070BDBC300008003C0240E4
:100D000000380240AC3000080C000020014B18688D
:100D1000704700BF0C000020FEE700BF08B5034885
:100D200000F052F80120FFF7F7FF00BFEC30000899
:100D300008B50D4B1B6813B90C4A0B4B1A600A4BD4
:100D40001A68C31C23F00303134409498B4206D9D4
:100D500001F0F6FC0C2303604FF0FF3008BD0249A0
:100D60000B60104608BD00BF7C00002088010020F9
:100D700000FC012001230360014B0B60704700BFA2
:100D80000400002008B50A460146024800F004F8B5
:100D9000FFF7C4FF403100080FB400B583B004ABC7
:100DA00053F8042B01938021064801F003FD00282D
:100DB00003DD0146034800F049F803B05DF804EB99
:100DC00004B070478400002010B5044601F0BEFC5A
:100DD0000146204600F03AF80121024800F036F8BA
:100DE00010BD00BF303200082DE9F04385B0044645
:100DF0000F46435613BB042528462146ABBE044686
:100E00001FE03546102E28BF1025002306E014F9F8
:100E1000011B04AA1A4402F8101C0133AB42F6D39A
:100E200004AA1344002203F8102CE9464FF00408EA
:100E300040464946ABBE8046761B00E00E46002E7B
:100E4000DFD1384605B0BDE8F08300BF08B5FFF735
:100E5000CBFF08BD08B500F091F8024B024A9A603A
:100E600008BD00BF00ED00E000000008F8B5044632
:100E70000D4617461E462648FFF78EFF2168254877
:100E8000FFF78AFF61682448FFF786FFA1682348BF
:100E9000FFF782FFE1682248FFF77EFF21692148C2
:100EA000FFF77AFF61692048FFF776FFA1691F48C5
:100EB000FFF772FFE1691E48FFF76EFF1D48FFF75D
:100EC0006BFF29461C48FFF767FF1C4CE16A1C4872
:100ED000FFF762FF216B1B48FFF75EFFE16B1A48CB
:100EE000FFF75AFF15F0800F03D039461748FFF778
:100EF00053FF15F4004F03D031461548FFF74CFF60
:100F00001448FFF749FF06991348FFF745FFF8BD5E
:100F100098310008A8310008B8310008C83100082D
:100F2000D8310008E8310008F8310008083200081C
:100F300018320008283200083432000800ED00E0C2
:100F40004432000854320008643200087432000849
:100F500084320008943200089C32000883691A88A1
:100F60008A4207D10268033A012A05D80233836115
:100F70000120704700207047002070470C4B1A6812
:100F800042F001021A60002199601A6822F084720E
:100F900022F480321A60074A5A601A6822F48022CA
:100FA0001A60D9604FF00062034B9A60704700BF2F
:100FB000003802401030002400ED00E0224B9B6816
:100FC00003F00C03042B07D0082B09D0002B2DD1E4
:100FD0001E4A1F4B1A602CE01E4A1D4B1A6028E067
:100FE000194B5A685B6803F03F0312F4800F09D075
:100FF000184AB2FBF3F2144B5B68C3F3881303FB8C
:1010000002F208E0114AB2FBF3F30F4A5168C1F350
:10101000881101FB03F20C4B5B68C3F301430133FE
:101020005B00B2FBF3F30A4A136002E0074A084B85
:101030001A60054B9B68C3F30313074AD15C044A4B
:101040001368CB4013607047003802400024F4005E
:101050000C00002000127A00E0320008002800F0A6
:10106000928003468268032A00F28F8041680F292C
:1010700000F28D80406900F17042022A00F28980FE
:1010800070B41A68464CA2421BD004F58064A24298
:1010900017D004F58064A24213D004F58064A24204
:1010A0000FD004F58064A2420BD004F58064A24204
:1010B00007D004F58064A24203D004F58064A24204
:1010C00069D120F070405861490003248C40E4430A
:1010D000106804EA0005156098688840284310608D
:1010E000D06804EA0005D560586988402843D0607C
:1010F0009868012809D1DD6805F15045012D4DD8CA
:101100001D6905F14045032D48D8D86820F070408E
:10111000D860186920F0704018615D686FF00100B8
:1011200000FA05F5506805405560D8685E68B04023
:1011300028435060906804409460186988402043B8
:1011400090609868022828D1490001F01F010F2003
:1011500088405C68072C0BD8146A24EA00001062EF
:101160009B6903FA01F140EA01031362002015E0D4
:10117000546A24EA000050629B6903FA01F10843B3
:10118000506200200AE001207047012070470120D2
:10119000704701207047012000E0002070BC7047BC
:1011A000000002402DE9F04184461D4C7F2323605E
:1011B0000027E76067604FF4247EC4F808E02761E9
:1011C000184D4FF0020885F81880174B2B6085F8F2
:1011D000387085F839702E1D0FCC0FC63160134C56
:1011E000702323600EFB0CF001F012F80022104B6C
:1011F00001F09EF901F084FA6060C4F8088067612C
:1012000004272761284600F067FB06463A46214638
:10121000284600F023FC3043C0B2BDE8F08100BF97
:1012200020010020340100200008004004010020BB
:101230000000594038B54FF4247303FB00F000F070
:10124000E7FF00220A4B01F073F90A4C01F058FA4B
:101250006060094D04222146284600F0FFFB044649
:101260000421284600F08AFD2043C0B238BD00BFEB
:1012700000005940040100203401002008B5042179
:10128000014800F07BFD08BD3401002008B50421B1
:10129000014800F0E3FD08BD3401002000B589B02D
:1012A000144B0193022003904FF0805306934FF0AC
:1012B00040530493062302930F4B07930323059394
:1012C000012100F021F801460C48FFF765FD0121DE
:1012D000042000F063F801460948FFF75DFD01A80E
:1012E000FFF7BCFE01460748FFF756FD09B05DF861
:1012F00004FB00BF0004024002000050F03200086E
:101300000C33000828330008431E012B2FD9042872
:101310002DD008282BD0102829D0202827D04028CD
:1013200025D0802823D0B0F5807F20D0B0F5805F15
:101330001DD0B0F5802F1AD0B0F5801F17D0B0F5B2
:10134000001F14D0B0F5800F11D0B0F1007F0ED087
:10135000B0F1806F0BD0B0F1006F08D0B0F1805FBA
:1013600005D0B0F1005F02D0B0F1804F0FD101295C
:101370000FD805D1084A136B18431063002070473B
:10138000054A136B23EA0000106300207047012018
:1013900070470120704700BF00380240B0F1007F65
:1013A00033D0B0F1806F30D0B0F1005F2DD0B0F508
:1013B000001F2AD0B0F5800F27D0B0F5000F24D041
:1013C000B0F1805F21D0B0F5804F1ED0B0F5004F56
:1013D0001BD0402819D0802817D0B0F5807F14D0BA
:1013E000012812D0022810D004280ED008280CD0D2
:1013F00010280AD0202808D0B0F5003F05D0B0F55D
:10140000802F02D0B0F5006F0FD101290FD805D180
:10141000084A136C1843106400207047054A136C87
:1014200023EA00001064002070470120704701206B
:10143000704700BF003802400A4B1B680A4AA2FBF3
:1014400003239B09013BB3F1807F09D2074A536014
:10145000F021074B83F823100023936007231360C8
:10146000704700BF0C000020D34D621010E000E078
:1014700000ED00E0034B1860024B1B68002BFBD112
:10148000704700BF80010020034B1B681BB1024A5C
:101490001368013B136070478001002008B5FEF718
:1014A000EFFFFFF7F1FF08BD30B595B000240194C0
:1014B000214B1A6C42F080521A641B6C03F080536B
:1014C0000193019B02941D4B1A6842F480421A60FA
:1014D0001B6803F480430293029B01230893099342
:1014E0004FF480030F93082310934FF4A8731193C4
:1014F00002251295072313930E9508A8FFF760F8AD
:101500000F230393049505944FF4A05306934FF4CF
:1015100080530793052103A8FFF7C6FAFFF7F6FBF0
:10152000074BA3FB00308009FFF718F80420FFF7F2
:101530002BF815B030BD00BF0038024000700040ED
:10154000D34D621008B5FEF781FFFFF7ADFFFFF73F
:1015500035FD08BD08B5FFF76FFF1E20FFF722FE1F
:10156000FFF78CFE2748FFF717FC40F6B830FFF76F
:1015700081FF2820FFF75EFE2348FFF70DFC40F6B1
:10158000B830FFF777FFFFF781FE40F6B830FFF77E
:1015900071FF3220FFF74EFE1C48FFF7FDFB40F6BF
:1015A000B830FFF767FF3C20FFF744FE1848FFF70D
:1015B000F3FB40F6B830FFF75DFF4620FFF73AFE39
:1015C0001448FFF7E9FB40F6B830FFF753FFFFF789
:1015D0005DFE40F6B830FFF74DFF5020FFF72AFEC2
:1015E0000D48FFF7D9FB40F6B830FFF743FF5A200C
:1015F000FFF720FE0948FFF7CFFB40F6B830FFF7B2
:1016000039FFAFE7443300086C3300088433000827
:101610009C330008B4330008CC330008E4330008DE
:10162000704700BF70B4036A23F001030362036ACA
:101630004268846924F073040D6844EA050623F0C7
:1016400002048B6823430F4DA84204D00E4CA042E5
:1016500003D1012402E0012400E000245CB123F066
:101660000803CD682B4323F0040322F440724D6934
:1016700015438A692A43426086614A68426303626D
:1016800070BC704700000140000401402DE9F041AA
:1016900004460E46036A23F480730362056A4768B2
:1016A000C36923F073080B6848EA030825F4007344
:1016B0008D6843EA0525204B984205D003F58063E9
:1016C000984203D1012302E0012300E000235BB331
:1016D000F36833B1082B04D041F20D311748FFF7FE
:1016E00051FBB369B3F5007F05D023B141F20E3150
:1016F0001248FFF747FB7369B3F5807F05D023B12C
:1017000041F20F310D48FFF73DFB25F40065F3680A
:1017100045EA032525F4806527F44057736947EAB5
:101720000317B36947EA03176760C4F81C8073683E
:10173000E3632562BDE8F08100000140FC3300084E
:101740002DE9F04104460F46036A23F480530362F7
:10175000056AD0F80480C66926F4E6430E6843EAB9
:10176000062625F400538D6843EA0535114B98424F
:1017700005D003F58063984203D1012302E00123E1
:1017800000E0002373B17B69B3F5807F05D023B1FE
:1017900041F253310848FFF7F5FA28F480487B6995
:1017A00048EA8318C4F80480E6617B6823642562F4
:1017B000BDE8F08100000140FC3300080368454AA1
:1017C000904214D0B0F1804F13D0A2F57C429042E9
:1017D00011D002F5806290420FD002F580629042F3
:1017E0000DD002F5784290420BD101220AE001228D
:1017F00008E0012206E0012204E0012202E00122C9
:1018000000E000221AB123F070034A681343314A02
:1018100090422CD0B0F1804F2BD0A2F57C42904268
:1018200029D002F58062904227D002F58062904272
:1018300025D002F57842904223D002F570529042B2
:1018400021D002F5806290421FD002F58062904262
:101850001DD0A2F5983290421BD002F580629042D2
:1018600019D002F58062904217D1012216E00122C0
:1018700014E0012212E0012210E001220EE0012218
:101880000CE001220AE0012208E0012206E0012228
:1018900004E0012202E0012200E000221AB123F458
:1018A0004073CA68134303608B68C3620B6883622A
:1018B000084B984205D003F58063984203D1012379
:1018C00002E0012300E000230BB10B690363012355
:1018D0004361704700000140002870D010B50446F5
:1018E0000368384A934237D0B3F1804F34D0A2F521
:1018F0007C42934230D002F5806293422CD002F5B4
:101900008062934228D002F58062934224D002F58F
:101910008062934220D002F5704293421CD002F5BF
:101920007052934218D002F58062934214D002F5AF
:101930008062934210D0A2F5983293420CD002F507
:101940008062934208D002F58062934204D040F254
:10195000F3311D48FFF716FAA36863B1102B0AD0C4
:10196000202B08D0402B06D0602B04D04FF47D7183
:101970001548FFF707FA236953B1B3F5807F07D005
:10198000B3F5007F04D040F2F5310F48FFF7FAF9C4
:1019900094F8393013F0FF0F05D1002384F8383064
:1019A0002046FFF77BFC022384F83930211D206894
:1019B000FFF704FF012384F83930002010BD012017
:1019C000704700BF00000140FC3300082DE9F041E2
:1019D00004460E46036A23F010030362056AD0F83A
:1019E0000480876927F4E6430F6843EA072725F058
:1019F00020038D6843EA0515164B984205D003F580
:101A00008063984203D1012302E0012300E0002318
:101A1000BBB1F36833B1082B04D041F2FB110E487F
:101A2000FFF7B0F925F08005F36845EA031525F0C6
:101A3000400528F44068736948EA8308B36948EAB6
:101A40008308C4F80480A7617368A3632562BDE8B6
:101A5000F08100BF00000140FC33000890F83830EE
:101A6000012B00F02E8170B516460D460446012369
:101A700080F8383062B1042A0AD0082A08D00C2A2B
:101A800006D0182A04D040F63E418F48FFF77AF975
:101A90002B68602B06D0702B04D040F63F418A485B
:101AA000FFF770F9AB6833B1022B04D04FF44461F7
:101AB0008548FFF767F92B6933B1042B04D040F652
:101AC00041418148FFF75EF9022384F839300C2E3A
:101AD00000F2F080DFE816F00D00EE00EE00EE0000
:101AE0005500EE00EE00EE008E00EE00EE00EE007F
:101AF000BE002368754A93422FD0B3F1804F2CD09B
:101B0000A2F57C42934228D002F58062934224D011
:101B100002F58062934220D002F5784293421CD0B5
:101B200002F57052934218D002F58062934214D0AD
:101B300002F58062934210D0A2F5983293420CD005
:101B400002F58062934208D002F58062934204D08D
:101B500040F649415C48FFF715F929462068FFF730
:101B600061FD2268936943F00803936122689369D9
:101B700023F004039361226891692B690B439361FD
:101B800098E02368514A93421FD0B3F1804F1CD094
:101B9000A2F57C42934218D002F58062934214D0A1
:101BA00002F58062934210D002F5784293420CD045
:101BB00002F57052934208D0A2F59432934204D0B9
:101BC00040F658414048FFF7DDF829462068FFF706
:101BD000FDFE2268936943F4006393612268936970
:101BE00023F48063936122689369296943EA01239E
:101BF00093615FE02368354A934217D0B3F1804F79
:101C000014D0A2F57C42934210D002F58062934238
:101C10000CD002F58062934208D002F578429342DC
:101C200004D040F667412848FFF7ACF82946206801
:101C3000FFF72CFD2268D36943F00803D3612268C3
:101C4000D36923F00403D3612268D1692B690B4364
:101C5000D3612FE023681D4A934217D0B3F1804F20
:101C600014D0A2F57C42934210D002F580629342D8
:101C70000CD002F58062934208D002F5784293427C
:101C800004D040F676411048FFF77CF829462068DA
:101C9000FFF756FD2268D36943F40063D3612268DD
:101CA000D36923F48063D3612268D369296943EA45
:101CB0000123D361012384F83930002084F83800EF
:101CC00070BD0220704700BFFC33000800000140D7
:101CD00070B504460E461546264B98422FD0B0F1FB
:101CE000804F2CD0A3F57C43984228D003F5806325
:101CF000984224D003F58063984220D003F57843BE
:101D000098421CD003F57053984218D003F58063B5
:101D1000984214D003F58063984210D0A3F598330D
:101D200098420CD003F58063984208D003F5806395
:101D3000984204D041F27E210F48FFF723F866B1A4
:101D4000042E0AD0082E08D00C2E06D0182E04D04F
:101D500041F27F210848FFF715F8012303FA06F244
:101D6000236A23EA02032362236AB5401D432562E6
:101D700070BD00BF00000140FC33000838B50446C8
:101D80000D4603682D4A934212D0B3F1804F0FD015
:101D9000A2F57C4293420BD002F58062934207D0B9
:101DA00002F58062934203D002F57842934206D155
:101DB00035B3042D24D0082D22D00C2D20D0204A5C
:101DC000934202D1E5B1042D1AD01E4A934200D1AC
:101DD000B5B11D4A934200D195B11C4A934202D13C
:101DE00075B1042D0CD01A4A934200D145B1194A5D
:101DF000934200D125B140F254411748FEF7C2FF8B
:101E0000012229462068FFF763FF23680B4A9342AB
:101E100005D002F58062934203D1012202E0012243
:101E200000E000221AB15A6C42F400425A6422685F
:101E3000136843F001031360002038BD0000014027
:101E400000400140004401400048014000180040AB
:101E5000001C004000200040FC33000838B5044658
:101E60000D460368394A934212D0B3F1804F0FD028
:101E7000A2F57C4293420BD002F58062934207D0D8
:101E800002F58062934203D002F57842934206D174
:101E900035B3042D24D0082D22D00C2D20D02C4A6F
:101EA000934202D1E5B1042D1AD02A4A934200D1BF
:101EB000B5B1294A934200D195B1284A934202D143
:101EC00075B1042D0CD0264A934200D145B1254A64
:101ED000934200D125B140F275412348FEF752FFED
:101EE000002229462068FFF7F3FE2368174A934231
:101EF00005D002F58062934203D1012202E0012263
:101F000000E000226AB1196A41F21112114208D1AF
:101F1000196A40F24442114203D15A6C22F4004241
:101F20005A642368196A41F21112114208D1196AE0
:101F300040F24442114203D11A6822F001021A60B1
:101F4000012384F83930002038BD00BF0000014073
:101F5000004001400044014000480140001800409A
:101F6000001C004000200040FC33000881F00041CC
:101F700002E000BF83F0004330B54FEA41044FEA6E
:101F8000430594EA050F08BF90EA020F1FBF54EA09
:101F9000000C55EA020C7FEA645C7FEA655C00F0A5
:101FA000E2804FEA5454D4EB5555B8BF6D420CDD76
:101FB0002C4480EA020281EA030382EA000083EAF9
:101FC000010180EA020281EA0303362D88BF30BD99
:101FD00011F0004F4FEA01314FF4801C4CEA1131EF
:101FE00002D0404261EB410113F0004F4FEA03334E
:101FF0004CEA133302D0524263EB430394EA050FD9
:1020000000F0A780A4F10104D5F1200E0DDB02FA47
:102010000EFC22FA05F2801841F1000103FA0EF2DB
:10202000801843FA05F359410EE0A5F120050EF1A1
:10203000200E012A03FA0EFC28BF4CF0020C43FAD2
:1020400005F3C01851EBE37101F0004507D54FF0DF
:10205000000EDCF1000C7EEB00006EEB0101B1F52F
:10206000801F1BD3B1F5001F0CD349085FEA300075
:102070004FEA3C0C04F101044FEA445212F5800F80
:1020800080F09A80BCF1004F08BF5FEA500C50F11D
:10209000000041EB045141EA050130BD5FEA4C0C00
:1020A000404141EB010111F4801FA4F10104E9D189
:1020B00091F0000F04BF01460020B1FA81F308BF80
:1020C0002033A3F10B03B3F120020CDA0C3208DD4C
:1020D00002F1140CC2F10C0201FA0CF021FA02F127
:1020E0000CE002F11402D8BFC2F1200C01FA02F197
:1020F00020FA0CFCDCBF41EA0C019040E41AA2BFBC
:1021000001EB0451294330BD6FEA04041F3C1CDA83
:102110000C340EDC04F11404C4F1200220FA04F0A3
:1021200001FA02F340EA030021FA04F345EA03014D
:1021300030BDC4F10C04C4F1200220FA02F001FA0F
:1021400004F340EA0300294630BD21FA04F0294691
:1021500030BD94F0000F83F4801306BF81F480112A
:102160000134013D4EE77FEA645C18BF7FEA655C9D
:1021700029D094EA050F08BF90EA020F05D054EA6F
:10218000000C04BF1946104630BD91EA030F1EBF74
:102190000021002030BD5FEA545C05D14000494178
:1021A00028BF41F0004130BD14F580043CBF01F56B
:1021B000801130BD01F0004545F0FE4141F4700151
:1021C0004FF0000030BD7FEA645C1ABF194610462C
:1021D0007FEA655C1CBF0B46024650EA013406BF2D
:1021E00052EA033591EA030F41F4002130BD00BFEC
:1021F00090F0000F04BF0021704730B54FF48064A9
:1022000004F132044FF000054FF0000150E700BF29
:1022100090F0000F04BF0021704730B54FF4806488
:1022200004F1320410F0004548BF40424FF0000175
:102230003EE700BF42004FEAE2014FEA31014FEAB8
:1022400002701FBF12F07F4393F07F4F81F0605107
:10225000704792F0000F14BF93F07F4F704730B576
:102260004FF4607401F0004521F0004120E700BF09
:1022700050EA010208BF704730B54FF000050AE090
:1022800050EA010208BF704730B511F0004502D591
:10229000404261EB41014FF4806404F132045FEA93
:1022A000915C3FF4DCAE4FF003025FEADC0C18BF38
:1022B00003325FEADC0C18BF033202EBDC02C2F12E
:1022C000200300FA03FC20FA02F001FA03FE40EAC0
:1022D0000E0021FA02F11444C1E600BF70B54FF0C0
:1022E000FF0C4CF4E06C1CEA11541DBF1CEA1355A2
:1022F00094EA0C0F95EA0C0F00F0DEF82C4481EA0A
:10230000030621EA4C5123EA4C5350EA013518BF29
:1023100052EA033541F4801143F4801338D0A0FB16
:1023200002CE4FF00005E1FB02E506F00042E0FBC3
:1023300003E54FF00006E1FB03569CF0000F18BFC9
:102340004EF0010EA4F1FF04B6F5007F64F5407471
:1023500004D25FEA4E0E6D4146EB060642EAC62104
:1023600041EA55514FEAC52040EA5E504FEACE2E71
:10237000B4F1FD0C88BFBCF5E06F1ED8BEF1004F74
:1023800008BF5FEA500E50F1000041EB045170BDF0
:1023900006F0004646EA010140EA020081EA030134
:1023A000B4EB5C04C2BFD4EB0C0541EA045170BD30
:1023B00041F480114FF0000E013C00F3AB8014F1AA
:1023C000360FDEBF002001F0004170BDC4F10004F3
:1023D000203C35DA0C341BDC04F11404C4F1200574
:1023E00000FA05F320FA04F001FA05F240EA0200CF
:1023F00001F0004221F0004110EBD37021FA04F605
:1024000042EB06015EEA430E08BF20EAD37070BDBE
:10241000C4F10C04C4F1200500FA04F320FA05F01D
:1024200001FA04F240EA020001F0004110EBD3701F
:1024300041F100015EEA430E08BF20EAD37070BD8F
:10244000C4F1200500FA05F24EEA020E20FA04F368
:1024500001FA05F243EA020321FA04F001F0004117
:1024600021FA04F220EA020000EBD3705EEA430E88
:1024700008BF20EAD37070BD94F0000F0FD101F0B7
:102480000046400041EB010111F4801F08BF013CF0
:10249000F7D041EA060195F0000F18BF704703F02E
:1024A0000046520043EB030313F4801F08BF013DB5
:1024B000F7D043EA0603704794EA0C0F0CEA135571
:1024C00018BF95EA0C0F0CD050EA410618BF52EA2B
:1024D0004306D1D181EA030101F000414FF0000031
:1024E00070BD50EA410606BF1046194652EA43063F
:1024F00019D094EA0C0F02D150EA013613D195EAB3
:102500000C0F05D152EA03361CBF104619460AD1FA
:1025100081EA030101F0004141F0FE4141F4700104
:102520004FF0000070BD41F0FE4141F4780170BDF4
:1025300070B54FF0FF0C4CF4E06C1CEA11541DBF59
:102540001CEA135594EA0C0F95EA0C0F00F0A7F85B
:10255000A4EB050481EA030E52EA03354FEA013188
:1025600000F088804FEA03334FF0805545EA13139B
:1025700043EA12634FEA022245EA111545EA106563
:102580004FEA00260EF000419D4208BF964244F1FA
:10259000FD0404F5407402D25B084FEA3202B61A19
:1025A00065EB03055B084FEA32024FF480104FF4ED
:1025B000002CB6EB020E75EB030E22BFB61A754661
:1025C00040EA0C005B084FEA3202B6EB020E75EBF4
:1025D000030E22BFB61A754640EA5C005B084FEA5C
:1025E0003202B6EB020E75EB030E22BFB61A754629
:1025F00040EA9C005B084FEA3202B6EB020E75EB34
:10260000030E22BFB61A754640EADC0055EA060EF4
:1026100018D04FEA051545EA16754FEA06164FEA37
:10262000C30343EA52734FEAC2025FEA1C1CC0D1E3
:1026300011F4801F0BD141EA00014FF000004FF070
:10264000004CB6E711F4801F04BF01430020B4F131
:10265000FD0C88BFBCF5E06F3FF6AFAEB5EB030CE9
:1026600004BFB6EB020C5FEA500C50F1000041EBE6
:10267000045170BD0EF0004E4EEA113114EB5C04B3
:10268000C2BFD4EB0C0541EA045170BD41F4801186
:102690004FF0000E013C90E645EA060E8DE60CEA8E
:1026A000135594EA0C0F08BF95EA0C0F3FF43BAFAB
:1026B00094EA0C0F0AD150EA01347FF434AF95EA62
:1026C0000C0F7FF425AF104619462CE795EA0C0F46
:1026D00006D152EA03353FF4FDAE1046194622E713
:1026E00050EA410618BF52EA43067FF4C5AE50EAED
:1026F00041047FF40DAF52EA43057FF4EBAE12E7DD
:102700004A0011D212F5001211D20DD56FF4787370
:10271000B3EB62520ED44FEAC12343F0004343EAC5
:10272000505323FA02F070474FF00000704750EA10
:10273000013002D14FF0FF3070474FF0000070477A
:10274000014B1868704700BF70000020034613F863
:10275000012B002AFBD1181A0138704730B5141E1E
:1027600005469BB0184604DA8B232B604FF0FF30F0
:102770001DE04FF40273ADF80C3014BF04F1FF33C9
:102780002346029305934FF6FF7300910491ADF831
:102790000E3002461E9B6946284600F073F8431C23
:1027A000BCBF8B232B6014B1009B00221A701BB09E
:1027B00030BD000007B5009313460A4601460348A2
:1027C0000068FFF7CBFF03B05DF804FB700000204A
:1027D0002DE9F0478E689E4282460C469146984607
:1027E0003ED88A8912F4906F3AD0256809696F1A29
:1027F0006569022305EB450595FBF3F57B1C434416
:102800009D4238BF1D4653050FD5294600F094FB65
:10281000064698B13A46216900F01AFBA38923F4D1
:10282000906343F08003A38113E02A4600F0E2FBAB
:10283000064670B92169504600F030FB0C23CAF8F7
:102840000030A38943F04003A3814FF0FF30BDE87F
:10285000F087266165613E44ED1B2660A560464613
:10286000464528BF464632464946206800F0FBFAF6
:10287000A3689B1BA36023681E4426600020BDE85C
:10288000F08700002DE9F04F9DB0804603938B89BF
:102890001C060D4616460DD50B695BB9402100F0AC
:1028A0004BFB2860286118B90C23C8F80030CDE034
:1028B00040236B610023099320238DF82930DFF832
:1028C0009CB130238DF82A3037463C4614F8013B42
:1028D0001BB9B7EB060910D003E0252BF9D027462A
:1028E000F3E74B46324629464046FFF771FF013079
:1028F00000F0A780099B4B4409933B78002B00F024
:10290000A08000234FF0FF320493079305920693B3
:102910008DF853301A930126052221784E4800F095
:1029200047FA671C049B38B14B4A801A06FA00F03C
:10293000184304903C46EFE7D90644BF20228DF8A7
:1029400053201A0744BF2B228DF8532022782A2ABD
:1029500003D0079A00210A200BE0039A111D126888
:102960000391002A10DA524243F0020007920490C9
:102970000BE0274601343B78303B092B03D800FBA2
:1029800002320121F5E701B107923B782E2B1ED1CF
:102990007B782A2B0AD1039B1A1D1B680392002BFC
:1029A000B8BF4FF0FF330237059310E000230593C3
:1029B000781C19460A24074601303A78303A092A29
:1029C00003D804FB01210123F5E703B1059103229C
:1029D0003978224800F0ECF940B14023CBEB0000FD
:1029E00003FA00F0049B18430490013739781C481F
:1029F0008DF8281006227E1C00F0DAF988B1194BF8
:102A000033B9039B073323F007030833039314E020
:102A100003AB00932A46144B04A94046AFF3008051
:102A200007E003AB00932A460F4B04A9404600F091
:102A300093F8B0F1FF3F824603D0099B53440993BA
:102A400042E7AB895B0601D4099801E04FF0FF3003
:102A50001DB0BDE8F08F00BF183400081E34000818
:102A60002234000800000000D12700082DE9F047BB
:102A700091461F460A698B68DDF820809342B8BFF3
:102A80001346C9F8003091F8432006460C4612B1AF
:102A90000133C9F800302368990642BFD9F80030E5
:102AA0000233C9F80030256815F0060510D104F18D
:102AB000190A07E00123524639463046C047013023
:102AC0001AD00135E368D9F800209B1A9D42F1DB4A
:102AD00094F843302268003318BF012392060FD5C3
:102AE000E1185A1C302081F84300224494F8451024
:102AF00082F84310023303E04FF0FF30BDE8F08767
:102B000004F1430239463046C0470130F4D0226810
:102B1000D9F80050E36802F00602042A08BF5D1BE2
:102B20002269A3680CBF25EAE57500259342C4BF5E
:102B30009B1AED184FF000091A344D4509D00123B6
:102B4000224639463046C0470130D5D009F1010947
:102B5000F3E70020BDE8F0872DE9F04317460A7E31
:102B600085B06E2A984606460C460C9B01F1430E32
:102B700000F0AE8011D8632A22D009D8002A00F0D4
:102B8000BB80582A40F0CA8081F84520834955E02F
:102B9000642A1ED0692A1CD0C0E0732A00F0B080DD
:102BA00009D86F2A2ED0702A40F0B8800A6842F007
:102BB00020020A603EE0752A24D0782A3AD0ADE09F
:102BC0001A6801F14205111D1960136884F842303A
:102BD000A8E021681A6811F0800F02D0111D196059
:102BE00008E011F0400F02F10401196002D0B2F9BF
:102BF000003000E01368002B3CDA2D225B4284F8A1
:102C0000432037E021681A6811F0800F02D0111DAF
:102C1000196007E011F0400F02F10401196001D0C2
:102C2000138800E01368227E5C496F2A14BF0A22D1
:102C300008221BE078225A4984F845202268186847
:102C400012F0800F00F104051D6003D1550601D577
:102C5000038800E00368D00744BF42F020022260EE
:102C60001BB9226822F0200222601022002084F882
:102C7000430001E049490A226568A560002D08DB90
:102C8000206820F0040020602BB9002D7DD175460E
:102C90000CE0002B79D07546B3FBF2F002FB103349
:102CA000CB5C05F8013D03460028F5D1082A0BD17D
:102CB0002368DA0708D5236962689A42DEBF3023A9
:102CC00005F8013C05F1FF35C5EB0E0323612EE04D
:102CD00008681A68496910F0800F03D0101D186049
:102CE000136808E010F0400F02F104001860136848
:102CF00001D0198000E0196000232361754616E0B9
:102D00001A68111D1960156862680021284600F0D4
:102D10004FF808B1401B6060636804E004F14205AD
:102D200084F8422001232361002384F84330CDF846
:102D300000803B4603AA21463046FFF797FE01304C
:102D400002D14FF0FF3026E023692A46394630464B
:102D5000C0470130F5D023689B0710D5002504F14A
:102D6000190907E001234A4639463046C047013079
:102D7000E7D00135E368039A9B1A9D42F2DBE068D5
:102D8000039B9842B8BF184605E00B7884F84230A0
:102D900004F142058AE705B0BDE8F0832934000854
:102DA0003A340008000000000000000000000000AD
:102DB00001F0FF01102A2BDB10F0070F08D010F8EC
:102DC000013B013A8B422DD010F0070F42B3F6D1F0
:102DD000F0B441EA012141EA014122F007047FF009
:102DE00000070023F0E80256083C85EA010586EA60
:102DF000010685FA47F5A3FA87F586FA47F6A5FA9C
:102E000087F68EB9EED1F0BC01F0FF0102F00702A7
:102E100032B110F8013B013A83EA010313B1F8D152
:102E20000020704701387047002D06BF3546033833
:102E3000073815F0010F07D1013015F4807F02BF6C
:102E4000013015F4C03F0130F0BC0138704700BFBD
:102E500010B5431E0A44914204D011F8014B03F807
:102E6000014FF8E710BD884210B501EB020301D80D
:102E7000421E0BE09842FBD28118D21AD34204D0F2
:102E800013F8014D01F8014DF8E710BD994204D047
:102E900011F8014B02F8014FF8E710BD38B50546AF
:102EA000002946D051F8043C0C1F002BB8BFE41891
:102EB00000F0D6F81F4A1368114613B96360146016
:102EC00032E0A3420ED92268A018834204BF1868DA
:102ED0005B68636004BF121822600C6024E0A242A9
:102EE00003D813465A68002AF9D118681918A14264
:102EF0000BD12168014458188242196014D110681E
:102F000052685A60014419600EE002D90C232B600C
:102F10000AE021686018824204BF1068526862604B
:102F200004BF091821605C602846BDE8384000F005
:102F300098B838BD7401002070B5CD1C25F003058C
:102F400008350C2D38BF0C25002D064601DBA942A3
:102F500002D90C23336046E000F082F8234B1C6852
:102F60001A462146A1B10B685B1B0ED40B2B03D96B
:102F70000B60CC18CD501EE08C420DBF63684B68CF
:102F80006360136018BF0C4615E00C464968E9E71A
:102F9000174C23681BB9304600F052F820602946D0
:102FA000304600F04DF8431C18D0C41C24F0030434
:102FB000A0420DD12560304600F053F804F10B001B
:102FC000231D20F00700C31A0ED05A42E25070BDF4
:102FD000211A304600F034F80130EBD10C23336075
:102FE000304600F03EF8002070BD00BF74010020A4
:102FF00070010020F8B5074615460E4621B9114666
:10300000BDE8F840FFF798BF1AB9FFF747FF284619
:10301000F8BD00F027F885420ED929463846FFF75B
:103020008BFF044650B131462A46FFF711FF314667
:103030003846FFF733FF01E03046F8BD2046F8BDC3
:1030400038B5064C0023054608462360FDF770FEA0
:10305000431C02D1236803B12B6038BD7C010020E2
:103060007047704751F8040C0028BEBF091851F88A
:10307000043CC018043870472E2E2F737973746582
:103080006D2F7372632F73746D333266342D6861E4
:103090006C2F73746D3332663478785F68616C5F5F
:1030A000636F727465782E630000000000000000FA
:1030B0000102030401020304060708092E2E2F73E0
:1030C000797374656D2F7372632F73746D33326609
:1030D000342D68616C2F73746D3332663478785F89
:1030E00068616C5F7263632E6300000061626F72DF
:1030F0007428292C2065786974696E672E2E2E003D
:103100002C2066756E6374696F6E3A2000000000B3
:10311000617373657274696F6E2022257322206655
:1031200061696C65643A2066696C652022257322AA
:103130002C206C696E65202564257325730A0000B8
:103140006173736572745F706172616D28292066A6
:1031500061696C65643A2066696C6520222573227A
:103160002C206C696E652025640A00006D61696E13
:1031700028617267633D25642C20617267763D5B30
:10318000000000002C200000222573220000000017
:103190005D293B0A00000000537461636B20667276
:1031A000616D653A0A000000205230203D20202544
:1031B0003038580A00000000205231203D202025E0
:1031C0003038580A00000000205232203D202025CF
:1031D0003038580A00000000205233203D202025BE
:1031E0003038580A0000000020523132203D20259E
:1031F0003038580A00000000204C52203D20202585
:103200003038580A00000000205043203D2020257F
:103210003038580A0000000020505352203D20252D
:103220003038580A000000004653522F4641523AA7
:103230000A0000002043465352203D20202530380C
:10324000580A00002048465352203D20202530389F
:10325000580A00002044465352203D202025303893
:10326000580A00002041465352203D202025303886
:10327000580A0000204D4D464152203D202530384F
:10328000580A00002042464152203D202025303877
:10329000580A00004D6973630A000000204C522F49
:1032A0004558435F52455455524E3D2025303858BD
:1032B0000A0000005B486172644661756C745D0AC7
:1032C000000000005B4275734661756C745D0A0016
:1032D0005B55736167654661756C745D0A0000003B
:1032E00000000000000000000102030406070809B6
:1032F0005243432D312020456E61626C652052653A
:103300007475726E203D2025640A20005243432DBF
:103310003220456E61626C652052657475726E2054
:103320003D2025640A2000004750494F20456E612A
:10333000626C652052657475726E203D2025640AAA
:103340002000000064757479206379636C652061E6
:103350007420496E697469616C697A6174696F6E11
:10336000206973203330250A0000000064757479E9
:10337000206379636C65206E6F7720697320343029
:10338000250A000064757479206379636C65206E8A
:103390006F77206973203530250A000064757479D1
:1033A000206379636C65206E6F77206973203630F7
:1033B000250A000064757479206379636C65206E5A
:1033C0006F77206973203730250A0000647574799F
:1033D000206379636C65206E6F77206973203830C5
:1033E000250A000064757479206379636C65206E2A
:1033F0006F77206973203930250A00002E2E2F7335
:1034000072632F73746D3332663478785F68616CE1
:103410005F74696D2E630000232D302B2000686CD3
:103420004C006566674546470030313233343536E7
:103430003738394142434445460030313233343520
:0B34400036373839616263646566004E
:10344C007856341280000020000000000024F400A4
:10345C000000000000000000000000000000000060
:10346C000000000000000000000000000000000050
:10347C000000000000000000000000000000000040
:10348C000000000000000000000000000000000030
:10349C000000000000000000000000000000000020
:1034AC000000000000000000000000000000000010
:0834BC00100000203254769844
:040000050800018965
:00000001FF
